:020000040800F2
:10000000380800209D0200085F430008C33900083B
:100010005D430008A51600085F4E000800000000C0
:10002000000000000000000000000000F54700088C
:10003000691700080000000001440008F7470008A5
:10004000B7020008B7020008B7020008B7020008AC
:10005000B7020008B7020008B7020008B70200089C
:10006000B7020008B7020008B7020008B70200088C
:10007000B7020008B7020008B7020008B70200087C
:10008000B702000800000000B7020008B70200082D
:10009000B7020008B7020008B7020008B70200085C
:1000A000B70200089548000889480008B702000810
:1000B000A1480008AD480008B7020008B7020008D0
:1000C000B7020008B7020008B7020008B70200082C
:1000D000B7020008B7020008B7020008B70200081C
:1000E000B7020008B7020008B7020008B70200080C
:1000F000B7020008B7020008B702000800000000BD
:1001000000000000B702000800000000B70200086D
:10011000B702000800000000B7020008B70200089C
:10012000B7020008B7020008B7020008B7020008CB
:10013000B70200080000000000000000B70200083D
:10014000B7020008B702000800000000000000002D
:10015000000000000000000000000000000000009F
:10016000000000000000000000000000B7020008CE
:10017000B7020008000000000000000000000000BE
:1001800000000000B70200080000000000000000AE
:10019000000000000000000000000000000000005F
:1001A0000000000000000000B7020008B7020008CD
:1001B000B7020008B7020008B702000800000000FC
:1001C00000000000B702000800000000000000006E
:1001D000B7020008B702000800F002F800F04FF87C
:1001E0000AA090E8000C82448344AAF10107DA4592
:1001F00001D100F044F8AFF2090EBAE80F0013F095
:10020000010F18BFFB1A43F001031847C06A000032
:10021000E06A0000103A24BF78C878C1FAD85207C3
:1002200024BF30C830C144BF04680C607047000070
:100230000023002400250026103A28BF78C1FBD8EF
:10024000520728BF30C148BF0B607047662905F0D0
:100250000084642900F08080632900F0FA83002084
:1002600070471FB505F0EBFB00F000FC0400002018
:10027000002104F06DFEE0601FBD10B510BD00F060
:10028000F5FC1146FFF7EDFF04F01AFE00F013FD38
:1002900003B4FFF7F2FF03BC00F056FD09488047A6
:1002A00009480047FEE7FEE7FEE7FEE7FEE7FEE758
:1002B000FEE7FEE7FEE7FEE704480549054A064B70
:1002C000704700006D480008D9010008380200207E
:1002D0003808002038040020380400200FB41CB572
:1002E000074B06AA7B4469460090059800F08FFBF7
:1002F0000020694600F09EFB1CBC5DF814FB00006A
:100300004D07000070B50C460546012A05D0287837
:10031000800600D5EA69002302E0012305E05B1CAA
:10032000934202D2E05C0028F9D1A869E618C01A0D
:10033000A861286A184428622846AFF3008004E0C8
:10034000D5E9012114F8010B9047B442F8D32846AF
:10035000AFF3008070BD00002DE9F0410646002497
:1003600010687529314616A510D0AFF3008000281B
:1003700002DA404213A507E031688A0701D512A5C9
:1003800002E0490704D511A5012401E0AFF3008084
:1003900000210A2206F1240709E0B0FBF2FCB0FBC1
:1003A000F2F302FB1C00303078541846491C002838
:1003B000F3D123462A463046BDE8F04100F0B9B8F3
:1003C000000000002D0000002B00000020000000B5
:1003D0002DE9F0474FF0000A89460446C0F820A0F6
:1003E0002046E1688847002876D0252806D0D4E941
:1003F00001219047206A401C2062F1E7E168204615
:1004000000258847C4F81CA006460027C4F818A099
:100410002A2E09D0304604F04BFD38B304EB870890
:10042000303EC8F8186019E059F8041B204604EB68
:1004300087029161E1688847012F064618D1E0697B
:10044000002820DA25F020051DE0D8F8180000EB80
:10045000800006EB40003038C8F818002046E168FC
:100460008847064604F024FD0028EED1012F0AD06B
:100470002E2E08D12046E16888477F1C0646022FB1
:1004800045F02005C4DBA069002803DA404245F0AE
:100490000105A061E80701D025F01005B6B1A6F16D
:1004A0004100192802D8203645F400654A463146F5
:1004B000204625604D46FFF7C9FE58B1012806D0F9
:1004C000ED1D25F0070000F1080989E704E005F1BA
:1004D000040985E730468AE7206ABDE8F0874FF0D7
:1004E000000200B5134694469646203922BFA0E884
:1004F0000C50A0E80C50B1F12001BFF4F7AF090790
:1005000028BFA0E80C5048BF0CC05DF804EB890080
:1005100028BF40F8042B08BF704748BF20F8022BC3
:1005200011F0804F18BF00F8012B704770477047DB
:1005300070472DE9F0470D4699469246044600F172
:1005400024080168880604D5E06921F010012160C3
:1005500000E00120A84201DD471B00E00027A1695F
:100560007A1902EB0900081AA0612078C00602D4AB
:100570002046AFF30080002608E0D4E901211AF8F4
:1005800006009047206A401C761C20624E45F4DB32
:100590002078C0060AD52046AFF3008006E0D4E9F3
:1005A000012130209047206A401C2062381EA7F1AC
:1005B0000107F4DC07E0D4E9012118F805009047B1
:1005C000206A401C2062281EA5F10105F3DC2046AC
:1005D000AFF300802078000602D50220BDE8F08746
:1005E0000120FBE770472DE9FF4F0C461E464FF0F8
:1005F000FF378BB0D2E90001DDF860800A908A46AF
:10060000C1F30A5505B93D46002108464FF00000E8
:10061000BAF1000F00F4400005DA00EB80004FF45F
:10062000400101EA50004FEA9059B9F1010F00DD95
:10063000B9460A9850EA4A000ED044F61050A5F286
:10064000FF3545432F14B8F1000F1ED07542291E07
:100650001EDDC9F100021CE0B8F1010F4FF00000EF
:1006600001D0302103E0F24305E02154401CB042A8
:10067000FBDB30460022002121540B99C1F8088091
:10068000C1E900200FB0BDE8F08FBD1B6D1CDEE797
:100690004A4600DA694206A800F072FA06AB93E80F
:1006A000070003AB83E8070050460A9900F053FBAC
:1006B0008DE80700A0F500501F3800900398002D2A
:1006C0000ADD42F21F014A460844002303A90390B1
:1006D000684600F0BCFD09E0A0F500504A461F380E
:1006E000002303A90390684600F0C6FD8DE80700CB
:1006F0000004000C03D04FF0FF30410800E010462A
:10070000B8F1000F03D00022009215461EE0751EBE
:1007100005D400F0AFF9303262556D1EF9D5B346FD
:100720000122084302D000227F1C04E020783028F8
:1007300001D100227F1E002A099784D01DE0112DCF
:1007400007DA00F097F9303262556D1C50EA010269
:10075000F5D1084302D00098C8B10EE00021681E10
:1007600005E0235C625C63542254401E491C8142B4
:10077000F7DBAB46A81B401E0990002004F80B00D5
:100780000B98099AC0F80880C0E9002B7AE7112677
:100790004FF0000857E72DE9F04F88460446D21D78
:1007A00022F0070191B0D1E90001CDE90A0104F07E
:1007B00057FB02460B98C00F01D02D2007E02068A0
:1007C000810701D52B2002E0202101EAC000032A85
:1007D000099001D0072A05DB03464146204600F078
:1007E0008FF90BE12078800601D5E06900E0062052
:1007F000B8F1650F814606D0B8F1660F18D0B8F190
:10080000670F70D131E00020B9F1110F009001DBCA
:10081000112301E009F101030AAA01A90CA8FFF7BD
:10082000E2FEDDE90C70002609F10105834647E090
:1008300001204B4600904FF000470AAA01A90CA8DE
:10084000FFF7D1FEDDE90DB00C995D46002610B929
:1008500009F101000D18B9EB050003D4C0F1FF3612
:1008600009F10105A5EB09002BE0B9F1010F01DA4F
:100870004FF001090020B9F1110F0090484601DD49
:10088000112300E003460AAA01A90CA8FFF7ABFE5A
:10089000DDE90C704D4600268346207800070AD417
:1008A000AB4500DA5D4601A8012D04DD411911F8C0
:1008B000011C302907D04F4502DA17F1040F04DA82
:1008C000012082460FE06D1EEEE7002F02DCED1BDB
:1008D0003E4403E0781CA84200DD7D1CB81B00F1FB
:1008E000010A4FF000472078000703D4AA4501DB36
:1008F0004FF0FF3A0021B7F1004F0DF143088DF89A
:10090000431024D002202B23002F01DA7F422D2315
:100910000A21021EA0F1010000DC5FB197FBF1FC8F
:1009200097FBF1F201FB1C7C17460CF1300C08F828
:1009300001CDEEE7A8F1010003702188090501D57A
:10094000452100E06521A0F1010800F8011C09988B
:100950000FA9A1EB0807FF1D00B10120411901EB10
:10096000EA70A1693844081A401EA0612078C006C8
:1009700002D42046AFF30080099828B1D4E90121C0
:100980009047206A401C20622078C00622D520466D
:10099000AFF300801EE0002E04DBB34502DD01A8AA
:1009A000805D00E03020D4E901219047206A401C9E
:1009B0002062761CAAF101005FEA000A0AD100F069
:1009C00055F8C0680168405CD4E901219047206A6D
:1009D000401C2062281EA5F10105DCDC07E0D4E9FB
:1009E000012118F8010B9047206A401C2062381E34
:1009F000A7F10107F3DC2046AFF30080032011B01C
:100A000041E6000001694A1C02610878704700B5A0
:100A10008FB0CDE901310021059105497944CDE937
:100A2000031011466846FFF7D3FC0FB000BD00006D
:100A3000E5FFFFFF0A6802F8010B0A60704710B576
:100A4000436913B1AFF3008001E0FFF75BFC0120C5
:100A500010BD127800F124010A7000224A700122B0
:100A6000EDE711684FF0FF32E9E7000000487047FA
:100A7000F801002030B5B0F10A024FEA900E71F192
:100A800000034EEA817EB0EB0E0061EB91014FEA6C
:100A9000101E4EEA017E10EB0E0041EB11114FEAE1
:100AA000102E4EEA016E10EB0E0041EB11214FEAC1
:100AB000104E4EEA014E10EB0E0041EB1141401872
:100AC00041F100014FEAD00040EA41704FEAD10104
:100AD00010EB80054FEA810444EA907444EB010472
:100AE0006D1944EB0404521BA3414FF0000348BFAF
:100AF0000A3200D530BD401C41F1000130BD00007C
:100B00002DE9F0411F46044603260168072A01F437
:100B1000006004DB08B116A505E016A503E008B1E6
:100B200015A500E015A521F010002060A069C01EE9
:100B3000A0610FB1401EA0612046AFF300804FB10D
:100B4000D4E9012138469047206A401C2062C01C2D
:100B5000206206E0206AFAE7D4E9012115F8010BCA
:100B60009047761EF8D22046AFF30080BDE8F081B2
:100B70004E414E006E616E00494E4600696E660041
:100B80002DE9F047814616468AB0354878440DC8AD
:100B90008DE80D0032487844801C03AC0DC884E811
:100BA0000D0041F69B300844372190FBF1F290FB99
:100BB000F1F5A5F1800501FB12041B3C02D564424E
:100BC000012000E00020DFF898A080460027FA44CA
:100BD000AAF1BE0A0EE0E0070AD03246684607EBEB
:100BE000470101230AEB810100F046FB8DE8070075
:100BF00064107F1C002CEED1194F7F44AE3F19E0EA
:100C0000E80715D007EB04100DF1180A90E80E0064
:100C10008AE80E00C068F04201D198190890324667
:100C2000012306A903A800F027FB03AB83E8070014
:100C30006D10641C002DE3D14FF00103324669466C
:100C4000B8F1000F03A802D000F001FB01E000F0B2
:100C500013FBC9E90001C9F808200AB0BDE8F08714
:100C60002461000000487047D80100207546FFF756
:100C7000F9FFAE4605006946534620F00700854659
:100C800018B020B5FFF718FBBDE820404FF0000674
:100C90004FF000074FF000084FF0000B21F0070164
:100CA000AC46ACE8C009ACE8C009ACE8C009ACE8A7
:100CB000C0098D46704710B50446AFF3008020464A
:100CC000BDE81040FFF7E4BA4FF0013C50F8042BA8
:100CD00051F8043B9A4221D1A2EB0C03934313EA4F
:100CE000CC1317D150F8042B51F8043B9A4215D17C
:100CF000A2EB0C03934313EACC130BD150F8042B53
:100D000051F8043B9A4209D1A2EB0C03934313EA36
:100D1000CC13DBD04FF00000704700BFD01A01BAEF
:100D2000B1FA81F101F0180122FA01F0CB40C1F1D2
:100D30002001DBB2C0B2C01A2CFA01F3D11A9143E0
:100D400011EAC311E6D1704701491820ABBEFEE796
:100D50002600020070475FEA400C08BF91F0000FC8
:100D60004FEA8C234FEAC12243EA51514FEA1C500B
:100D700018BF00F5F0404FEA300018BF41F00041C5
:100D80005FEA6C5C00F02980BCF1FF3F08BF40F0D7
:100D900080407047130C06BF12044FF0100C4FF048
:100DA000000C130E04BF12020CF1080C130F04BF49
:100DB00012010CF1040C930F04BF92000CF1020C11
:100DC000D30F04BF52000CF1010C11464FF000028A
:100DD000A0F11F00A0EB0C00704711F0004F08BFFE
:100DE000704731F000413FF4D5AF0B0C06BF09044A
:100DF0004FF0100C4FF0000C0B0E04BF09020CF169
:100E0000080C0B0F04BF09010CF1040C8B0F04BF7D
:100E100089000CF1020CCB0F04BF49000CF1010C4E
:100E2000CCF12003A0EB0C0022FA03F302FA0CF23F
:100E300041EA030100F10100704720F07F4C80EA95
:100E4000030023F07F47ACEB070303F57C5300F06E
:100E5000004003F1FF032DE980494FEA154B09B427
:100E60004FEA144325EA0B4E24EA03480FF2042606
:100E700006EB132749083E785FEA320203FB066758
:100E8000C7F5000707FB06F64FEA54374FEAD64688
:100E900006F1020607FB066CCCF1005C4FEA1C472A
:100EA0002CEA074C07FB06F40CFB06F504EB154691
:100EB0004FEA961634BF00204FF000404FEAD1377A
:100EC00006FB07FC4FEA1C4C0CFB0BF7D21B03FB89
:100ED0000CF761EB07010CFB0EF7B0EB074072EB70
:100EE00017420CFB08F734BFA2EB0742B2EB0742F4
:100EF00061EB17414FEA0C444FEA910706FB07FCF0
:100F00004FEA1C4C0CFB0BF7B0EBC74072EB5732AF
:100F100003FB0CF734BFA2EBC742B2EBC74261EB55
:100F200057310CFB0EF7B0EBC70072EB57720CFB9E
:100F300008F734BFA2EBC702B2EBC70261EB5771EF
:100F4000039F4FEA816141EA921104EBCC044FEA1E
:100F5000D1374FEA826206FB07FC42EA90124FEA61
:100F600080604FEA1C4C0CFB0BF7D21B03FB0CF709
:100F700061EB07010CFB0EF7B0EB074072EB174279
:100F80000CFB08F734BFA2EB0742B2EB074261EB60
:100F900017414FEA8C554FEA910704EB9C2406FB5E
:100FA00007FC4FEA1C4C0CFB0BF7B0EBC74072EB95
:100FB000573203FB0CF734BFA2EBC742B2EBC74278
:100FC00061EB57310CFB0EF7B0EBC70072EB5772B9
:100FD0000CFB08F734BFA2EBC702B2EBC70261EB10
:100FE000577115EB4C254FEA816141EA92114FEAA6
:100FF00082624FEAD13742EA901206FB07FC44F1C5
:1010000000044FEA80604FEA1C4C0CFB0BF7D21B2C
:1010100003FB0CF761EB07010CFB0EF7B0EB07408D
:1010200072EB17420CFB08F734BFA2EB0742B2EB9E
:10103000074261EB174115EB1C154FEA813141EA7C
:1010400092414FEA823242EA90424FEA80304FEAC0
:101050000C7644F1000448EA03434EEA0B484FF093
:10106000000EB2EB080C71EB030724BF6246394651
:101070004EEB0E0E4FF0000B0018524149414BEB66
:101080000B0BB2EB080C71EB03077BF1000B24BFD9
:10109000624639464EEB0E0E4FF0000B00185241DF
:1010A00049414BEB0B0BB2EB080C71EB03077BF1E7
:1010B000000B24BF624639464EEB0E0E51EA020782
:1010C00018BF46F0010616EB0E7655F1000254F1FA
:1010D000000103D5BDE88901BDE80088BDE88901AC
:1010E000BDE80048B619524141EB0101A3F10103EB
:1010F000704780807F7E7D7C7B7A79787776767585
:101100007473727171706F6E6E6D6C6C6B6A6A69FC
:101110006868676666656464636362616160605F96
:101120005F5E5E5D5D5C5C5B5B5A5A59595858570F
:101130005756565555555454535352525251515077
:1011400050504F4F4F4E4E4D4D4D4C4C4C4B4B4BCA
:101150004A4A4A4949494848484747474746464610
:10116000454545444444444343434342424242414B
:101170004141002B9C4630D477002BD01CB54FEA60
:10118000370703B44FF010004FF01001BAF1000F11
:1011900006D0BCF1000FDCBF40F0080040F00801B1
:1011A0004FF000000FBCBDE810400BF1010BBBF18C
:1011B000010F08BF5FEA170722BF12F1010211F108
:1011C00001014FF0004143F1000300F0004043EA09
:1011D00000007047F9D35708D0E746EA064613F1F6
:1011E000400F4FEA16461FDD13F1200FDFBF1643F5
:1011F0000A46002120335B42BED0C3F1200746EAF5
:10120000064602FA07F74FEA164646EA0706C3F112
:10121000200722FA03F201FA07F721FA03F14FF04F
:10122000000342EA0702A7E746EA020646EA064644
:101230004FEA164646EA0106BCBF46EA0646360CA9
:101240004FF000034FF000024FF0000194E72DE94A
:10125000804C9A46934670B491E8380007C831EA4A
:10126000400C48BF34EA430C03D5FFF7E6FDFFF717
:1012700080FFF0BCBDE8008C2DE9804C9A46934677
:1012800070B491E8380007C810F0804F08BF13F021
:10129000804F03D100F005F8FFF76BFFF0BCBDE80D
:1012A000008C20F07F4780EA030023F07F4C07EB9F
:1012B0000C03A3F57C5300F00040A3F1FE0392F071
:1012C000000F00F0B38095F0000F00F077802DE95B
:1012D00001494FEA11404FEA144621EA004800FB59
:1012E00006FC24EA064708FB06F607FB08F800FBA5
:1012F00007F718EB06484CEB164C4FEA124B18EB6D
:1013000007484FEA15464CEB174022EA0B4E0BFB01
:1013100006FC25EA06470EFB06F607FB0EFE0BFB56
:1013200007F71EEB064E4CEB164C4FF000061EEB7B
:10133000074E4CEB174B18EB0B0840F1000018EB75
:101340000E0B58EB000840F100008F1A4FF000011F
:101350003CBFC943661B14BFB5EB040C00213CBF66
:10136000C943F61B4FEA17444EEA8E0E27EA04459E
:101370004FEA1C4704FB07622CEA074C05FB07F702
:101380000CFB05F604FB0CFC16EB074642EB174280
:1013900016EB0C4642EB1C421BEB060658EB020216
:1013A000414146EA9E0601D5BDE80189B619524180
:1013B00041EB0101A3F10103BDE801894FEA1445A6
:1013C0004FEA114724EA054621EA074C05FB07F4DA
:1013D00006FB07F70CFB06F105FB0CFC11EB0741C4
:1013E00044EB17444FEA124711EB0C4144EB1C4409
:1013F00022EA074C05FB07F206FB07F70CFB06F693
:1014000005FB0CFC16EB074642EB174216EB0C46AD
:1014100042EB1C456A1854F1000148BF7047B619E9
:10142000524141EB0101A3F10103704795F0000F18
:1014300037D04FEA11424FEA144721EA024624EA24
:10144000074C02FB07F106FB07F70CFB06F402FB57
:101450000CFC14EB074441EB17414FEA154714EB22
:101460000C4441EB1C4125EA074C02FB07F506FB47
:1014700007F70CFB06F602FB0CFC16EB074645EBE8
:10148000174516EB0C4645EB1C42121951F10001B1
:1014900048BF7047B619524141EB0101A3F1010366
:1014A00070474FEA14454FEA114724EA054621EAFE
:1014B000074C05FB07F106FB07F70CFB06F24FF0A4
:1014C000000605FB0CFC12EB074241EB174112EB47
:1014D0000C4251EB1C4148BF7047921841EB01018F
:1014E000A3F101037047000070B5044600688168ED
:1014F00011F0010F28D18168144A114215D1816879
:10150000D5432940491C816000F042FE064616E0A2
:10151000816811F0010F03D181682940491C816065
:1015200000F036FE801B022809D9E06D40F0100063
:10153000E065206E40F001002066012070BD20684B
:101540000168C943C907E3D1002070BD3F00008096
:1015500070B53F482DED068B00F0A0FC3C4800F034
:101560006DFB00EE100ADFED3B0AB8EE400A20EEFC
:10157000200ADFED390A20EE200A10EE100A04F0EE
:10158000EDF9364C41EC100B354D84ED0A0B9FED17
:1015900035AB95F827009FED358B9FED369B18B145
:1015A000207840F004004EE053EC182B51EC100B67
:1015B00003F07AFF02D885ED0EAB30E094ED0A0B14
:1015C00053EC192B51EC100B03F06EFF1AD294ED73
:1015D0000A0B53EC182B51EC100B04F0D5F89FEDCF
:1015E000271B53EC112B03F09BFF9FED261B53ECA5
:1015F000112B03F095FF53EC1A2B03F0F1FCC5E916
:101600000E010CE094ED0A0B53EC192B51EC100B6E
:1016100004F084F803D89FED1D0B85ED0E0B686870
:1016200095ED0E0B10B19FED1B1B01E09FED1B1BF9
:1016300051EC100B53EC112B03F072FFC5E90A01BA
:10164000207820F004002070BDEC068B70BD0000F7
:101650008800002000008039333353400800002008
:1016600048000020000000000000244000000000AE
:101670000000F03F000000000000084000000000F3
:101680000000E03F0000000000C0524000000000E9
:1016900000405540000000000000F43F0000000042
:1016A00000000440FEE7000010B586B017A1182026
:1016B00002F008FB1B4C1CA168462278FEF70EFEC8
:1016C0006946482002F0FEFA1C48006904F046F919
:1016D00041EC100B1AA153EC102B6846FEF7FEFDEF
:1016E0006946602002F0EEFAA06804F037F941EC98
:1016F000100B18A153EC102B6846FEF7EFFD69465E
:10170000782002F0DFFA06B010BD00002020202073
:10171000202020204441544120202020202020202F
:10172000000000004800002020202020204D3D2502
:1017300063202020202020202020200008000020DE
:101740002020202020503D252E30662525202020D9
:10175000202020002020202020563D252E316620EC
:1017600020202020202020007047002240F6B8339F
:1017700006E00021491C89B29942FBD3521C92B267
:101780008242F6D37047000070B51E4D64212DEDE6
:10179000048B2869484303F05CFE41EC180B686930
:1017A00003F057FE184C41EC190B6669700003F00A
:1017B00067FE9FED161B53EC112B03F0B1FE53ECAB
:1017C000192B03F0ADFE53EC182B03F0BDFC03F016
:1017D000D5FB1049A8600A68E368D21AC82A0BD35F
:1017E0000968E160E860A6F6A17040F69F71884242
:1017F00005D2012060702662BDEC048B70BD002014
:101800006070F9E748000020080000201F85EB51B8
:10181000B81E094040000020704700002DE9F84F35
:1018200000270446009790F85800DFF8DC930D4637
:10183000B846012811D0012684F85860206802F0CB
:10184000CFFB60B1E06D40F02000E0655FF0010784
:1018500084F858803846BDE8F88F0220FBE7D5E9C8
:1018600000210C23206803EA91131844036B01F054
:101870001F014FF01F0C0CFA01FCC2F3846223EA33
:101880000C038A4013430363206802F0A9FB8246DD
:10189000206802F0A1FB5AEA00003CD1AA6829683E
:1018A0002068B2F1004F37D002F09EFB20684169FA
:1018B00021F00041416120686969C268C2F3C10238
:1018C000520091402A69042A31D000EB82002B6833
:1018D000026EDFF838C303F0F84302EA0C020B4350
:1018E0001A4342F00041016622682869A96902EBA7
:1018F0008000026E22F080720A430266297F20680F
:101900002A69012910D0002100EB8200026E22F02A
:1019100000720A4302667DE0002202F065FB206847
:10192000416941F00041C5E74FF00071ECE700214B
:1019300002F04CFB400320684FF0000172D002F02F
:1019400045FB90FAA0F0B0FA80F1286842036ED00F
:1019500090FAA0F0B0FA80F0814204D10022114642
:10196000206802F050FB0121206802F02FFB4003A9
:1019700020684FF001015DD002F028FB90FAA0F042
:10198000B0FA80F12868420359D090FAA0F0B0FA7A
:1019900080F0814204D100220121206802F033FB53
:1019A0000221206802F012FB400320684FF0020180
:1019B00048D002F00BFB90FAA0F0B0FA80F1286852
:1019C000420344D090FAA0F0B0FA80F0814204D1F2
:1019D00000220221206802F016FB0321206802F099
:1019E000F5FA400320684FF0030133D002F0EEFA1D
:1019F00090FAA0F0B0FA80F1286842032FD090FA54
:101A0000A0F0B0FA80F0814204D1002203212068C6
:101A100002F0F9FA2068816811F0010F22D0ACE0E1
:101A200000E004E002F0D2FAC0F384618DE7C0F375
:101A3000846091E702F0CAFAC0F38461A2E7C0F3C0
:101A40008460A6E702F0C2FAC0F38461B7E7C0F38E
:101A50008460BBE702F0BAFAC0F38461CCE7C0F35C
:101A60008460D0E72A7B296850F8B03FC1F3120C9C
:101A700023EA0C0302F0180C654A22FA0CF20A4021
:101A800013430360E968494577D1286841031CD0B6
:101A900090FAA0F1B1FA81F1491C01F01F01092966
:101AA0004FEA403132D8002912D000BF90FAA0F19D
:101AB000B1FA81F101F1010101F01F0106FA01F60D
:101AC00009D100BFC0F3846109E0C0F38461E3E79A
:101AD000C0F38461EEE790FAA0F1B1FA81F101F16F
:101AE000010101F01F0146EA816102D1C0F3846067
:101AF00003E090FAA0F0B0FA80F000F1010000F0ED
:101B00001F0000EB400041EA005132E000290ED0F6
:101B100090FAA0F1B1FA81F101F1010101F01F0188
:101B200006FA01F606D100BFC0F3846106E0C0F3F7
:101B30008461F1E790FAA0F1B1FA81F101F10101BC
:101B400001F01F0146EA816102D1C0F3846003E025
:101B500090FAA0F0B0FA80F000F1010000F01F0050
:101B60002C4A00EB400002EB005041EA000141F03A
:101B70000071AA68206802F037FA27482A680242F2
:101B80003FF466AE25488168254B01F0E0719A422A
:101B900002D0244B9A421BD10B0219D42268B2F115
:101BA000A04F7FF455AE826841F4000122F0E0724C
:101BB0000A4382601C481D490068B0FBF1F000EB4D
:101BC0004000800000E0401E00900028FBD13FE66E
:101BD000174D184BAA4207D1CD0105D422689A426D
:101BE000F5D041F0807109E0134DAA42EFD14A02CD
:101BF000EDD422689A42EAD041F48001826822F052
:101C0000E0720A43826023E600007F4000F0FF0399
:101C1000FFFF0700000020FE0000088000030050C6
:101C2000000021C31000C09044000020400D0300BC
:101C3000000052C700010050000084CB0068006C17
:101C400070470000F8B54FF0000504002E460095DF
:101C500002D0E06D10B107E00120F8BD204600F091
:101C6000EDF8266684F8586020688168C1F34071F9
:101C700019B18168694A1140816020688168C1F3A7
:101C8000007179B98168664A114041F080518160E4
:101C9000644865490068B0FBF1F000E0401E009028
:101CA0000028FBD120688168C1F3007141B9E16D62
:101CB00041F01001E165216E41F00101216601252D
:101CC00002F08EF9E16DC90600D430B1E06D40F04C
:101CD0001000E06501252846F8BDE06D20F4807015
:101CE00040F00200E0652068806810F0010F11D11B
:101CF0004FF0A04080684D4900F00100896801F074
:101D00000101084306D14A486168826822F47C12C6
:101D10000A438260E168E06B627F0843A16841EAA0
:101D20004231084394F8241040EA0140012904D1CB
:101D3000218D404A02EB41410843E16A29B101F497
:101D40007871226B014342EA01002168CA683A4B6C
:101D50001A400243CA6020680169626B21F0406149
:101D600011430161206802F03BF90646206802F049
:101D700033F930432ED1207F94F83810800340EAA5
:101D800041022068C16844F2020399431143C160D3
:101D900020690028206801690AD041F4803101617E
:101DA000206850F8C01F22696FF30D01114307E04E
:101DB00021F480310161206850F8C01F6FF30D01DC
:101DC000016094F8400001280CD02068016921F0DE
:101DD00001010161606901282068016B21F00F0198
:101DE00011D013E0D4E911010843D4E913121143CF
:101DF000084321680A6940F2FC739A43104340F09B
:101E000001000861E6E7226A521E11430163E06D9A
:101E100020F0020040F00100E0655CE7C0FFFF5FDA
:101E2000C0FFFF7F44000020400D03000001005070
:101E3000000300500000FEFF0740F0FF10B586B021
:101E4000044614216846FEF74AFB1149206888427F
:101E50001BD11048C16C41F40051C164C16C01F444
:101E600000510591C16C41F00201C164C06C69462A
:101E700000F0020005904FF4004000900320019014
:101E800000200290044800F095F806B010BD000054
:101E90000001005000100240000400482DE9F0410C
:101EA00004463848806800F01F05206802F098F862
:101EB00018B102210846BDE8F08194F858000128C5
:101EC0000CD0012084F858002046FFF70DFB0100DC
:101ED0004FF0000304D084F85830EBE70220EAE723
:101EE000E06D40F60162904340F48070E065264A60
:101EF00020684FF0A046904201D1374600E00746E7
:101F0000874200D01DB9E76D27F48017E765E76DBC
:101F1000FF0404D5276E27F00607276600E0236636
:101F20001C27076084F858302068904201D133465E
:101F300000E00346834215D0A5B1052D12D0092D2E
:101F400010D0E36D43F48013E365904200D1304636
:101F5000C0688001AED5E06D20F4005040F48050A0
:101F6000E065A7E7C268920105D5E26D22F4005250
:101F700042F48052E2658268044B1A40121D82606E
:101F800098E700000003005000010050C0FFFF7FF1
:101F900070B5044600F0FCF80546601C02D0044809
:101FA0004068044400F0F4F8401BA042FAD370BD2E
:101FB000380000202DE9FC4FDFF8A0A10023012507
:101FC0000AF1040B03244FF00F0C0BF1040EBDE0DB
:101FD00005FA03F632406FD04F68012F05D0022F6B
:101FE00003D0112F01D0122F17D1D0F808905F0025
:101FF00004FA07F829EA08090097D1F80C8008FAD2
:1020000007F848EA0908C0F808804768B7430E791E
:10201000C6F300169E403E434660C6684FEA43083A
:1020200004FA08F7BE4301978F6807FA08F73743A9
:10203000C7604E68022E01D0122E13D1DE0800EBCD
:1020400086060096366A5F07FF0E0CFA07F926EA45
:102050000906D1F8109009FA07F949EA0609009E25
:10206000C6F820900668019FBE430F7907F003076A
:1020700007FA08F7374307604E68F60065D5384E13
:10208000376E47F001073766366E23F0030706F018
:1020900001060096334E3E44B146B6689F074FEAAC
:1020A00017780CFA08F7BE43B0F1904F05D02E4FC9
:1020B000B84204D1012717E047E0002714E02B4F76
:1020C000B84201D102270FE0294FB84201D10327BE
:1020D0000AE0284FB84201D1042705E0264FB84254
:1020E00001D1052700E0062707FA08F73743C9F8AA
:1020F0000870DAF800605746D1F8048096435FEA2A
:10210000C83800D516433E60DBF800605F46D1F862
:10211000048096435FEA883800D516433E60DEF8B7
:1021200000607746D1F8048096435FEAC82800D55E
:1021300016433E60094F0C373E68D1F80480964341
:102140005FEA882800D516433E605B1C0A6832FAB5
:1021500003F67FF43DAFBDE8FC8F000000040140B2
:102160000010024000000140000400480008004840
:10217000000C0048001000480014004800690840A6
:1021800000D0012070470AB18161704781627047B9
:1021900001488068704700003800002002488168CC
:1021A00042681144816070473800002010B5002457
:1021B000032000F077F8002000F008F808B10124AF
:1021C00001E000F025F8204610BD000070B50E4E6D
:1021D00005460024706898B14FF47A71B1FBF0F0B5
:1021E0000A490968B1FBF0F000F03CFD40B9102D40
:1021F00006D200222946501E00F034F8356000E077
:102200000124204670BD000038000020440000205A
:102210000B4808B5016E41F001010166016E01F045
:1022200001010091816D41F080518165806D00F068
:10223000805000900348816841F48041816008BD6E
:102240000010024000700040002809DB00F01F026F
:10225000012191404009800000F1E020C0F8001108
:1022600070470000F0B40E4B1B680C46C3F302230A
:10227000C3F10705042D00D90425191D072901D232
:10228000002300E0DB1E012606FA05F1491E21406D
:1022900099409E40761E16403143F0BC02F0F8BDD6
:1022A0000CED00E0064900F0070208684FF6FF0356
:1022B000184040EA0220034A1043086070470000BB
:1022C0000CED00E00000FA052B492C4B0A68322186
:1022D0004A432B4940B1B0F5007F086829D020F46B
:1022E000C06040F480602CE00868C0F34120022800
:1022F00004D051F8800F20F4807022E0D1F88000E3
:1023000020F48070C1F88000086820F4C06040F4B8
:1023100000700860B2FBF3F0401C00E0401E4A6908
:10232000520501D50028F9D1486940050AD5032096
:102330007047C0F34120022806D051F8800F40F4C6
:102340008070086000207047D1F8800040F48070F1
:10235000C1F88000086820F4C06040F40070086094
:10236000B2FBF3F0401C00E0401E4A695205DBD589
:102370000028F9D1D8E700004400002040420F00B7
:10238000007000402DE9F8430446006800269D4D8A
:1023900000035ED5A86D0027C00008D4A86D40F0EA
:1023A0008050A865A86D012700F080500090DFF8EC
:1023B0005892D9F8001041F48071C9F80010FFF765
:1023C000E7FE804606E000BFFFF7E2FEA0EB080054
:1023D00002282BD8D9F80000C005F5D5D5F8900013
:1023E00010F4407014D0216C814211D0D5F89000C7
:1023F000D5F8901020F4407041F48031C5F8901069
:10240000D5F8901021F48031C5F89010C5F89000EF
:10241000C00711D0FFF7BCFE804641F2883907E0C3
:10242000FFF7B6FEA0EB0801494501D903260BE0F2
:10243000D5F890008007F3D5D5F89000216C20F4F2
:1024400040700843C5F890001FB1A86D20F080507F
:10245000A8652078C00707D0D5F88800616820F00B
:1024600003000843C5F888002078800707D5D5F811
:102470008800A16820F00C000843C5F88800207887
:10248000400707D5D5F88800E16820F03000084300
:10249000C5F888002078000707D5D5F8880021699D
:1024A00020F0C0000843C5F888002078800607D5D2
:1024B000D5F88800616920F440600843C5F88800B9
:1024C0002078400607D5D5F88800A16920F440504F
:1024D0000843C5F888002078000607D5D5F888009D
:1024E000E16920F440400843C5F888002088C00511
:1024F00007D5D5F88800216A20F440300843C5F894
:1025000088002088800507D5D5F88800616A20F406
:1025100040200843C5F88800208840050FD5D5F82D
:102520008800A16A20F440100843C5F88800A06A1A
:10253000B0F5801F03D1E86840F48010E86020887F
:1025400000050FD5D5F88800E16A20F44000084363
:10255000C5F88800E06AB0F5800F03D1E86840F460
:102560008010E8602088C0040FD5D5F88800216B62
:1025700020F040700843C5F88800206BB0F1807FE0
:1025800003D1E86840F48010E86020884FF00061D3
:1025900080040ED5D5F88800626B20F040601043AF
:1025A000C5F88800606B884203D1E86840F4801069
:1025B000E860208840040ED5D5F88800A26B20F092
:1025C00040601043C5F88800A06B884203D1E868DA
:1025D00040F48010E860208800040FD5D5F888000A
:1025E000E16B20F040500843C5F88800E06BB0F183
:1025F000805F03D1E86840F48030E8603046BDE891
:10260000F883000000100240007000402DE9F04700
:102610000E4605004FF0000725D0DFF8AC81D8F852
:10262000000000F00F00B0420CD2D8F8001021F0EA
:102630000F013143C8F80010D8F8000000F00F0077
:10264000B04210D12968614CC80741F2883A5AD08B
:102650006868DFF87C91032808D0022820682DD014
:10266000400500282CDB0120BDE8F08720688001B0
:10267000F9D5E06800F00302E068C0F30310401CE5
:10268000032A19D0534A00BFB2FBF0F0E268C2F34C
:1026900006225043E268C2F34162521C5200B0FB72
:1026A000F2F0484517D9A06810F0F00F0CD0880759
:1026B00011D5A86840B10EE0474AE5E78003D0E7AE
:1026C00000F092F8484506D9A06820F0F00040F0EC
:1026D0008000A0608027A068696820F0030008439C
:1026E000A060FFF755FD814606E000BFFFF750FDF3
:1026F000A0EB090151453AD8A068696800F00C00C8
:10270000B0EB810FF2D12868810714D5400703D5BB
:10271000A06840F4E060A0602878000705D5A068B4
:1027200020F4605040F4E060A060A068A96820F048
:10273000F000084304E0802F03D1A06820F0F000EF
:10274000A060D8F80010404601F00F01B14216D940
:10275000016821F00F0131430160FFF719FD0746C1
:1027600007E000BFFFF714FDC11B514501D903204D
:102770007AE7D8F8000000F00F00B042F2D12878D4
:10278000400705D5A068E96820F4E0600843A06030
:102790002878000706D5A068296920F4605040EA2F
:1027A000C100A06000F020F8A1680C4AC1F3031139
:1027B000515C01F01F01C8400949086009480068E0
:1027C000BDE8F047FFF702BD0020024000100240C4
:1027D00000B4C4040024F40000366E01266C000826
:1027E0004400002038000020184910B58868C0F364
:1027F00081021748012A0BD08A68164BC2F3810266
:10280000022A06D08A68C2F38102032A03D000207C
:1028100010BD184610BDCA6802F00304CA68C2F3AE
:102820000312521C032C02D0B0FBF2F001E0B3FB08
:10283000F2F0CA68C968C2F306225043C1F341618D
:10284000491C4900B0FBF1F010BD0000001002402F
:102850000024F40000366E012DE9F84304007AD01C
:102860002078FA4DC00747D0A868E96800F00C004E
:1028700001F003010C2802D0082817D001E0032939
:1028800014D06068B0F5803F17D0B0F5A02F28684D
:1028900017D020F480302860286820F48020286039
:1028A0006068E0B1FFF774FC064614E02868800316
:1028B00022D560680028D2D01EE0286840F480301D
:1028C000EDE740F480202860F7E700BFFFF760FCE9
:1028D000801B642870D828688003F7D50CE0FFF7C8
:1028E00057FC064605E000BFFFF752FC801B64283A
:1028F000F0D828688003F7D4207880074CD5A868E2
:10290000E96800F00C0001F003010C2802D0042853
:102910000DD001E002290AD0E068002828682BD0F9
:1029200040F480702860FFF733FC064619E0286801
:10293000400502D5E068002891D06868217C20F02D
:10294000FE4040EA01606860C1480068FFF73EFC55
:10295000002800D120E076E1FFF71AFC801B022856
:10296000B8D828684005F7D56868217C20F0FE407B
:1029700040EA016068600FE020F480702860FFF793
:1029800007FC064605E000BFFFF702FC801B02289B
:10299000A0D828684005F7D42078000729D56069B9
:1029A0000028D5F8940013D040F00100C5F8940039
:1029B000FFF7EEFB064606E090E000BFFFF7E8FBFE
:1029C000801B022886D8D5F894008007F6D510E041
:1029D00020F00100C5F89400FFF7DAFB064604E09A
:1029E000FFF7D6FB801B022878D8D5F89400800723
:1029F000F6D42078400761D5A86D0026C00008D421
:102A0000A86D40F08050A865A86D012600F08050A8
:102A1000009090480168C90511D40168804641F4CE
:102A200080710160FFF7B4FB074604E0FFF7B0FBDD
:102A3000C01B022852D8D8F80000C005F6D5A068FF
:102A4000012815D00528D5F8900016D020F00100F7
:102A5000C5F89000D5F8900020F00400C5F890006B
:102A6000A06841F28838B8B1FFF792FB07460EE044
:102A7000D5F8900040F00100F0E740F00400C5F800
:102A80009000F5E7FFF784FBC11B414526D8D5F838
:102A900090008007F6D50CE0FFF77AFB074604E0CC
:102AA000FFF776FBC11B414518D8D5F89000800789
:102AB000F6D41EB1A86D20F08050A865207880065D
:102AC00029D5A0690028D5F8980013D040F001005E
:102AD000C5F89800FFF75CFB064606E077E000BF0C
:102AE000FFF756FB801B022877D8D5F8980080079F
:102AF000F6D510E020F00100C5F89800FFF748FB7C
:102B0000064604E0FFF744FB801B022865D8D5F891
:102B100098008007F6D4E069F0B3A968C1F3810199
:102B2000032961D00228286820F0807028600BD02B
:102B3000E86820F00300E860E86847490840E8607A
:102B4000FFF726FB04464BE0FFF722FB064604E0B6
:102B5000FFF71EFB801B02283FD828688001F7D4AE
:102B6000F4E908016FF00F0202EB01110843218A1A
:102B70005204490802EB4151A26841EA022108438C
:102B8000217D4FF07E42490802EB41610843217BE1
:102B900040EAC160E96800E062E0304A1140084361
:102BA000E860286840F080702860E86840F0807035
:102BB000E860FFF7EDFA044605E000BFFFF7E8FA2A
:102BC000001B022809D828688001F7D548E004E0F6
:102BD000FFF7DEFA001B022802D90320BDE8F883C4
:102BE00028688001F4D43BE00128F7D0E868226A25
:102BF00000F00301914226D1616A00F0F002090160
:102C0000103991421FD1A26A00F4FE41B1EB022FAC
:102C100019D194F82C2000F07841B1EBC26F12D199
:102C2000218E00F4C00249084905A1F50011914226
:102C300009D194F8341000F0C06049084906A1F1A8
:102C4000007181420CD00120C8E700000010024052
:102C50003800002000700040FFFFEEFE0C809F0156
:102C60000020BBE710B5401EB0F1807F01D30120EA
:102C700010BD4FF0E02460610F21601702F008F9E9
:102C80000020A06107202061002010BD7047704720
:102C900070470000F0B590F83C20012A4AD001228C
:102CA00080F83C20CA688B6822F440721A434B6853
:102CB00022F480621A430B6822F400621A430B6903
:102CC00022F480521A434B6922F400521A430B6BD0
:102CD00022F480421A430B8B22F4702242EA034210
:102CE000154C03680026154DA34201D0AB4203D119
:102CF000CF6922F080523A43A34201D0AB4214D1B3
:102D00000F8D22F4700242EA07520F6A22F080729D
:102D10003A434F6A22F000723A43A34201D0AB42D9
:102D200003D1C96A22F000520A435A6480F83C6019
:102D30000020F0BD0220F0BD002C01400034014015
:102D40007047704770470000F0B590F83C20012AAA
:102D50003AD0012580F83C50022280F83D200368DB
:102D60005A689C68194E1A4FB34201D0BB4204D135
:102D700022F4700C4A6842EA0C02DFF858C002EAFA
:102D80000C02D1F800C04CEA020CC3F804C002687F
:102D9000B2420DD0B2F1804F0AD00F4B9A4207D009
:102DA0000E4B9A4204D0BA4202D00D4B9A4204D143
:102DB000896824F080031943916080F83D50002118
:102DC00080F83C100846F0BD0220F0BD002C014008
:102DD000003401408FFFFFFD000400400008004068
:102DE00000400140704710B5040003D094F83D0046
:102DF00010B107E0012010BD002084F83C002046FF
:102E000000F022F8022084F83D00211D206801F026
:102E100053FD012084F8480084F83E0084F83F0008
:102E200084F8400084F8410084F8420084F84300AC
:102E300084F8440084F8450084F8460084F847008C
:102E400084F83D00002010BD10B586B00446142162
:102E50006846FDF744FB234A21682348914216D176
:102E6000016E41F400610166006E002200F4006012
:102E7000059011461920FFF7F5F91920FFF7E4F93D
:102E8000002211461A20FFF7EDF91A2025E0174A13
:102E9000914224D1816D41F002018165816D01F083
:102EA00002010591C16C41F00101C164C06C0021B7
:102EB00000F001000590802000900220CDE9010182
:102EC000CDE9031069464FF09040FFF773F80022F8
:102ED00011461D20FFF7C6F91D20FFF7B5F906B012
:102EE00010BD0000002C0140001002400004004012
:102EF00090F83D10012901D001207047022180F88F
:102F00003D100168CA6842F00102CA600068816829
:102F1000064A1140062906D0B1F5803F03D001686A
:102F200041F001010160002070470000070001002E
:102F300070B5044690F83C00012815D0012584F8AE
:102F40003C50022084F83D0022689068354B1840C0
:102F500020F47F4090600868B0F5805F50D010DCAE
:102F600010F00F0F03D04BE04FF0020070BD4FEA9E
:102F70002012082A44D2DFE802F05151515149325F
:102F80003A1B294BC21A984248D00ADCB0F5005FC0
:102F900019D0B0F1101F41D0A0F5801120392FD1E8
:102FA0003CE0102A3AD0302A38D0402A28D135E0E7
:102FB000CB68D1E90121206801F0E3FC2068816839
:102FC00041F0770109E0CB68D1E90121206801F0E7
:102FD000D8FC2068816841F48041816010E0CA68B3
:102FE0004968206801F0C6FE5021206806E0CA68E2
:102FF0004968206801F006FF6021206801F0CCFCE0
:1030000084F83D50002084F83C0070BDCA684968CF
:10301000206801F0AFFE40212068EFE722680146FA
:103020001046EBE788FFCEFF3000100070B5044675
:103030001A48844230D1207F194D012815D1002132
:10304000164800F07DFC401C00EE100ADFED150A6A
:10305000A861B8EE400A60EE200A95ED070AB8EEC6
:10306000400A80EE801A85ED041A207F022809D1DB
:1030700004210A4800F064FC401C0B49E861B1FBE4
:10308000F0F068610421054800F0CAF8BDE870401E
:103090000021024800F0C4B870BD00008C0100207F
:1030A000080000200000C84240420F002DE9F04116
:1030B000054690F83C000C46012836D0012085F8E2
:1030C0003C008AB3042A42D02868082A51D0D4E9A7
:1030D0000023E168066A26F480560662C669076A1C
:1030E00026F4407646EA03234FF6FF7606EA0131DE
:1030F00023F4704319434FF4204627F4204306EA93
:1031000002321A43C16102622868C16921F4406138
:10311000C1612868C169A26841EA0221C161002039
:1031200085F83C00BDE8F08101E00220FAE7D4E92F
:103130000012E368286801F02FFE2868816921F0F9
:103140000C01816128688169A26811430FE0D4E90C
:103150000012E368286801F067FE2868816921F49D
:103160004061816128688169A26841EA0221816128
:10317000D5E7D4E90027267B016A21F4807101623A
:10318000C169036A21F00301394321F0F0073107D7
:103190004FF4206647EA116123F4206306EA022215
:1031A0001A43C16102622868C16921F00C01C16142
:1031B0002868C169A2681143B0E710B5040003D0C4
:1031C00094F83D0010B107E0012010BD002084F804
:1031D0003C00204600F022F8022084F83D00211D2A
:1031E000206801F069FB012084F8480084F83E0063
:1031F00084F83F0084F8400084F8410084F84200DD
:1032000084F8430084F8440084F8450084F84600BC
:1032100084F8470084F83D00002010BD704700008E
:1032200010B5044679B1042912D0082915D00C290B
:1032300018D0102919D094F8430000BF94F8472003
:10324000012817D114E094F83E0094F84420F7E7E1
:1032500094F83F0094F84520F2E794F8400094F881
:103260004620EDE794F84100E8E794F84200E5E7EE
:10327000012A01D0012010BD022071B1042915D00E
:1032800008291CD00C2936D0102937D084F84300E7
:1032900084F847000C291BD133E084F83E0084F801
:1032A00044002068C26842F0020210E084F83F0047
:1032B00084F845002068C26842F0040207E084F800
:1032C000400084F846002068C26842F00802C260EC
:1032D0000122206801F048FB206881680B4A1140F8
:1032E000062906D0B1F5803F03D0016841F0010105
:1032F0000160002010BD84F84100C9E784F8420055
:10330000C6E72068C26842F01002E0E7070001004B
:1033100070B50446006801694FF00005C94389078C
:1033200015D4C168C943890711D4E91E0161012080
:103330002077206880698007204602D0FFF776FE5C
:1033400004E000F009F9204600F0E4F92577206850
:103350000169C943490717D4C168C943490713D450
:103360006FF004010161022020772068806910F469
:10337000407F204602D0FFF759FE04E000F0ECF851
:10338000204600F0C7F9257720680169C94309077D
:1033900016D4C168C943090712D46FF0080101614E
:1033A000042020772068C0698007204602D0FFF7FC
:1033B0003DFE04E000F0D0F8204600F0ABF92577A0
:1033C00020680169C943C90617D4C168C943C90641
:1033D00013D46FF010010161082020772068C069C4
:1033E00010F4407F204602D0FFF720FE04E000F0FA
:1033F000B3F8204600F08EF9257720680169C943AB
:10340000C90708D1C168C943C90704D1891E016130
:10341000204600F0EBF920680169C943090609D488
:10342000C168C943090605D46FF0800101612046D7
:10343000FFF72DFC20680169C943C90509D4C1689B
:10344000C943090605D46FF4807101612046FFF776
:103450001DFC20680169C943490609D4C168C943F4
:10346000490605D46FF040010161204600F0A8FA3A
:1034700020680169C943890609D4C168C94389061E
:1034800005D46FF0200101612046FFF701FC2068A0
:103490000169C943C90209D4C168C943C90205D435
:1034A0006FF4801101612046FFF74BFC2068016931
:1034B000C943890209D4C168C943890205D46FF49C
:1034C000001101612046FFF73BFC20680169C943F8
:1034D000490209D4C168C943490205D46FF4800187
:1034E00001612046FFF72EFC20680169C9430902EB
:1034F0000BD4C168C943090207D46FF4000101610C
:103500002046BDE87040FFF76DBC70BD10B586B0B9
:10351000044614216846FCF7E2FF2068B0F1804FB2
:1035200015D10C48C16C41F00101C164C06C694601
:1035300000F0010005900220009001900020029010
:103540000390012004904FF09040FEF733FD06B049
:1035500010BD000000100240704770B5044690F89E
:103560003C000D4601280BD0012084F83C000C2AB9
:1035700045D007DC5AB1042A1BD0082A78D12CE0A8
:10358000022070BD102A4ED0142A71D15DE020684F
:1035900001F00CFA2068816941F00801816120681E
:1035A000816921F004018161206881692A691143E0
:1035B00011E0206801F048FA2068816941F4006157
:1035C00081612068816921F480618161206881695D
:1035D0002A6941EA022181614AE0206801F07CFA0F
:1035E0002068C16941F00801C1612068C16921F00A
:1035F0000401C1612068C1692A69114311E0206892
:1036000001F0B2FA2068C16941F40061C16120682B
:10361000C16921F48061C1612068C1692A6941EAF8
:103620000221C16124E0206801F0E6FA2068016D02
:1036300041F0080101652068016D21F00401016578
:103640002068016D2A69114311E0206801F00CFB2C
:103650002068016D41F4006101652068016D21F46D
:10366000806101652068016D2A6941EA02210165D6
:10367000002084F83C0070BD10B5040003D094F81D
:103680003D0010B107E0012010BD002084F83C008F
:10369000204600F023F8022084F83D00211D206818
:1036A00001F00AF9012084F8480084F83E0084F80B
:1036B0003F0084F8400084F8410084F8420084F818
:1036C000430084F8440084F8450084F8460084F8F8
:1036D000470084F83D00002010BD000008B50068D8
:1036E000B0F1804F12D10A48816D41F0010181652E
:1036F000806D002200F00100009011461C20FEF7B2
:10370000B1FDBDE808401C20FEF79EBD08BD0000CD
:10371000001002407047000010B50446022269B153
:10372000042912D0082917D00C291CD0102921D027
:1037300094F84300012824D0012010BD94F83E00E5
:103740000128F9D184F83E201DE094F83F000128BB
:10375000F2D184F83F2016E094F840000128EBD124
:1037600084F840200FE094F841000128E4D184F867
:10377000412008E094F842000128DDD184F842207D
:1037800001E084F843200122206801F0EDF811499E
:10379000206888420BD01049884208D00F498842DF
:1037A00005D00F49884202D00E49884203D1416CAE
:1037B00041F400414164206881680B4A11400629A8
:1037C00006D0B1F5803F03D0016841F001010160EE
:1037D000002010BD002C0140003401400040014099
:1037E00000440140004801400700010070B5006836
:1037F0004D4988427ED14D4D4D4C95F8241020788E
:1038000099B120F001002070D5ED030A95ED020A70
:103810000026F4EE400AF1EE10FA14D16079401C53
:10382000C0B26071142803D00EE040F00100EAE756
:103830006868D0B1D5ED070AB4EEE00AF1EE10FAEF
:1038400001DD85ED070A6671607820B3216A606941
:10385000884220D12079401CC0B20521B0FBF1F292
:10386000207101FB120050B115E0D5ED080AB4EE4D
:10387000E00AF1EE10FAE6DD85ED080AE3E72D48EF
:103880000068466204212C48FFF7CAFC00212A4840
:10389000FFF7C6FC267195F8250038B3E078401C88
:1038A000C1B2E170A079401CC0B2A0712A6B503245
:1038B0002A63012802D0022805D009E0207840F0D0
:1038C0000200207004E0207820F002002070A67131
:1038D0003220B1FBF0F200FB121038B985F82560F8
:1038E0002E63207820F002002070E67095F8240006
:1038F00098B900E016E01148007800070DD5A078CF
:10390000401CC0B21421B0FBF1F2A07001FB120008
:1039100018B9012085F82700A6702078BDE870400E
:1039200000F02ABB70BD0000002C014048000020C0
:1039300008000020400100208C010020070000202A
:103940000246002041B1042909D008290AD00C29D7
:1039500001D11068006C70471068406B70471068A8
:10396000806B70471068C06B704770B5044690F864
:103970003C00012812D0012584F83C50022084F834
:103980003D00204601F0A8F901004FF0000007D0EB
:1039900084F83D5084F83C00012070BD022070BDC9
:1039A0002168CA6822F04002CA602168CA6822F40D
:1039B0008042CA6084F83D5084F83C00002070BD0D
:1039C0007047FEE770B55B4802685B498B68D21AA6
:1039D0000A2A7CD30068886000F0B8F85748584C31
:1039E0004FF000030078C10709D094F82410491C57
:1039F000C9B284F82410032901D184F82430820745
:103A00004FF001011AD594F8242012B1012A0FD0E9
:103A100014E094F825208AB962683AB10022626005
:103A2000228B521C228384F8251007E00122F6E73E
:103A300094F826204AB1002284F82620420717D5A0
:103A400094F82420012A02D012E00122F4E794F82D
:103A500026202AB12269521C22610B2A07D007E0D6
:103A60006269521C62610B2A02D1616100E021612E
:103A7000000718D594F8240010B1012803D012E0F3
:103A800084F827300FE094F826000A2120B120693D
:103A9000401E206106D006E06069401E606102D1D0
:103AA000616100E0216194F825004FF0804528B362
:103AB000616824480029DFED240A216B37D001F525
:103AC0007A6100BFB0FBF1F2521EEA6200E014E03E
:103AD000B0FBF1F000EE100AB8EE401A81EE200AB9
:103AE00010EE100A01F03AFF94ED0E1B53EC112B6F
:103AF00001F016FD01F080FCA86370BD606858B14C
:103B00007C20E86294ED0A0B51EC100B01F074FC80
:103B1000A8634820207070BDF920E86294ED0A0B7C
:103B200051EC100B01F068FCA8634C20F2E7C1F5E2
:103B3000FA51C7E7400000200800002006000020DE
:103B40004800002040420F000000C84270B5114CF0
:103B500001212046FEF712FB054602212046FEF712
:103B60000DFB45EA400504212046FEF707FB45EA28
:103B7000800401214FF09040FEF700FB064944EA23
:103B8000C00040F0F0004A78C04320EA02020A7008
:103B9000487070BD000400480600002000B585B0E4
:103BA00014216846FCF79BFC4FF6FF700090002044
:103BB0000321CDE90201019069460248FEF7FAF9B6
:103BC00005B000BD0008004800B585B01421684666
:103BD000FCF785FC4FF6FF70009001200190032058
:103BE00003900020029069460248FEF7E3F905B011
:103BF00000BD00000008004870B5002406462146BC
:103C0000204600F015F900F053F94FF49635304690
:103C100000F022F9641CAC42F9D370BD30B587B016
:103C200014216846FCF75BFC1E48C16C41F004019E
:103C3000C164C16C01F004010591C16C41F0010146
:103C4000C164C16C01F001010591C16C41F0020138
:103C5000C164C06C012500F0020005904FF448706B
:103C6000CDE9000500240394694602940E48FEF74E
:103C7000A1F9280203940090CDE901544FF090443B
:103C800069462046FEF796F9FFF79EFFA06940F4CB
:103C90008070A06104481830016841F40871016027
:103CA00007B030BD0010024000040048203AD2B2F4
:103CB000034B02EB420203EB021200F019B80000C2
:103CC000565A0008F0B50E460746002540F23F144C
:103CD00007E021463846FFF7E9FF103C6D1CA4B20F
:103CE000761C3278002A01D0142DF2D3F0BD0000EA
:103CF0002DE9F04791468A460026044600F098F8E0
:103D0000DFF84080012700BF00F0D2F85FF0000527
:103D100039F8160007FA05F10842404601D14088FB
:103D200000E0008800F098F86D1C102DF0D3641CA2
:103D3000E4B25146204600F07BF8761C182EE3D3FF
:103D4000BDE8F0870000002010B5FFF767FF0020F6
:103D500000F026F8084CA080A088A0F50241303978
:103D600006D000F0D7FB002000F01AF8A08010BDAC
:103D700000F047FBF7E7000000000020074890F83C
:103D8000240028B1012805D0022805D100F0C4BCC8
:103D9000FDF78ABC00F0E4BA70470000480000203C
:103DA00070B51D490A6842F400720A600A6842F45C
:103DB00080720A60184C103C226842F02002226097
:103DC000164A1060086840F02000086000BF00BF7D
:103DD00000BF206840F020002060206840F4807020
:103DE0002060FFF7DBFE4FF09041886A40F480705E
:103DF000886200BF00BF00BF0848001F006885B28E
:103E0000886940F480708861FFF7DEFE206840F426
:103E100000702060284670BD28040048140800483F
:103E200001B5BDF800000149488008BD0000002030
:103E300010B50C460146202000F068F82146BDE888
:103E40001040212000F062B801B5BDF80000014922
:103E5000088008BD00000020134A116841F4007179
:103E60001160114910390B6843F480730B600B68C3
:103E700043F020030B600D4B1860106840F02000E9
:103E8000106000BF00BF00BF086840F0200008605D
:103E9000086840F48070086000BF00BF00BF086879
:103EA00040F4007008607047280400481408004877
:103EB0001449086840F400700860086840F4807095
:103EC000086010481038026842F0200202600E4B71
:103ED00022221A600A6842F020020A6000BF00BF76
:103EE00000BF016841F020010160016841F4807168
:103EF000016000BF00BF00BF016841F400710160B4
:103F0000704700002804004814080048184B10B5FA
:103F10001A6842F400721A601A6842F480721A60D9
:103F2000134A103A146844F020041460114C2060C5
:103F3000186840F02000186000BF00BF00BF106884
:103F400040F020001060106840F480701060216024
:103F5000186840F02000186000BF00BF00BF106864
:103F600040F020001060106840F48070106010BDB8
:103F7000280400481408004870B5124D0446012278
:103F80004FF47F412846FEF7FEF80F4E0122042130
:103F90003046FEF7F8F8002204213046FEF7F3F829
:103FA000210200222846FEF7EEF8012204213046C5
:103FB000FEF7E9F83046BDE8704000220421FEF724
:103FC000E2B8000000080048000C004800EB810047
:103FD000006E00F0F84070478068C0F3C000704782
:103FE0008068C0F380007047042303EAD15310B502
:103FF00018444369C1F3045107248C40A3438A4009
:104000001343436110BD00EB8100016E21F00041BC
:10401000114301667047000030B589B02021684621
:10402000FCF75DFA184817490024C0E900148460C1
:10403000C46004250461C0E9054504774477012183
:10404000016280F82440C462046380F83840C4638D
:1040500080F84040FDF7F6FD08B1FDF7DDFB0B48A9
:1040600000900620CDE901047F200594CDE90305E9
:1040700069460548FDF7D2FB002801D0FDF7CCFBCF
:1040800009B030BD00010050880000200080F03EE3
:104090002DE9F04F87B014216846FCF720FA40481C
:1040A000C16C41F00401C164C16C01F004010591CF
:1040B000C16C41F02001C164C16C01F02001059187
:1040C000C16C41F00101C164C16C01F001010591B5
:1040D000C16C41F00201C164C16C01F002010591A3
:1040E000C16C41F00801C164C06CDFF8B88000F019
:1040F00008004FF6FF740590002221464046FEF767
:1041000042F84FF480764FF09049002231464846FD
:10411000FEF739F8DFF890A0002204215046FEF7A0
:1041200032F8DFF888B04FF4487700223946584615
:10413000FEF729F80125CDE90045002402946946DF
:1041400040460394FDF736FFCDE9005469464846E2
:104150000294FDF72FFF0720CDE900046946584679
:104160000294FDF727FF0096CDE9015469464846C1
:104170000394FDF71FFF04200090CDE90154694628
:1041800050460394FDF716FF0097CDE901546946A8
:1041900058460394FDF70EFF07B0BDE8F08F00000E
:1041A0000010024000080048000C004800040048CD
:1041B00010B594B0002412941394109411940D949B
:1041C0000E94342168460F94FCF789F91948184970
:1041D000016040F21F31C0E9011442F20F71C0E9E1
:1041E000031444618461FEF7FEFD08B1FDF714FB82
:1041F0004FF48050109010A90E48FEF799FE08B1B8
:10420000FDF70AFB0D940E940DA90A480F94FEF7D2
:104210009BFD08B1FDF700FB0794694605480B9428
:10422000FEF738FD002801D0FDF7F6FA14B010BDF6
:10423000002C0140F400002010B58AB0002407943F
:1042400008941C2168460994FCF749F915484FF079
:10425000804101604F21C0E9011440F2E731C0E91B
:1042600003148461FFF708FA08B1FDF7D5FA079443
:1042700007A90C480994FEF767FD08B1FDF7CCFAD1
:104280006020CDE9000402940422694605480494A4
:10429000FFF763F908B1FDF7BFFA0248FFF736F9F7
:1042A0000AB010BD4001002010B58CB0142104A844
:1042B000FCF715F9002428480A940B9409940094FB
:1042C000019402942349039401604F21C0E9011431
:1042D0004FF6FF71C0E903148461FEF784FD08B155
:1042E000FDF79AFA1C48FEF768FF08B1FDF794FA4B
:1042F000042004906020CDE9050404A91648089420
:10430000FFF733FB08B1FDF787FA099409A91248B2
:104310000B94FEF719FD08B1FDF77EFA022000901C
:10432000CDE90104002269460B480394FEF7BEFE66
:1043300008B1FDF771FA0120CDE900400422694679
:104340000548FEF7B3FE002801D0FDF765FA0CB072
:1043500010BD0000000400408C010020FEE7704703
:1043600010B586B010A11820FFF7ACFC144C15A1B5
:1043700068466269FBF7B2FF69464820FFF7A2FC76
:1043800015A168462269FBF7A9FF69466020FFF77F
:1043900099FC16A17820FFF795FC14A19020FFF757
:1043A00091FC06B010BD00002020202020202020FD
:1043B00050415241202020202020202000000000D9
:1043C000480000202020202020523D25642020206D
:1043D000202020202000000020202020204B3D25F0
:1043E00064202020202020202000000020202020E9
:1043F00020202020202020202020202020202000DD
:10440000704730B501210020FFF780FD4FF47A702E
:10441000FDF7ABF900210120FFF778FD41F2907123
:104420001020FFF773FD4FF41C516020FFF76EFD65
:1044300001216120FFF76AFD02214620FFF766FD9A
:1044400048F210011320FFF761FD48F2FE0112202F
:10445000FFF75CFD4FF4A0610220FFF757FD41F22A
:1044600030010320FFF752FD40F203342146302093
:10447000FFF74CFD21463120FFF748FD2146322051
:10448000FFF744FDE51E29463320FFF73FFD0321DA
:104490003420FFF73BFD21463520FFF737FD14217F
:1044A0003620FFF733FD21463720FFF72FFD214649
:1044B0003820FFF72BFD21463920FFF727FD29463D
:1044C0003A20FFF723FD03213B20FFF71FFD214684
:1044D0003C20FFF71BFD4FF4A0513D20FFF716FDD8
:1044E0004FF400719220FFF711FD21469320FFF752
:1044F0000DFD40F60D019020FFF708FD41F2180177
:104500000320FFF703FDBDE8304040F273110720A0
:10451000FFF7FCBC10B543F20801E320FFF7F6FCFF
:104520001221E720FFF7F2FC41F23121EF20FFF7E3
:10453000EDFC00210120FFF7E9FC4FF4E0610220CF
:10454000FFF7E4FC41F230010320FFF7DFFC00211C
:104550000420FFF7DBFC40F207210820FFF7D6FC20
:1045600000210920FFF7D2FC00210A20FFF7CEFC32
:1045700000210C20FFF7CAFC00210D20FFF7C6FC2C
:1045800000210F20FFF7C2FC00211020FFF7BEFC26
:1045900007211120FFF7BAFC00211220FFF7B6FC1B
:1045A00000211320FFF7B2FCC820FDF7F1FC41F217
:1045B00090611020FFF7AAFC40F227211120FFF79D
:1045C000A5FC3220FDF7E4FC1D211220FFF79EFC24
:1045D0003220FDF7DDFC4FF400611320FFF796FC5D
:1045E00014212920FFF792FC0B212B20FFF78EFCD2
:1045F0003220FDF7CDFC00212020FFF787FC0021B1
:104600002120FFF783FC07213020FFF77FFC40F2D9
:1046100007713120FFF77AFC06213220FFF776FC84
:1046200040F204713520FFF771FC41F60471362029
:10463000FFF76CFC04213720FFF768FC00213820CD
:10464000FFF764FC40F206713920FFF75FFC40F28F
:1046500001713C20FFF75AFC0F213D20FFF756FC6B
:1046600000215020FFF752FCEF215120FFF74EFCB4
:1046700000215220FFF74AFC40F23F115320FFF780
:1046800045FC4FF41C516020FFF740FC01216120E4
:10469000FFF73CFC00216A20FFF738FC0021802056
:1046A000FFF734FC00218120FFF730FC002182203D
:1046B000FFF72CFC00218320FFF728FC0021842039
:1046C000FFF724FC00218520FFF720FC102190201B
:1046D000FFF71CFC00219220FFF718FC0321932018
:1046E000FFF714FC4FF488719520FFF70FFC0021B1
:1046F0009720FFF70BFC00219820FFF707FC41F201
:1047000018010320FFF702FCBDE8104040F27311CE
:104710000720FFF7FBBB000010B586B018A11820DA
:10472000FFF7D0FA1C4C1DA16846228BFBF7D6FD83
:1047300069464820FFF7C6FAE06901F00FF941EC3D
:10474000100B1BA153EC102B6846FBF7C7FD694605
:104750006020FFF7B7FA206A01F000F941EC100B76
:1047600019A153EC102B6846FBF7B8FD6946782079
:10477000FFF7A8FA1AA19020FFF7A4FA06B010BD1F
:10478000202020202020202052454344202020208B
:1047900020202020000000004800002020202020B1
:1047A000204E3D25642020202020202020000000D5
:1047B00020202020204D483D252E3166202020201D
:1047C000202020200000000020202020204D4C3DF3
:1047D000252E3166202020202020202000000000EF
:1047E00020202020202020202020202020202020C9
:1047F000202020007047FDF7D1BC00B5A5B03821BE
:104800006846FBF76CFE14211FA8FBF768FE4421E5
:104810000EA8FBF764FE4FF40070FDF755FD022073
:10482000C101039140210491009007900890142148
:10483000CDE909010B900C900D906846FEF70CF83D
:104840000F201F9003202090002021902290239081
:1048500003211FA8FDF7DAFE4FF400400E908003FD
:104860001D900EA8FDF78EFD25B000BD054801681E
:1048700041F47001016003494FF000608039086025
:104880007047000088ED00E00148FEF741BD0000E0
:10489000F40000200148FEF73BBD0000F4000020BA
:1048A0000148FEF735BD0000400100200148FEF739
:1048B0002FBD00008C0100202DE9F0430268234B3E
:1048C000234D244E244C4FF08049984207D0484550
:1048D00005D0A84203D0B04201D0A04203D122F0BB
:1048E00070074A683A431D4FDFF874C0DFF87480E0
:1048F00098420DD048450BD0A84209D0B04207D00D
:10490000A04205D0B84203D0604501D0404503D154
:1049100022F44075CA682A434D6922F080022A4376
:1049200002608A68C2620A688262984207D0A04226
:1049300005D0B84203D0604501D0404501D1096996
:10494000016301214161BDE8F0830000002C0140BA
:1049500000040040000800400034014000400140D5
:10496000004401400048014010B501F01F0301213F
:10497000046A99408C430462016A9A4011430162BF
:1049800010BD10B5846842EA032224F47F440A4330
:104990002243826010BD00008268034B1A400A4324
:1049A00042F00701816070478FFFCFFF2DE9F04390
:1049B000026A22F001020262056A436882691C4CA5
:1049C00025F0020522400C6822F0030214438A6895
:1049D000194E2A43174D194FDFF864C0DFF8649071
:1049E000A84207D0B04205D0B84203D0604501D0FC
:1049F000484506D122F00808CA6842EA080222F0B7
:104A00000402A84207D0B04205D0B84203D06045A6
:104A100001D0484505D14D6923F440731D438B698E
:104A20002B4343608461496841630262BDE8F083BF
:104A30008FFFFEFF002C0140003401400040014088
:104A40000044014000480140F0B5026A22F0100223
:104A50000262056A42688369194C1B4E23400C6848
:104A600023F4407343EA042425F020038D6843EACD
:104A70000513144DA84201D0B04206D1CF6823F0EF
:104A8000800343EA071323F04003A8420AD0B04250
:104A900008D00E4DA84205D00D4DA84202D00D4DB4
:104AA000A84207D14D6922F4406242EA85028D692D
:104AB00042EA850242608461496881630362F0BD15
:104AC000FF8FFFFE002C01400034014000400140F8
:104AD0000044014000480140F0B5026A22F48072AF
:104AE0000262056A4368C269194C1B4E22400C6879
:104AF00022F00302144325F400728D6842EA052275
:104B0000144DA84201D0B04206D1CF6822F4006211
:104B100042EA072222F48062A8420AD0B04208D0BA
:104B20000E4DA84205D00E4DA84202D00D4DA84210
:104B300007D14D6923F4405343EA05138D6943EAD5
:104B400005134360C4614968C1630262F0BD00009F
:104B50008FFFFEFF002C0140003401400040014067
:104B60000044014000480140F0B5026A22F480523E
:104B70000262056A4268C369194C1B4E23400C68E7
:104B800023F4407343EA042425F400538D6843EA78
:104B90000533144DA84201D0B04206D1CF6823F4AA
:104BA000004343EA073323F48043A8420AD0B042CB
:104BB00008D00E4DA84205D00D4DA84202D00D4D93
:104BC000A84207D14D6922F4404242EA85128D691C
:104BD00042EA85124260C461496801640362F0BD23
:104BE000FF8FFFFE002C01400034014000400140D7
:104BF000004401400048014030B5026A22F480328E
:104C00000262046A4268036D114D2B400D681D431A
:104C100024F400330C8943EA04430E4CA0420BD029
:104C20000D4CA04208D00D4CA04205D00C4CA04227
:104C300002D00C4CA04204D14C6922F4803242EAEA
:104C400004224260056549688164036230BD00004A
:104C50008FFFFEFF002C0140003401400040014066
:104C6000004401400048014030B5026A22F480123D
:104C70000262046A4268036D114D24F400142B4053
:104C80000D6843EA05230D8944EA05540D4DA842F9
:104C90000BD00D4DA84208D00C4DA84205D00C4DAC
:104CA000A84202D00B4DA84204D14D6922F48022C3
:104CB00042EA8522426003654968C164046230BDEE
:104CC000FF8FFFFE002C01400034014000400140F6
:104CD000004401400048014010B50468A268234B1D
:104CE0001A404B681343224A13400A681A43A260D1
:104CF0004A68702A0DD037DC12F00F0F34D14FEA1A
:104D00002212072A30D2DFE802F02F2F2F2F0B2498
:104D10002A000B69D1E902210068FFF732FE23E087
:104D20000A68052A13D0B2F1011F10D00268136A75
:104D3000146A24F00104146202689469096924F079
:104D4000F00444EA01119161006803620CE0012063
:104D500010BD0A698968006800F00CF804E00A696F
:104D60008968006800F04EF8002010BD8FFFCFFF6B
:104D7000F8FFFEFF10B5036A046A24F00104046220
:104D8000846924F0F00444EA021423F00A020A437E
:104D90008461026210BD000070B5046A24F0010451
:104DA00004628469056A124EB0420ED0B0F1804FA1
:104DB0000BD0104EB04208D00F4EB04205D00F4E6F
:104DC000B04202D00E4EB04203D124F0030414438B
:104DD00001E044F001041A0724F0F00444EA1262EE
:104DE00025F00A0301F00A0119438261016270BDD6
:104DF000002C014000040040000800400034014045
:104E00000040014010B5036A23F010030362836978
:104E1000046A23F4704343EA023224F0A00343EA15
:104E200001118261016210BD30B5046A24F01004E2
:104E300004628469056A24F4407444EA022222F47C
:104E400070444FF6FF7202EA03322243A02425F099
:104E5000A00304EA011119438261016230BDFEE73B
:104E600003B401984100009850EAC12018BF042003
:104E70004A0D18BF40F0010040F2FF72B2EB515FE3
:104E800008BF40F00200012808BF052002B07047AB
:104E90000907090E002804DB00F1E02080F8001467
:104EA000704700F00F0000F1E02080F8141D7047FB
:104EB00030380A2801D201207047002070470000D6
:104EC000FDF774F9FFF799FCFFF7E2F8FFF7A4F894
:104ED000FFF76EF9FFF7B0F9FFF7E6F9042118487C
:104EE000FEF79EF900211648FEF79AF904211548AD
:104EF000FEF712FCF9218807C16200218163124983
:104F00000120086148611148FDF7F2FFFEF71CFF20
:104F10000020FEF771FE0020FEF782FF4FF6FF70C3
:104F2000FEF792FF0020FFF727F800BFFCF710FB09
:104F3000FEF724FFFEF746FDFCF726FCF6E700002F
:104F40008C0100204001002048000020F4000020D7
:104F500010B500290AD00878002807D00548784401
:104F6000FBF7B2FE002801D0002010BD02487844B3
:104F700010BD00008E1D0000861D000021F00042C3
:104F8000A2F16052B2F5801F01F0004328BFD2F1B8
:104F90007F6C0BD95FEA001C43EAC20242EB5070FF
:104FA00018BF704728BF20F001007047B2F5801F7E
:104FB000BCBF184670474FEA410C1CF5001F02D2D7
:104FC000084600F041BD70B500F054FB00000089B8
:104FD000FFF7F6BF4FF00040A0F5800070470000DB
:104FE00010B591EA030F48BF83F0004300F1D4836A
:104FF000841A71EB030C05D2121943EB0C03001B4E
:1050000061EB0C01DFF824E14FEA1154A4EB135CCF
:105010001EEA430F18BF9EEA445F73D023EA0E03D3
:10502000DCF1200E21EA045143F4801332D322FA3A
:105030000CFE10EB0E0023FA0CFE41EB0E01CCF13E
:10504000200E03FA0EFE10EB0E0051F10001B1F537
:10505000801FCCF1200E32D201EB045112FA0EF275
:10506000BDE8104058BF7047401C38BF5FEA42029D
:1050700018BF7047002814BF20F0010041F1000163
:105080004FEA410313F5001F38BF7047A1F1C0413B
:1050900000F03EBB012A43EB0302ACF1200CDCF133
:1050A0001F0E32BF4FF0000E23FA0CF310EB03007B
:1050B00041EB0451B4EB115FD0D0A1EB045101F5E9
:1050C000801149085FEA300001EB04510ED350F122
:1050D000000038BF12FA0EFE08D1BDE81040C9E743
:1050E000401C38BF5FEA4202CAD1C3E7BDE81040A6
:1050F0004FEA410313F5001F38BF7047A1F1C041CB
:1051000000F006BB9EEA445F08D011EA5E0FBDE8DE
:10511000104004BF01F0004100207047BDE810407E
:1051200070B500F0A7FA00BF64FBBE3E0000E0FFD0
:10513000491058BFC1F140415B1058BFC3F1404313
:105140008B42EFF3008070472DE9C04130B4DFF8A7
:10515000A0C23CEA111418BF3CEA131400F0EC8022
:1051600081EA03051CEA111444EAD57418BF1CEA4D
:10517000131500F0C780A4EB05044FF0004545EA85
:10518000C12145EAC32341EA505143EA525304F195
:105190007F74994204F500344FEAC0204FEAC222DE
:1051A00008BF904200F09C804FEA13650FF2401652
:1051B000765D4FEA134506FB05F7C7F1807706FBDE
:1051C00007F74FEAD737A7FB03687642C8F5803860
:1051D000A7FB06CE38BFA8F1010807FB08E64FF091
:1051E000000EA6FB028CE6FB03CEDCF1000CCEF138
:1051F000004E38BFAEF1010EA6FB0C584FF0000771
:105200004FF00005E6FB0E87A1FB08C6A0FB07CE0A
:1052100016EB0E0645F10005E1FB076515F1E04EC2
:105220007EBFA4F580345FEA46066D4116F1800723
:1052300045F100054FEA17274FEA066647EA05677A
:10524000A6F1DE46B6F1805F4FEA15251FD9384634
:1052500024F0010C05EBC471BCF1FE6F01EB0C11E5
:1052600002D8F0BCBDE8008124425CBF01F5801E7D
:105270009EEAC47F02D4F0BCBDE80081244238D449
:10528000F0BCA1F1C041BDE8004100F041BA4FEAD5
:10529000D22242EA43524FEAD323A7FB02864FEAC7
:1052A000D02040EA415007FB03661EEA0E0F4FEA8A
:1052B000D12105FB026658BFA6EB0056B6EB00569F
:1052C0004FEA520E4EEAC37E18EB0E0E56EB530E0B
:1052D000BDD518EB02085E417F1C55F10005B6E70D
:1052E0004FF480154FF000074FF000064FF0000814
:1052F000ADE7F0BC4FF0000001F1C04101F000410A
:10530000BDE8008111EA0C1F0CEA131500D00CE077
:1053100013EA0C1F00F025804FF00000F0BC81EA7A
:10532000030101F00041BDE80081F0BCBDE800418F
:1053300081EA030100F0ECB9F0BCBDE8004170B5B2
:1053400000F098F9097EFC3E00F007B881EA0301FD
:105350004FF0000001F00041704781EA030100F0C6
:10536000D7B9F0BCBDE800414FF0000021497047BB
:10537000FFFDFBF9F7F5F4F2F0EEEDEBE9E8E6E41A
:10538000E3E1E0DEDDDBDAD8D7D5D4D3D1D0CFCDA1
:10539000CCCBCAC8C7C6C5C4C2C1C0BFBEBDBCBBDA
:1053A000BAB9B8B7B6B5B4B3B2B1B0AFAEADACABD5
:1053B000AAA9A8A8A7A6A5A4A3A3A2A1A09F9F9EAF
:1053C0009D9C9C9B9A999998979796959594939361
:1053D000929191908F8F8E8E8D8C8C8B8B8A8989F8
:1053E000888887878685858484838382828181807B
:1053F0000000FF070000F87F4FEA1153A3F5806318
:10540000D3F11E03A8BFD3F1200C08DB4FF00042FC
:1054100042EAC12252EA505232FA03F0704709427E
:105420000BD4102BC4BF0020704703F5787CBCF16F
:10543000FF3F05D04FF0FF3070474FF0000070473E
:1054400070B500F017F900BF499224800020704722
:10545000F0E710F0004248BF4042B0FA80F310FA83
:1054600003F10AD0C3F11D0303F580634FEA4150F5
:1054700002EB035202EBD12170474FF0000070475E
:10548000B0FA80F310FA03F10AD0C3F11D0303F55B
:1054900080634FEA41504FEA035202EBD12170473B
:1054A0004FF000007047000051EA030C17D41CF5C0
:1054B000801F58BFBCF5801F00F10680994218BFBD
:1054C000704708BF9042704707D711F5801F58BF3B
:1054D00013F5801F19D499427047894270471CF513
:1054E000801F08D5BCF5801FF7D58B4218BF7047C9
:1054F00008BF824270474FF4001C1CEB410F38BFBD
:105500001CEB430F01D28B42704770B500F0B2F82C
:10551000922449004FF000514FF08053FFF708BE2E
:10552000DFF848C170B51CEA111E1EBF1CEA131536
:105530009EEA0C0F95EA0C0F00F06F8081EA0304DD
:1055400023EA4C134EEAD47E21EA4C1141F4801137
:1055500043F48013AE44A1FB024CA0FB0365AEF103
:105560007F7E361955EB0C05A1FB034C4CF1000373
:10557000A0FB021C16EB0C06654153F10003094227
:1055800018BF46F0010613F4007F0BD14FEA033138
:105590004FEA0530340341EA155140EA16506FF0E6
:1055A00003020AE04FEAC3214FEAC520F40241EAB0
:1055B000555140EA56506FF0020202EB2E4201EBC9
:1055C000025585EACE710AD05FEA440C18BF24F078
:1055D000004450F1000041F1000120EAD47040F293
:1055E000FE7C624500D270BDA84214BF4FF08044DB
:1055F0004FF04044002E08BF0024BEF1806FA8BFCA
:10560000A1F1C041BDE8704080F282804FF00000FF
:1056100001F1C04101F0004170479EEA0C0F0CEA15
:10562000131518BF95EA0C0F06D04FF0000081EA61
:10563000030E0EF0004170BD00F01CF88900013E21
:1056400000F007B800F009B84FEA430C5FEA5C5C71
:1056500008D081EA030100F05BB84FEA410C5FEA31
:105660005C5CF6D14FF00000014970470000FF0775
:105670000000F87F0EF1020E2EF0030E5EF8046BB0
:10568000364205D4012A43EB030515F5001F12D855
:10569000012841EB010C1CF5001F0CD80ED14FEA7C
:1056A000D17C15F5001F0CEB4C0C0CF1020C08BF63
:1056B0004CEBD37C04E04FF0080C01E04FEAD37CC4
:1056C0000CEB4C0526FA05F606F00706B6F1040CBD
:1056D00006D20EEB860CBDE870404CF0010C604722
:1056E000DFE80CF0090B02024FF000414FF0000020
:1056F000A1F5002170BD19461046012851EB0104A7
:1057000018BFD4F5001484BF002001F0004170BD23
:105710000808A0F500114FEA3101704753EA010C67
:1057200017D41CF5801F58BFBCF5801F00F1068000
:105730008B4218BF704708BF8242704707D713F5E6
:10574000801F58BF11F5801F19D48B4270479B42B0
:1057500070471CF5801F08D5BCF5801FF7D599420E
:1057600018BF704708BF904270474FF4001C1CEBF5
:10577000430F38BF1CEB410F01D2994270470FB461
:105780000CBC03BCFFF7C1BE10B591EA030F48BFC4
:1057900083F000433FF52CAC841A71EB030C07D265
:1057A00012198CF0004C43EB0C03001B61EB0C0155
:1057B000DFF8A4E14FEA1154A4EB135C1EEA430F97
:1057C00018BF9EEA445F00F0B08023EA6E035242A5
:1057D00021EA0451C3EB6E0338BF5B1EDCF1200EDF
:1057E00025D322FA0CFE10EB0E0043FA0CFE41EB1F
:1057F0000E01CCF1200E03FA0EFE10EB0E0051F15B
:105800000001CCF1200E29D412FA0EF201EB045162
:10581000BDE8104058BF7047401C1CBFB2F1004F9C
:10582000704700280CBF491C20F00100704712EBA4
:10583000020E43EB030218BF4FF0010E4EEA420284
:10584000ACF1200CDCF11E0E54D943FA0CFE10EB27
:105850000E0051F1FF31CCF11E0ED5D50EF1010E27
:1058600012FA0EFE404141EB010101EB445C5FEA9C
:105870005C5C10D910EBDE7001EB045138BFBEF157
:10588000004FBDE8104018BF704700280CBF491CEE
:1058900020F00100704730D24FEAD42C11F50011EE
:1058A00024F400641BD0B1FA81F20B3AA41AA41EAE
:1058B000D2F12003914030FA03F31943904001EBF9
:1058C000CC71002C01EB0451BDE81040A8BF70471B
:1058D00001F1C0414FF0000001F000417047B0FA03
:1058E00080F310FA03F100D110BDE41A173C48050B
:1058F000C90AE4E701EB045110BD491001EB045162
:10590000BDE810404FEA300002E04FF00001704760
:105910004A0008BF0042F8D0B2F5001F28BF704708
:1059200001F000414FF0000070479EEA445F07D04D
:1059300011EA5E0FBDE8104004BF0021002070474F
:10594000BDE8104070B5FFF795FE00BF40DFF63EA2
:1059500083F00041104670470000E0FF43004FEA2B
:10596000D30C4FEA3C0C43401FBF40070CF1605181
:1059700013F0FE4F70471CF0006F03D100200CF0B5
:10598000004170470CF0004343EA507010B540EA04
:10599000CC0000F00EF800BF000000924FEA0001BA
:1059A000FFF7B6BE4FF000414FF00000A1F5002117
:1059B00070470EF1020E2EF0030E5EF8044B2442E7
:1059C00004D44FEA4102B2F17F4F11D84FEA4003AD
:1059D000B3F17F4F0CD80ED14FEAD07CB2F17F4F9C
:1059E0000CEB4C0C0CF1020C08BF4CEBD17C04E02E
:1059F0004FF0080C01E04FEAD17C0CEB4C0324FA89
:105A000003F404F00704B4F1040C06D20EEB840C8A
:105A1000BDE810404CF0010C6047DFE80CF00708CF
:105A200002024FF00040A0F5800010BD0846420081
:105A300018BFD2F1807288BF00F0004010BD4FF057
:105A40004070E1EE100A7047FF2141EAD050C005D6
:105A50007047FAF7A0BE0000000000000000000040
:105A60000000000000000000000000000000000036
:105A70000000000000000000000000000000000026
:105A80000000000000000000800180018001800112
:105A900080018001800180018001800180018001FE
:105AA0008001000000008001800100000000000073
:105AB00000000000000000000000CC00CC00CC0082
:105AC000CC00CC00CC000000000000000000000072
:105AD00000000000000000000000000000000000C6
