:020000040800F2
:10000000D8070020ED01000877350008B92C00085A
:1000100075350008C3070008D54D00080000000032
:1000200000000000000000000000000095390008FA
:10003000590C0008000000002D3600089739000810
:10004000070200080702000807020008070200086C
:10005000070200080702000807020008070200085C
:10006000070200080702000807020008C507000889
:10007000D10700080702000807020008070200086D
:10008000070200080000000007020008070200083D
:10009000070200080702000807020008070200081C
:1000A000070200080702000807020008070200080C
:1000B000253A0008313A00083D3A000807020008D6
:1000C00007020008070200080702000807020008EC
:1000D00007020008C94D00080702000807020008CF
:1000E00007020008070200080702000807020008CC
:1000F00007020008070200080702000800000000CD
:1001000000000000070200080000000007020008CD
:1001100007020008000000000702000807020008AC
:10012000070200080702000807020008070200088B
:100130000702000800000000000000git commit00070200089D
:10014000070200080702000800000000000000008D
:10015000000000000000000000000000000000009F
:10016000000000000000000000000000070200087E
:10017000070200080000000000000000000000006E
:10018000000000000702000800000000000000005E
:10019000000000000000000000000000000000005F
:1001A000000000000000000007020008070200082D
:1001B000070200080702000807020008000000000C
:1001C000000000000702000800000000000000001E
:1001D0000702000807020008DFF80CD000F070FAF0
:1001E00000480047DD560008D80700200648804731
:1001F00006480047FEE7FEE7FEE7FEE7FEE7FEE70C
:10020000FEE7FEE7FEE7FEE7093A0008D90100082D
:100210002DE9F05F0546002092469B46884606463B
:10022000814640241BE0284641464746224600F0CE
:100230007FF853465A46C01A914110D311461846CA
:10024000224600F066F82D1A67EB01084F46224659
:100250000120002100F05DF817EB00094E41201E3F
:10026000A4F10104DFDC484631462A464346BDE896
:10027000F09FD2B201E000F8012B491EFBD270477B
:100280000022F6E710B513460A4604461946FFF762
:10029000F0FF204610BD421C10F8011B0029FBD1C5
:1002A000801A704710B5002200E0521C835C8C5C01
:1002B000A34201D1002BF8D1D8B2E1B2401A10BD4F
:1002C00000F0004230F000400AD0C10D01F560712D
:1002D000C0F3160042EA0151C208400711437047BB
:1002E00000200146704730B50B4601460020202211
:1002F000012409E021FA02F59D4205D303FA02F533
:10030000491B04FA02F52844151EA2F10102F1DC92
:1003100030BD202A04DB203A00FA02F100207047A9
:100320009140C2F1200320FA03F319439040704733
:10033000202A04DB203A21FA02F00021704721FA3A
:1003400002F3D040C2F120029140084319467047A1
:100350002DE9FE4F804681EA0300C00F0C46009055
:1003600021F0004123F00045B8EB0200A94105D27D
:100370004046214690461C460B46024623F000406C
:10038000104347D0270DC7F30A00C3F30A51029068
:10039000401A019040286BDAC3F3130040F4801B2D
:1003A0000098924620B10023D2EB030A63EB0B0BBB
:1003B00001985946C0F140025046FFF7AAFF064691
:1003C0000D4650465946019A00F08CF910EB080092
:1003D0006141002487EA115284EAE7731A4340D04E
:1003E000009A62B3019A012A4FEA075215DC001BFA
:1003F00061EB02014FF0004202EA0752CDE90042F0
:10040000001C41F5801132462B4600F08CF903B0F8
:10041000BDE8F08F40462146F9E7001B61EB020181
:10042000001C41F5801300185B412018A2F500174D
:1004300047EB030140EAD570B6196D4111E06D0834
:100440004FEA360645EAC0754FEA0752001B61EBDA
:100450000201001C41F5801149084FEA30000019E3
:10046000514132462B4603B0BDE8F04F00F04CB985
:100470000098012240000023D0EB020263EBE073FE
:10048000009821464FEAE074B8EB000061EB0401EC
:10049000E9E783F000435BE781F0004158E72DE98D
:1004A000FE4F81EA030404F0004421F0004100946F
:1004B0004FF0000B23F0004350EA01045ED052EAF3
:1004C00003045BD0C3F30A54C1F30A552C44A4F2CD
:1004D000F3340194A0FB0254C1F3130141F48011E1
:1004E000C3F3130343F4801301FB024400FB034EE8
:1004F000840A970A44EA815447EA8357A4FB0768B1
:1005000002958D0A05FB07854FEA932C04FB0C54DA
:100510002705029D4FEA065847EA1637B5EB08054E
:100520006EEB070C870E920E47EA811742EA8312A0
:10053000A7FB0201B6EB0B0164EB00042B0D43EAB1
:100540000C335E1844EB1C50DA465146E7FB0201BF
:10055000C5F313044FEA0B3343EA14534FEA043252
:10056000019C43EA0603A4F10C040294009CCDE92B
:1005700000B400F0D8F803B0BDE8F08F00200146C9
:10058000F9E72DE9F04D81EA030404F0004B21F076
:10059000004514464FF0000A23F0004150EA0502DE
:1005A00020D054EA01021DD0C5F30A570246C5F314
:1005B0001303C1F31300C1F30A5640F4801543F44A
:1005C0008013A7EB0608101BD64608F2FD3873EB24
:1005D000050002D308F1010801E092185B41B8F16F
:1005E000000F03DA00200146BDE8F08D00204FF433
:1005F0008011064684460EE0171B73EB050705D3F2
:10060000121B63EB050306434CEA010C49084FEA51
:10061000300092185B4150EA0107EDD152EA030025
:1006200012D082EA040083EA0501084305D0101BBA
:10063000AB4106D20122002306E000224FF0004326
:1006400002E06FF0010253101AEB06004CEB085168
:1006500010EB0A0041EB0B01BDE8F04D00F054B87F
:10066000C1F30A52C1F3130140F2FF3341F4801188
:100670009A4202DA00200146704740F233439A4220
:10068000A2F2334202DC5242FFF752BEFFF741BEF4
:1006900030B5041E71F1000404DB4FF00044404209
:1006A00064EB0101141E73F1000405DB1C464FF0DE
:1006B0000043524263EB0403994208BF904230BDAD
:1006C000064C074D06E0E06840F0010394E807009F
:1006D00098471034AC42F6D3FFF782FD2C6900082E
:1006E0004C690008202A06DBCB17203A41FA02F0B9
:1006F00043EAE07306E041FA02F3D040C2F120027F
:10070000914008431946704710B5141E73F1000458
:1007100008DA401C41F1000192185B411A4301D1F3
:1007200020F0010010BD2DE9F04D92469B4611B11D
:10073000B1FA81F202E0B0FA80F220329046FFF77F
:10074000E8FD04460F4640EA0A0041EA0B01534621
:100750005A46084313D0114653EA010019D0C8F194
:1007600040025046FFF7E4FD05460E465046594606
:100770004246FFF7CEFD084305D0012004E02046A5
:100780003946BDE8F08D0020054346EAE0762C436B
:1007900037430A986305E40AA0EB08000022FD0A2B
:1007A00044EA47540A3002D500200146E9E7010532
:1007B00010196941DDE9084500196941BDE8F04DAE
:1007C000A2E7FEE7014800F0AEBA000014030020E3
:1007D000014800F0A8BA0000740300200D49026827
:1007E0008A4201D20C4900E00C49D2B20C4B083AC3
:1007F000A3FB02321209436C23F003031944816402
:100800000849C16402F01F01012202FA01F10165E9
:10081000704700000804024000080240200802401F
:10082000CDCCCCCC800802400179074A491E02EBAE
:1008300081024265054A826501F01F01012202FA28
:1008400001F1C16570470000000902404009024003
:1008500010B4C46CD0F850C0C4F804C0D0F854C070
:10086000BCF1000F04D0846DD0F85CC0C4F804C0A3
:1008700090F844C001240CF01F0C04FA0CFC046C2A
:10088000C4F804C0D0F800C0CCF804308368102B42
:1008900005D0036899600068C26010BC70470368A7
:1008A0009A600068C16010BC7047000010B586B047
:1008B00010A1182002F066FB134C14A16846627860
:1008C00004F08AFA6946482002F05CFB227814A101
:1008D000684604F081FA6946782002F053FBA2785A
:1008E00014A1684604F078FA6946A82002F04AFB91
:1008F00006B010BD202020202020446174612020FB
:10090000202020202020200008000020202020433C
:100910004E42523A25642020202020202020000032
:10092000202020564E42523A2564202020202020AC
:100930002020000020202049444C453A25642020F6
:1009400020202020202000002DE9FF47AF4801682B
:10095000AF4C2269891A64297ED30068206102F0B5
:10096000D3F94FF00009002877D0AA4800F17808A1
:10097000817AC27A303901EB81036FF02F0101EBEC
:1009800043031A4488F80A20027B437B303A02EB87
:10099000820201EB42021A44D6B288F80B60827BD5
:1009A000C37B303A02EB820201EB42021A44D5B219
:1009B00088F80C50027C437C303A02EB820201EB57
:1009C00042021A44D3B288F80D30827CC77C303A98
:1009D00002EB820201EB42023A44D2B288F80E20C6
:1009E000477D007D303800EB800001EB400038444B
:1009F000C0B288F80F000C2E26D81F2D24D8182B33
:100A000022D83C2A20D83C281ED804230022814921
:100A1000404600F031F9042305227E4908F1050023
:100A200000F02AF908F1050002F058F908F1110365
:100A3000FF2832D000EB00171E46B9190D4640467C
:100A4000FFF730FC002866D0724873A1503004F0E4
:100A5000C3F97048503001E01DE016E0FFF71BFCC1
:100A60006C4982B25031714802F0D0F8694870A1E7
:100A7000643004F0B1F967486430FFF70CFC654955
:100A800082B26431694802F0C1F81E216148FFF763
:100A9000F7FB84F80690BDE8FF8702F00FF9FF2806
:100AA000E4D01F4600EB00165A49F5190423002232
:100AB0007831284600F0E0F8681D0423002208F190
:100AC000050100F0D9F898F80A00A87298F80B0010
:100AD000E87298F80C00287398F80D00687398F87D
:100AE0000E00A87398F80F00E87301202874B85D11
:100AF000432802D0562804D006E06078401C60707D
:100B000002E02078401C207060782178C0F1080055
:100B1000401AA070B9E798F80A10AA7A3046891AE4
:100B200040F26D1211FB02F198F80B20EB7A454E62
:100B3000D21AC2EB021201EB420198F80C202B7B77
:100B4000D21A114498F80D206B7B01EB4101D21AA7
:100B500002EBC101316098F80E20AB7BD21A002A5B
:100B600005DC98F80F20EB7BD21A002A01DD491C26
:100B70003160C05D432802D0562812D022E000EE3A
:100B8000101AD4ED030AB8EE400A20EE200A10EE47
:100B9000100AFFF795FBC6E902016078401E6070FD
:100BA00010E000EE101AD4ED020AB8EE400A20EE72
:100BB000200A10EE100AFFF783FBC6E90201207835
:100BC000401E207060782178C0F10800401AA070A3
:100BD00096ED020B6B1D8DED020B306800900D48F9
:100BE0002A4619A11E3004F0F7F80A481E30FFF714
:100BF00052FB084982B21E310C4802F007F8284621
:100C00001121FFF73DFB85F810903EE72C000020F6
:100C1000080000203000002054686520446174659D
:100C2000204552524F52210D0A0000008802002038
:100C3000446F6E2774206861766520537061636528
:100C4000210D0A004801002025733A25733A2564D6
:100C50003A252E32660A00007047002240F6B8336B
:100C600006E00021491C89B29942FBD3521C92B282
:100C70008242F6D37047704730B5002404E0A518CF
:100C80004D5D0555641CE4B29C42F8D30021C1546B
:100C900030BD10B5002490F8251000230122022950
:100CA00007D00421C16380F8252080F82430012476
:100CB00037E00168D1F800C02CF00E0CC1F800C07C
:100CC0000168D1F800C02CF0010CC1F800C0816CA3
:100CD000D1F800C02CF4807CC1F800C090F844101A
:100CE000D0F840C001F01F0102FA01F1CCF8041065
:100CF000D0F84CC0016DCCF80410416D51B1D1F861
:100D000000C02CF4807CC1F800C0D0F858C0C16D80
:100D1000CCF8041080F8252080F82430816B01B1D4
:100D20008847204610BDF0B4016C0A6801680B6862
:100D300090F844C004240CF01F0C04FA0CF5154282
:100D400017D013F0040F14D00A6812F0200F03D14B
:100D50000A6822F004020A6090F84410026C01F064
:100D60001F0104FA01F15160016B002945D0F0BC6C
:100D70000847022505FA0CF414424FF000064FF024
:100D800001041BD013F0020F18D00A6812F0200FD4
:100D900005D10A6822F00A020A6080F8254090F81E
:100DA0004410026C01F01F0105FA01F1516080F856
:100DB0002460C16A002920D0F0BC0847082505FA44
:100DC0000CFC1CEA020F18D013F0080F15D00A68AB
:100DD00022F00E020A6090F84410026C01F01F012C
:100DE00004FA01F15160C46380F8254080F8246062
:100DF000416B002901D0F0BC0847F0BC70470000EF
:100E000070B50446002C0ED02B4A20682B49904226
:100E10000BD22B4A0244A1FB02210909890061641B
:100E2000284921640AE0012070BD274A0244A1FB41
:100E3000022109098900616424492164022184F89E
:100E4000251001686FF30E11E368A268D4F814C08E
:100E50001A43236943EA0C031A43A3691A43E3695B
:100E60001A43236A1A43114301602046FFF7B6FC78
:100E7000A0680025B0F5804F00D16560A16C207995
:100E80000860E16C206D48606068401E032808D847
:100E90002046FFF7C9FC606D0560A16DE06D4860FC
:100EA00002E06565A565E565E563012084F8250038
:100EB00084F82450002070BD08040240CDCCCCCC76
:100EC000F8FFFDBF00000240F8FBFDBF0004024038
:100ED00070B50446002594F8240001280DD00120A7
:100EE00084F8240094F825C00020BCF1010F06D03E
:100EF00084F824000225284670BD022070BD4FF002
:100F0000020C84F825C0E0632068D0F800C02CF003
:100F1000010CC0F800C02046FFF79AFC206B28B1F6
:100F20002068016841F00E01016009E02068016855
:100F300021F0040101602068016841F00A010160AC
:100F4000A06C016811F4803F03D0016841F4807106
:100F50000160606D18B1016841F480710160206822
:100F6000016841F001010160C5E7000070B5044669
:100F700000F03EF90546B4F1FF3F02D00448406856
:100F8000044400F035F9401BA042FAD370BD0000C4
:100F9000240000202DE9F84F00220B68002B7CD0A4
:100FA0000324874E874F0F250123D1F800C003FA91
:100FB00002F80CEA0803002B70D0D1F804C0BCF191
:100FC000010F08D0BCF1020F05D0BCF1110F02D007
:100FD000BCF1120F1DD1D0F808904FEA420C04FA70
:100FE0000CFA29EA0A09D1F80CA00AFA0CFC4CEA1E
:100FF000090CC0F808C0D0F804C02CEA080C91F81D
:101000000480C8F3001808FA02F848EA0C0CC0F88B
:1010100004C0D0F80C804FEA420C04FA0CFA28EA1B
:101020000A08D1F8089009FA0CF949EA0808C0F84A
:101030000C80D1F80480B8F1020F02D0B8F1120F81
:1010400015D14FEAD20800EB8808D8F820B04FEA53
:1010500042794FEAD96905FA09FE2BEA0E0BD1F85D
:1010600010E00EFA09F949EA0B09C8F82090D0F807
:10107000008028EA0A0891F8049009F0030909FAA7
:101080000CFC4CEA080CC0F800C0D1F804C01CF0FD
:10109000805F7CD0D6F860C001E07DE077E04CF066
:1010A000010CC6F860C0D6F860C00CF0010CCDF899
:1010B00000C022F0030C0CF1804909F58039D9F801
:1010C00008C04FEA82784FEA187805FA08FA2CEA45
:1010D0000A0AB0F1904F64D0A0F1904CBCF5806C3E
:1010E0005CD0A0F1904CBCF5006C5DD0A0F1904CB0
:1010F000BCF5406C5BD0A0F1904CBCF5805C59D045
:10110000A0F1904CBCF5A05C57D04FF0060C0CFA47
:1011100008FC4CEA0A0CC9F808C0D7F800C02CEA51
:10112000030CD1F8048018F4803F01D04CEA030C82
:10113000C7F800C0DFF89080D8F800C02CEA030C94
:10114000D1F8049019F4003F01D04CEA030CC8F820
:1011500000C0DFF87880D8F800C02CEA030CD1F882
:10116000049019F4801F01D04CEA030CC8F800C0A9
:10117000DFF85C80D8F800C02CEA030CD1F80490AA
:1011800019F4001F01D04CEA030CC8F800C0521C2F
:101190000B68D3407FF408AFBDE8F88F4FF0010C27
:1011A000B5E74FF0000CB2E74FF0020CAFE74FF09D
:1011B000030CACE74FF0040CA9E74FF0050CA6E7D1
:1011C00000100240000401400404014008040140F2
:1011D0000C0401400069084201D001207047002042
:1011E0007047002A01D0816170478162704700001A
:1011F0000148806870470000240000200248816890
:1012000042681144816070472400002010B500241A
:10121000032000F08FF8002000F008F808B1012446
:1012200001E000F029F8204610BD000070B5054629
:1012300000240F4E7068002817D04FF47A71B1FB6C
:10124000F0F00C490968B1FBF0F000F059FE08B16C
:1012500001240BE0102D06D200222946501E00F07A
:1012600035F8356002E0012400E00124204670BD1D
:1012700024000020200000200B4808B5016E41F03A
:1012800001010166016E01F001010091816D41F0E3
:1012900080518165806D00F0805000900348816826
:1012A00041F48041816008BD0010024000700040A0
:1012B00000280ADB00F01F01012202FA01F14009B7
:1012C000800000F1E020C0F80011704710B4184B06
:1012D0001B68C3F30223C3F1070CBCF1040F01D94F
:1012E0004FF0040C1C1D072C01D2002300E0DB1E74
:1012F000012404FA0CFCACF1010C0CEA0101994048
:1013000004FA03F35B1E1A401143002806DB00F1C8
:10131000E020090180F8001410BC704700F00F00B5
:1013200000F1E020090180F8141D10BC7047000096
:101330000CED00E000F00700064A11684FF6FF03CD
:10134000194041EA002040F0FD7040F080601060DC
:10135000704700000CED00E033493222334B09683E
:101360004A43334900280AD0B0F5007F31D00868DD
:1013700020F4C06040F48060086000207047086876
:1013800000F4C060B0F5806F06D0D1F8800020F482
:101390008070C1F88000F0E7D1F8800020F4807000
:1013A000C1F88000086820F4C06040F40070086054
:1013B000B2FBF3F0401C00E0401E4A6912F4806F5B
:1013C00001D00028F8D1486910F4806FD5D00320EF
:1013D0007047086800F4C060B0F5806F06D0D1F89F
:1013E000800040F48070C1F88000C6E7D1F880002A
:1013F00040F48070C1F88000086820F4C06040F4B8
:1014000000700860B2FBF3F0401C00E0401E4A6927
:1014100012F4806F01D00028F8D1486910F4806F71
:10142000ABD00320704700002000002040420F0096
:10143000007000402DE9F84F044600250027206881
:10144000B04E10F4002F76D0A846B06D10F0805F3B
:1014500009D1B06D40F08050B065B06D00F08050A3
:1014600000904FF00108DFF8A0A2DAF8000040F485
:101470008070CAF80000FFF7BBFE8146DAF8000072
:1014800010F4807F0CD1FFF7B3FEA0EB0900022817
:1014900001D9032504E0DAF8000010F4807FF2D0CF
:1014A00025B12F46B8F1010F41D044E0D6F89000A5
:1014B00000F44070A0B1216C814211D0D6F89000A8
:1014C00020F44070D6F8901041F48031C6F89010A6
:1014D000D6F8901021F48031C6F89010C6F890002C
:1014E00010F0010F16D0FFF783FE8146D6F890006A
:1014F00010F0020F0ED141F2883AFFF779FEA0EB0F
:101500000900504501D9032504E0D6F8900010F0F9
:10151000020FF2D00DB12F46C4E7D6F89000216C2F
:1015200020F440700843C6F89000BBE703E0B06DBC
:1015300020F08050B065207810F0010F07D0D6F869
:101540008800616820F003000843C6F8880020780E
:1015500010F0020F07D0D6F88800A16820F00C0028
:101560000843C6F88800207810F0040F07D0D6F89A
:101570008800E16820F030000843C6F88800207831
:1015800010F0080F07D0D6F88800216920F0C000BD
:101590000843C6F88800207810F0200F07D0D6F84E
:1015A0008800616920F440600843C6F8880020780C
:1015B00010F0400F07D0D6F88800A16920F4405001
:1015C0000843C6F88800207810F0800F07D0D6F8BE
:1015D0008800E16920F440400843C6F8880020886C
:1015E00010F4807F07D0D6F88800216A20F44030BC
:1015F0000843C6F88800208810F4007F07D0D6F88A
:101600008800616A20F440200843C6F888002088DA
:1016100010F4806F0FD0D6F88800A16A20F4401033
:101620000843C6F88800A06AB0F5801F03D1F068AF
:1016300040F48010F060208810F4006F0FD0D6F8CE
:101640008800E16A20F440000843C6F88800E06A98
:10165000B0F5800F03D1F06840F48010F06020886E
:1016600010F4805F0FD0D6F88800216B20F0407016
:101670000843C6F88800206BB0F1807F03D1F06882
:1016800040F48010F060208810F4005F0FD0D6F88E
:101690008800616B20F040600843C6F88800606BEA
:1016A000B0F1006F03D1F06840F48010F060208842
:1016B00010F4804F0FD0D6F88800A16B20F0406066
:1016C0000843C6F88800A06BB0F1006F03D1F06842
:1016D00040F48010F060208810F4004F0FD0D6F84E
:1016E0008800E16B20F040500843C6F88800E06BAA
:1016F000B0F1805F03D1F06840F48030F06038468C
:10170000BDE8F88F00100240007000402DE9F0475E
:1017100004460D460027002C17D0DFF8DC91D9F8DD
:10172000000000F00F00A84212D2D9F8000020F00B
:101730000F002843C9F80000D9F8000000F00F009E
:10174000A84205D00120BDE8F0870120BDE8F08760
:1017500020786A4E10F0010F41F2883A5ED060683E
:10176000DFF89C81032806D0022822D0306810F4CC
:10177000806F49D021E0306810F0007F0ED001F07A
:1017800057FF404524D9B06810F0F00F09D02078F9
:1017900010F0020F1CD0A06818B119E00120BDE8BC
:1017A000F087B06820F0F00040F08000B060802743
:1017B0000EE0306810F4003F23D000F0D3F840452D
:1017C00006D9B06820F0F00040F08000B0608027BB
:1017D000B068616820F003000843B060FFF708FDBF
:1017E0008046B068616800F00C00B0EB810F15D046
:1017F000FFF7FEFCA0EB0800504508D90320BDE828
:10180000F0870120BDE8F0870120BDE8F087B068CF
:10181000616800F00C00B0EB810FE9D1206810F096
:10182000020F17D010F0040F03D0B06840F4E0604E
:10183000B060207810F0080F05D0B06820F4605038
:1018400040F4E060B060B068A16820F0F0000843A8
:10185000B06005E0802F03D1B06820F0F000B060E8
:10186000D9F8000000F00F00A8421DD9D9F80000F7
:1018700020F00F002843C9F80000FFF7B9FC074625
:10188000D9F8000000F00F00A8420DD0FFF7B0FC1F
:10189000C01B504502D90320BDE8F087D9F80000ED
:1018A00000F00F00A842F1D1207810F0040F05D00D
:1018B000B068E16820F4E0600843B060207810F080
:1018C000080F06D0B068216920F4605040EAC100DA
:1018D000B06000F047F8B1680A4AC1F30311515CE7
:1018E00001F01F01C8400849086008480068BDE8C9
:1018F000F047FFF79BBC00000020024000100240B0
:1019000000B4C40414690008200000202400002052
:1019100001480068704700002000002000B5FFF774
:10192000F7FF05498968054AC1F30221515C01F0BE
:101930001F01C84000BD00000010024024690008DB
:1019400000B5FFF7E5FF05498968054AC1F3C221E3
:10195000515C01F01F01C84000BD000000100240B2
:10196000246900081A4A9068DFF868C000F00C008B
:1019700004280CD0906800F00C011748082905D005
:1019800091680C2333EA010103D0002070476046C0
:101990007047D16801F00303D168C1F30311491CFA
:1019A000032B0DD0BCFBF1F0D168C1F306214843F5
:1019B000D168C1F34161491C4900B0FBF1F07047A7
:1019C000B0FBF1F0D168C1F306214843F0E7000015
:1019D000001002400024F40000366E012DE9F843A7
:1019E0000446002C0ED02078FD4F10F0010F60D07F
:1019F000B8683D4600F00C00E96801F003010C28CE
:101A000003D004E00120BDE8F88303291AD0082898
:101A100018D06068B0F5803F1DD0B0F5A02F1FD062
:101A2000286820F480302860286820F4802028600E
:101A3000606858B3FFF7DCFB0646286810F4003FE7
:101A400017D036E0286810F4003F32D0606880BBC1
:101A50000120BDE8F883286840F480302860E7E77B
:101A6000286840F480202860286840F4803028608E
:101A7000DEE7FFF7BDFB801B642802D90320BDE829
:101A8000F883286810F4003FF3D012E0FFF7B0FBB2
:101A90000646286810F4003F0BD0FFF7A9FB801B17
:101AA000642802D90320BDE8F883286810F4003FB9
:101AB000F3D1207810F0020F5ED0B8683D4600F0F8
:101AC0000C00E96801F003010C2801D102290FD0B4
:101AD00004280DD0E068B8B3286840F4807028600E
:101AE000FFF786FB0646286810F4806F18D023E0C5
:101AF000286810F4806F01D0E06870B16868217CBC
:101B000020F0FE4040EA01606860B6480068FFF7D8
:101B10008DFB88B30120BDE8F8830120BDE8F88380
:101B2000FFF766FB801B022802D90320BDE8F8837B
:101B3000286810F4806FF3D06868217C20F0FE40A4
:101B400040EA0160686017E0FFE7286820F48070D1
:101B50002860FFF74DFB0646286810F4806F0BD015
:101B6000FFF746FB801B022802D90320BDE8F8835B
:101B7000286810F4806FF3D1207810F0080F3AD065
:101B80006069E0B1D7F894003D4640F00100C7F825
:101B90009400FFF72DFB0646D5F8940010F0020FD5
:101BA00029D1FFF725FB801B022802D90320BDE8BD
:101BB000F883D5F8940010F0020FF2D01BE0D7F8AC
:101BC00094003D4620F00100C7F89400FFF710FB99
:101BD0000646D5F8940010F0020F0CD0FFF708FB72
:101BE000801B022802D90320BDE8F883D5F89400B1
:101BF00010F0020FF2D1207810F0040F7BD04FF0DC
:101C00000008B86D10F0805F09D1B86D40F08050C9
:101C1000B865B86D00F0805000904FF00108724D2B
:101C2000286810F4807F16D1286840F480702860FE
:101C3000FFF7DEFA0646286810F4807F0BD1FFF725
:101C4000D7FA801B022802D90320BDE8F883286850
:101C500010F4807FF3D0A06801281AD005281FD087
:101C6000D7F8900020F00100C7F89000D7F8900056
:101C700020F00400C7F89000A06841F2883650B305
:101C8000FFF7B6FA0546D7F8900010F0020F14D00F
:101C900037E0D7F8900040F00100C7F89000EBE77C
:101CA000D7F8900040F00400C7F89000D7F89000F3
:101CB00040F00100C7F89000DEE7FFF799FA401BFB
:101CC000B04202D90320BDE8F883D7F8900010F0A5
:101CD000020FF2D015E0FFF78BFA0546D7F8900017
:101CE00010F0020F0DD0FFF783FA401BB04203D96A
:101CF0000320BDE8F8830BE0D7F8900010F0020F46
:101D0000F1D1B8F1010F03D1B86D20F08050B86562
:101D1000207810F0200F3AD0A069E0B1D7F89800F1
:101D20003D4640F00100C7F89800FFF761FA06460B
:101D3000D5F8980010F0020F29D1FFF759FA801B4F
:101D4000022802D90320BDE8F883D5F8980010F0E6
:101D5000020FF2D01BE0D7F898003D4620F00100BA
:101D6000C7F89800FFF744FA0646D5F8980010F037
:101D7000020F0CD0FFF73CFA801B022802D9032087
:101D8000BDE8F883D5F8980010F0020FF2D1E069B1
:101D900060B3B9683D460C2232EA01014FF0FF38CA
:101DA00078D0022823D0286820F080702860E86866
:101DB00020F00300E860E86820F4881020F08070CC
:101DC000E860FFF715FA0446286810F0007F0DD090
:101DD000FFF70EFA001B022857D90320BDE8F8834D
:101DE00000100240240000200070004083E02868BA
:101DF00020F080702860FFF7FBF90646286810F095
:101E0000007F0AD0FFF7F4F9801B022801D90320D4
:101E1000E4E7286810F0007FF4D1616A206A491E67
:101E200040EA0110A16A228E090208EB520241EA3F
:101E30004251084394F8341008EB510140EA4160E4
:101E400094F82C1040EAC160E9682C4A114008431C
:101E5000E860286840F080702860E86840F0807092
:101E6000E860FFF7C5F90446286810F0007F42D10A
:101E7000FFF7BEF9001B022801D90320AEE728684E
:101E800010F0007FF4D036E004E0286810F0007F06
:101E90009ED130E001282CD0E868226A00F00301CE
:101EA000914224D1626A00F0F001521EB1EB021F90
:101EB0001DD1A26A00F4FE41B1EB022F17D194F8B4
:101EC0002C1000F07842B2EBC16F10D1228E00F4DA
:101ED000C00108EB5202B1EB425F08D194F8341014
:101EE00000F0C06008EB5101B0EB416F03D001205E
:101EF00074E7012072E7002070E700000C809F016A
:101F0000401EB0F1807F01D3012070474FF0E021E7
:101F10004861044AF02010700020886107200861A1
:101F20000020704723ED00E07047704770470000C5
:101F300070B490F83C20012A4CD0012280F83C205B
:101F4000CA684FF0000C8B6822F440721A434B6849
:101F500022F480621A430B6822F400621A430B6970
:101F600022F480521A434B6922F400521A430B6B3D
:101F700022F480421A430B8B22F4702242EA03427D
:101F8000164C0368164DA34201D0AB4203D1CE6973
:101F900022F080523243A34201D0AB4214D10E8DC5
:101FA00022F4700242EA06520E6A22F08072324334
:101FB0004E6A22F000723243A34201D0AB4203D1F9
:101FC000C96A22F000520A435A6480F83CC070BCCF
:101FD0000020704770BC022070470000002C0140B8
:101FE000003401407047704770470000F0B490F82B
:101FF0003C20012A3ED0012480F83C40022280F897
:102000003D2003685A68D3F808C01C4D1C4EAB42F3
:1020100001D0B34203D122F470024F683A4322F058
:10202000700222F000720F683A435A600268AA42B6
:1020300013D0B2F1804F10D0A2F18043B3F580638A
:102040000BD0A2F18043B3F5006306D0B24204D0B6
:10205000A2F18043B3F5A03304D12CF0800389684A
:102060001943916080F83D40002180F83C10F0BC9D
:1020700000207047F0BC022070470000002C014097
:1020800000340140704710B50446002C03D094F88A
:102090003D0010B107E0012010BD002084F83C0095
:1020A000204600F023F8022084F83D00211D20681E
:1020B00001F0CAFC012084F8480084F83E0084F84E
:1020C0003F0084F8400084F8410084F8420084F81E
:1020D000430084F8440084F8450084F8460084F8FE
:1020E000470084F83D00002010BD000008B5114AEB
:1020F00001681148914211D1816D41F0040181655F
:10210000806D002200F00400009011461E20FFF7B1
:10211000DDF8BDE808401E20FFF7CAB8074A914223
:1021200007D1016E41F480210166006E00F4802029
:10213000009008BD00080040001002400048014027
:1021400070B5044694F83C00012817D0012584F8A6
:102150003C50022084F83D002068826822F077021B
:1021600022F4441222F47F4282600868B0F5805F56
:1021700063D010DC10F00F0F03D05EE04FF00200D0
:1021800070BD4FEA2012082A57D2DFE802F0515101
:10219000515147333D1B2C4BC21A984248D00ADCA0
:1021A000B0F5005F1AD0B0F1101F41D0A0F580113A
:1021B000203942D13CE0102A3AD0302A38D0402A87
:1021C0003BD135E0CB684A688968206801F0A3FC00
:1021D0002068816841F0770181602EE0CB684A6811
:1021E0008968206801F097FC2068816841F480418B
:1021F000816022E0CA684968206801F054FE5021DD
:10220000206801F093FC18E0CA684968206801F072
:102210005DFE6021206801F089FC0EE0CA68496813
:10222000206801F040FE4021206801F07FFC04E0BE
:1022300022680146104601F079FC84F83D500020E8
:1022400084F83C0070BD000030001000704770B58D
:102250000446206801694FF0000511F0020F17D005
:10226000C16811F0020F13D0E91E0161012020772F
:102270002068806910F0030F03D02046FFF7E6FFC7
:1022800005E0204600F010F9204600F0D9F9257746
:102290002068016911F0040F18D0C16811F0040F13
:1022A00014D06FF00401016102202077206880695A
:1022B00010F4407F03D02046FFF7C8FF05E020461A
:1022C00000F0F2F8204600F0BBF92577206801699C
:1022D00011F0080F18D0C16811F0080F14D06FF07A
:1022E00008010161042020772068C06910F0030F05
:1022F00003D02046FFF7AAFF05E0204600F0D4F8FF
:10230000204600F09DF925772068016911F0100F33
:1023100018D0C16811F0100F14D06FF010010161D6
:10232000082020772068C06910F4407F03D0204641
:10233000FFF78CFF05E0204600F0B6F8204600F0DD
:102340007FF925772068016911F0010F09D0C16874
:1023500011F0010F05D06FF001010161204600F07E
:10236000E1F92068016911F0800F09D0C16811F00E
:10237000800F05D06FF0800101612046FFF7D5FD89
:102380002068016911F4807F09D0C16811F0800FC5
:1023900005D06FF4807101612046FFF7C5FD20680C
:1023A000016911F0400F09D0C16811F0400F05D04C
:1023B0006FF040010161204600F0B5F92068016925
:1023C00011F0200F09D0C16811F0200F05D06FF077
:1023D000200101612046FFF7A9FD2068016911F481
:1023E000801F09D0C16811F4801F05D06FF48011DF
:1023F00001612046FFF7F7FD2068016911F4001F15
:1024000009D0C16811F4001F05D06FF400110161FB
:102410002046FFF7E7FD2068016911F4800F09D01D
:10242000C16811F4800F05D06FF48001016120466E
:10243000FFF7DAFD2068016911F4000F0BD0C168C5
:1024400011F4000F07D06FF4000101612046BDE8D0
:102450007040FFF717BE70BD10B586B0044614215A
:102460006846FDF70DFF0E492068884216D10D48D9
:10247000C16C41F00101C164C06C694600F001000B
:10248000059080200090022001900020029003908F
:10249000012004904FF09040FEF77CFD06B010BD87
:1024A0000048014000100240704770B504460D46D8
:1024B00094F83C0001280BD0012084F83C000C2A41
:1024C0004AD007DC5AB1042A1DD0082A43D12FE094
:1024D000022070BD102A54D0142A7AD165E0294612
:1024E000206801F02DFB2068816941F008018161BD
:1024F0002068816921F004018161206881692A696D
:102500001143816165E02946206801F06DFB206878
:10251000816941F4006181612068816921F48061F1
:102520008161206881692A6941EA0221816150E064
:102530002946206801F0A6FB2068C16941F0080126
:10254000C1612068C16921F00401C1612068C169CD
:102550002A691143C1613CE02946206801F0E0FB93
:102560002068C16941F40061C1612068C16921F43A
:102570008061C1612068C1692A6941EA0221C161A3
:1025800027E02946206801F019FC2068016D41F020
:10259000080101652068016D21F0040101652068D2
:1025A000016D2A691143016513E02946206801F095
:1025B0003FFC2068016D41F4006101652068016DF8
:1025C00021F4806101652068016D2A6941EA0221D8
:1025D0000165002084F83C0070BD10B50446002C55
:1025E00003D094F83D0010B107E0012010BD002099
:1025F00084F83C00204600F022F8022084F83D00D8
:10260000211D206801F020FA012084F8480084F898
:102610003E0084F83F0084F8400084F8410084F8CC
:10262000420084F8430084F8440084F8450084F8AC
:10263000460084F8470084F83D00002010BD704734
:102640007047000010B5044600290DD004290ED0B3
:1026500008290FD00C2910D0102911D094F843006C
:10266000012810D0012010BD94F83E00F8E794F83E
:102670003F00F5E794F84000F2E794F84100EFE7F7
:1026800094F84200ECE70220D1B304293CD0082999
:102690003DD00C293ED010293FD084F843000122C0
:1026A000206801F029FA2068A0F18041B1F5963147
:1026B00013D0A0F18041B1F59A310ED0A0F1804144
:1026C000B1F5A03109D0A0F18041B1F5A23104D01B
:1026D000A0F18041B1F5A43103D1416C41F4004136
:1026E0004164206881680E4A1140062906D0B1F580
:1026F000803F03D0016841F001010160002010BD5E
:10270000FFE784F83E00CAE784F83F00C7E784F893
:102710004000C4E784F84100C1E784F84200BEE706
:10272000070001007047704790F87C10012918D00D
:10273000012180F87C102421C0F8801001680A680B
:102740000B6823F001030B6022F000510022426667
:10275000036819602021C0F8801080F87C200020D8
:10276000704702207047704770B5044694F87C00AB
:1027700001281DD0012084F87C002420C4F88000AA
:1027800020680568026822F0010202602068826801
:1027900022F0606211438160204601F0A9FB2068AD
:1027A00005602020C4F88000002084F87C0070BD03
:1027B000022070BD70B5044694F87C0001281DD03D
:1027C000012084F87C002420C4F88000206805687B
:1027D000026822F0010202602068826822F06042F2
:1027E00011438160204601F083FB206805602020B2
:1027F000C4F88000002084F87C0070BD022070BD09
:10280000704770477047000070B504462368D86968
:1028100019689A6800F00F0CBCF1000F0FD110F08E
:10282000200F0CD001F0200502F08056354306D071
:10283000E16E00297ED02046BDE870400847BCF11B
:10284000000F78D0DFF898C101F4907502EA0C0C03
:102850005CEA05056FD010F0010F0AD011F4807FFB
:1028600007D001251D62D4F8883043F00103C4F875
:10287000883010F0020F0BD012F0010F08D025683D
:1028800002232B62D4F8883043F00403C4F8883064
:1028900010F0040F0BD012F0010F08D025680423AC
:1028A0002B62D4F8883043F00203C4F8883010F06B
:1028B000080F0FD001F0200353EA0C030AD0D4F81C
:1028C00000C00823CCF82030D4F8883043F0080347
:1028D000C4F88830D4F88830002B36D010F0200FA0
:1028E00009D001F0200002F08051084303D0E16ECE
:1028F00009B120468847D4F888002168896811F01A
:10290000400F02D110F0080F24D0204601F042FC05
:102910002068816811F0400F18D0816821F04001D3
:102920008160A06F70B12F498163A06FFEF7B1F98C
:10293000002801E009E014E007D0A06F816BBDE83A
:10294000704008472046FFF75DFF70BD2046FFF747
:1029500059FF70BD2046FFF755FF0020C4F88800DE
:1029600070BD10F4801F0AD012F4800F07D04FF40E
:10297000801018622046BDE87040FFF742BF10F09B
:10298000800F0CD001F0800302F400021A4306D03D
:10299000216F0029E4D02046BDE87040084710F0C0
:1029A000400F07D011F0400F04D02046BDE8704022
:1029B00001F002BC10F4000F07D011F0804F04D0DA
:1029C0002046BDE87040FFF71BBF10F0807FC7D0E6
:1029D00011F0004FC4D02046BDE87040FFF7C3BEE1
:1029E00001000010A740000810B50446002C03D0D9
:1029F000D4F8800010B107E0012010BD002084F859
:102A00007C00204600F028F82420C4F880002068CC
:102A1000016821F001010160204601F0E9FB012875
:102A200018D0A06A10B1204601F09EFA20684168D3
:102A300021F4904141602068816821F02A01816081
:102A40002068016841F0010101602046BDE81040A6
:102A500001F0F6BA012010BDF0B587B0064614218A
:102A60006846FDF70DFC2E493068884256D12D4846
:102A7000016E41F480410166016E01F480410591CF
:102A8000C16C41F00101C164C06C002400F0010080
:102A900005904FF4C06000900220CDE901040720AA
:102AA000CDE9034069464FF09040FEF773FA1F4DA1
:102AB0001D48802728601820C5E90104C5E903479F
:102AC00020206C61C5E90640C00128622846FEF757
:102AD00097F908B1FEF7CFF8B567AE62134D12480B
:102AE0006035143028601920686005F10801102055
:102AF00081E891006C61AC61EC6128462C62FEF7C4
:102B00007FF908B1FEF7B7F8756700221146252056
:102B1000AE62FEF7DBFB2520FEF7CAFB07B0F0BD77
:102B20000038014000100240080002401403002059
:102B300070B50446D4F88400202801D0022070BD6E
:102B4000002932D0002A30D094F87C0001282ED001
:102B5000012084F87C00A165A4F85C200025C4F85D
:102B600088502220C4F88400A06F10B31A49C162B3
:102B7000A16F1A480863A16F19484863A06F856365
:102B80002068D4F858C000F1240113466246A06FB3
:102B9000FEF79EF968B11020C4F8880084F87C50D4
:102BA0002020C4F88000012070BD012070BD0220EB
:102BB00070BD84F87C502068016841F48071016028
:102BC0002068816841F0010181602068816841F0DE
:102BD00040018160002070BD0F4100084F41000896
:102BE000BB4000080549064B88794A791A54401CB5
:102BF00088710122491D0348FFF79ABF0800002091
:102C000030000020880200207047000070B50446A4
:102C1000D4F88000202801D0022070BD002933D0D4
:102C2000002A31D094F87C0001282FD0012084F8AC
:102C30007C002165A4F85420A4F856200025C4F88F
:102C400088502120C4F88000606F08B31649C16223
:102C5000616F16480863616F15484863606F85634C
:102C60002068134600F1280C6246216D606FFEF764
:102C70002FF968B11020C4F8880084F87C50202017
:102C8000C4F88000012070BD012070BD022070BD1D
:102C900021684020086284F87C502068816841F0F7
:102CA00080018160002070BD594100088B410008FF
:102CB000BB40000870477047FEE70000064900204F
:102CC00000EB00120A44127C002A04D0401CC0B25F
:102CD0000828F5D3FF207047B900002070B5094DD2
:102CE0000646002404EB041041193046491DFDF747
:102CF000D9FA28B1641CE4B2082CF3D3FF2070BDCC
:102D0000204670BDB900002010488079162814D1E3
:102D10000F480178432901D056290ED141784E2918
:102D20000BD18178422908D1C178522905D1017986
:102D30003A2902D1407A3A2801D0002070470A206F
:102D4000401CC0B21628FBD30120704708000020A9
:102D500030000020294810B50168294C6269891AA1
:102D60000A2943D30068606100F050F825480078D4
:102D7000C10703D0E178D1B30021E170E17839B324
:102D80008207B6EE000A0BD5D4ED030A70EE800A76
:102D9000C4ED030AD4ED020A70EE800AC4ED020A03
:102DA000420715D5D4ED030A4FF07C5310EE902A5C
:102DB0009A4203DB70EEC00AC4ED030AD4ED020AA6
:102DC00010EE902A9A4203DB30EEC00A84ED020A2C
:102DD000000703D5207980F00100207151B100F087
:102DE000CBFB2179084801B16421016010BDFFE7E8
:102DF0000121C2E7FDF75AFDF3E700002C00002097
:102E000008000020060000203448014070B5114C35
:102E100001212046FEF7DEF9054602212046FEF795
:102E2000D9F945EA400504212046FEF7D3F945EAE1
:102E3000800401214FF09040FEF7CCF9064944EAA6
:102E4000C00040F0F0004A78C04320EA02020A7055
:102E5000487070BD000400480600002000B585B031
:102E600014216846FDF70CFA4FF6FF700090002021
:102E70000321CDE90201019069460248FEF78AF874
:102E800005B000BD0008004800B585B014216846B3
:102E9000FDF7F6F94FF6FF70009001200190032036
:102EA00003900020029069460248FEF773F805B0CF
:102EB00000BD00000008004870B500240646214609
:102EC000204600F003F900F041F94FF49635304602
:102ED00000F010F9641CAC42F9D370BD30B587B076
:102EE00014216846FDF7CCF91E48C16C41F004017D
:102EF000C164C16C01F004010591C16C41F0010194
:102F0000C164C16C01F001010591C16C41F0020185
:102F1000C164C06C012500F0020005904FF44870B8
:102F2000CDE9000500240394694602940E48FEF79B
:102F300031F8280203940090CDE901544FF09044F9
:102F400069462046FEF726F8FFF79EFFA06940F489
:102F50008070A06104481830016841F40871016074
:102F600007B030BD0010024000040048203AD2B241
:102F7000034B02EB420203EB021200F019B800000F
:102F800044570008F0B50E460746002540F23F14AE
:102F900007E021463846FFF7E9FF103C6D1CA4B25C
:102FA000761C3278002A01D0142DF2D3F0BD000037
:102FB0002DE9F04791468A460026044600F086F83F
:102FC000DFF84080012700BF00F0C0F85FF0000587
:102FD00039F8160007FA05F10842404601D1408849
:102FE00000E0008800F086F86D1C102DF0D3641C02
:102FF000E4B25146204600F069F8761C182EE3D35F
:10300000BDE8F0870000002010B5FFF767FF002043
:1030100000F014F8084CA080A088A0F502413039D7
:1030200006D000F0B6FB002000F008F8A08010BD2C
:1030300000F026FBF7E700000000002070B51D49F6
:103040000A6842F400720A600A6842F480720A60F8
:10305000184C103C226842F020022260164A106090
:10306000086840F02000086000BF00BF00BF206873
:1030700040F020002060206840F480702060FFF75E
:10308000EDFE4FF09041886A40F48070886200BF86
:1030900000BF00BF0848001F006885B2886940F47F
:1030A00080708861FFF7F0FE206840F400702060B7
:1030B000284670BD280400481408004801B5BDF832
:1030C00000000149488008BD0000002010B50C46F2
:1030D0000146202000F068F82146BDE8104021207C
:1030E00000F062B801B5BDF800000149088008BDD4
:1030F00000000020134A116841F400711160114969
:1031000010390B6843F480730B600B6843F02003A5
:103110000B600D4B1860106840F02000106000BF7D
:1031200000BF00BF086840F020000860086840F455
:103130008070086000BF00BF00BF086840F40070E6
:1031400008607047280400481408004814490868BB
:1031500040F400700860086840F48070086010480F
:103160001038026842F0200202600E4B22221A60E0
:103170000A6842F020020A6000BF00BF00BF016879
:1031800041F020010160016841F48071016000BFDD
:1031900000BF00BF016841F400710160704700008A
:1031A0002804004814080048184B10B51A6842F467
:1031B00000721A601A6842F480721A60134A103A58
:1031C000146844F020041460114C2060186840F02A
:1031D0002000186000BF00BF00BF106840F0200052
:1031E0001060106840F4807010602160186840F032
:1031F0002000186000BF00BF00BF106840F0200032
:103200001060106840F48070106010BD2804004801
:103210001408004870B5124D044601224FF47F4156
:103220002846FDF7DEFF0F4E012204213046FDF750
:10323000D8FF002204213046FDF7D3FF21020022EF
:103240002846FDF7CEFF012204213046FDF7C9FFD5
:103250003046BDE8704000220421FDF7C2BF0000E7
:1032600000080048000C00480B4801468278C979E4
:1032700012B141F0010101E021F00101C1710179B8
:103280000029C17902D041F0020101E021F00201E0
:10329000C171C8B2FFF7BEBF08000020114808B5D1
:1032A000816C41F004018164816C01F004010091A2
:1032B000816C41F001018164806C002200F001000A
:1032C000009001210B20FEF701F80B20FDF7F0FF25
:1032D000002201210C20FDF7F9FFBDE808400C2079
:1032E000FDF7E6BF001002402DE9F04F87B0142132
:1032F0006846FCF7C5FF4048C16C41F00401C16459
:10330000C16C01F004010591C16C41F02001C16460
:10331000C16C01F020010591C16C41F00101C16453
:10332000C16C01F001010591C16C41F00201C16461
:10333000C16C01F002010591C16C41F00801C1644A
:10334000C06CDFF8B88000F008004FF6FF740590FD
:10335000002221464046FDF744FF4FF480764FF0AF
:103360009049002231464846FDF73BFFDFF890A028
:10337000002204215046FDF734FFDFF888B04FF4F7
:103380004877002239465846FDF72BFF0125CDE945
:10339000004500240294694640460394FDF7FAFD77
:1033A000CDE90054694648460294FDF7F3FD072035
:1033B000CDE90004694658460294FDF7EBFD0096FE
:1033C000CDE90154694648460394FDF7E3FD042026
:1033D0000090CDE90154694650460394FDF7DAFDAB
:1033E0000097CDE90154694658460394FDF7D2FD94
:1033F00007B0BDE8F08F0000001002400008004850
:10340000000C00480004004810B594B01C210DA821
:10341000FCF736FF34216846FCF732FF20481F498D
:10342000002401604F21C0E9011440F2F311C0E90A
:1034300003148021C0E90541FEF725FE08B1FDF720
:103440001AFC1748FFF7C9F808B1FDF714FC602013
:10345000CDE90D040F9410941194129400220DA93B
:103460000F481394FFF721F808B1FDF704FC00940E
:103470004FF40050CDE90440019402940394069463
:10348000694607480C94FEF753FD08B1FDF7F3FBBE
:103490000348FEF7E1FF14B010BD000000480140F2
:1034A0003C02002010B588B0002417480094019415
:1034B00002940394049405941249069401604F21E8
:1034C000C0E9011442F20F71C0E903148461FEF7F0
:1034D000DAFD08B1FDF7CFFB4FF48050009069464C
:1034E0000948FEF72DFE08B1FDF7C5FB049404A9B9
:1034F00005480694FEF77AFD002801D0FDF7BBFBD6
:1035000008B010BD00080040F0010020184810B5B8
:10351000164901604FF416514160002181600C2270
:10352000C160C0E904128161C161016241628162CE
:10353000FFF75AFA08B1FDF79EFB00210C48FFF790
:1035400039F908B1FDF797FB00210948FFF70CF99D
:1035500008B1FDF790FB0648FFF7E6F8002803D016
:10356000BDE81040FDF787BB10BD000000380140EA
:1035700088020020FEE7704710B586B014A118201D
:10358000FFF700FD174CE068FCF79AFE41EC100BCA
:1035900015A153EC102B684601F01EFC694648202B
:1035A000FFF7F0FCA068FCF78BFE41EC100B14A1B8
:1035B00053EC102B684601F00FFC69467820FFF7AA
:1035C000E1FC15A1A820FFF7DDFC06B010BD00004E
:1035D00020202020202050617261202020202020E7
:1035E0002020200008000020202020434E42523A94
:1035F000252E3266202020202020202000000000E0
:10360000202020564E42523A252E3266202020207D
:10361000202020200000000020202020202020202A
:103620002020202020202020202020007047000083
:103630001049C86800F00302C868C0F30310401CBA
:10364000032A0ED00C4AB2FBF0F0CA68C2F306227D
:103650005043C968C1F34161491C4900B0FBF1F016
:103660007047064AB2FBF0F0CA68C2F30622504324
:10367000EFE70000001002400024F40000366E0165
:1036800030B501210020FFF78FFD4FF47A70FDF770
:10369000E4FA00210120FFF787FD41F2907110202C
:1036A000FFF782FD4FF41C516020FFF77DFD0121E3
:1036B0006120FFF779FD02214620FFF775FD48F2F2
:1036C00010011320FFF770FD48F2FE011220FFF7F2
:1036D0006BFD4FF4A0610220FFF766FD41F230015F
:1036E0000320FFF761FD40F2033421463020FFF74D
:1036F0005BFD21463120FFF757FD21463220FFF7C1
:1037000053FDE51E29463320FFF74EFD03213420EB
:10371000FFF74AFD21463520FFF746FD14213620EC
:10372000FFF742FD21463720FFF73EFD21463820B6
:10373000FFF73AFD21463920FFF736FD29463A20AA
:10374000FFF732FD03213B20FFF72EFD21463C20F1
:10375000FFF72AFD4FF4A0513D20FFF725FD4FF460
:1037600000719220FFF720FD21469320FFF71CFDFA
:1037700040F60D019020FFF717FD41F218010320DC
:10378000FFF712FDBDE8304040F273110720FFF74C
:103790000BBD10B543F20801E320FFF705FD122130
:1037A000E720FFF701FD41F23121EF20FFF7FCFC9C
:1037B00000210120FFF7F8FC4FF4E0610220FFF741
:1037C000F3FC41F230010320FFF7EEFC002104205E
:1037D000FFF7EAFC40F207210820FFF7E5FC002193
:1037E0000920FFF7E1FC00210A20FFF7DDFC0021A2
:1037F0000C20FFF7D9FC00210D20FFF7D5FC00219C
:103800000F20FFF7D1FC00211020FFF7CDFC07218E
:103810001120FFF7C9FC00211220FFF7C5FC002191
:103820001320FFF7C1FCC820FDF7A0FB41F2906117
:103830001020FFF7B9FC40F227211120FFF7B4FC5C
:103840003220FDF793FB1D211220FFF7ADFC322043
:10385000FDF78CFB4FF400611320FFF7A5FC14214A
:103860002920FFF7A1FC0B212B20FFF79DFC322024
:10387000FDF77CFB00212020FFF796FC0021212092
:10388000FFF792FC07213020FFF78EFC40F2077112
:103890003120FFF789FC06213220FFF785FC40F23A
:1038A00004713520FFF780FC41F604713620FFF7E4
:1038B0007BFC04213720FFF777FC00213820FFF73D
:1038C00073FC40F206713920FFF76EFC40F2017183
:1038D0003C20FFF769FC0F213D20FFF765FC00212C
:1038E0005020FFF761FCEF215120FFF75DFC002124
:1038F0005220FFF759FC40F23F115320FFF754FCD0
:103900004FF41C516020FFF74FFC01216120FFF7AD
:103910004BFC00216A20FFF747FC00218020FFF7C5
:1039200043FC00218120FFF73FFC00218220FFF7AC
:103930003BFC00218320FFF737FC00218420FFF7A8
:1039400033FC00218520FFF72FFC10219020FFF78A
:103950002BFC00219220FFF727FC03219320FFF787
:1039600023FC4FF488719520FFF71EFC002197205F
:10397000FFF71AFC00219820FFF716FC41F218010E
:103980000320FFF711FCBDE8104040F2731107203F
:10399000FFF70ABC7047FDF731BC10B5A4B0382161
:1039A0006846FCF76DFC14211FA8FCF769FC442154
:1039B0000EA8FCF765FC4FF40070FDF7CDFC02206B
:1039C000C1010391402104910090079008901421B7
:1039D000CDE909010B900C900D906846FDF7FEFFB4
:1039E0000F201F9000240320CDE9200401462294DB
:1039F0001FA82394FDF78AFE0120CDE90E040EA82E
:103A0000FDF718FD24B010BD0548016841F47001B0
:103A1000016003494FF00060803908607047000082
:103A200088ED00E00148FEF712BC000058010020BC
:103A30000148FEF70CBC0000A40100200148FEF77D
:103A400006BC0000F00100202DE9F0010268234CC3
:103A5000234BDFF89080DFF890C0A04208D0B0F18F
:103A6000804F05D0984203D0404501D0604503D136
:103A700022F070024D682A431C4D1D4E1D4FA0427E
:103A80000ED0B0F1804F0BD0984209D0404507D0FE
:103A9000604505D0A84203D0B04201D0B84203D15E
:103AA00022F44072CB681A434B6922F080021A4319
:103AB00002608A68C2620A688262A04207D06045DA
:103AC00005D0A84203D0B04201D0B84201D1096963
:103AD000016301214161BDE8F0017047002C014004
:103AE0000004004000080040003401400040014054
:103AF000004401400048014001F01F0101238B40B8
:103B0000D0F820C02CEA03030362036A02FA01F131
:103B1000194301627047D0F808C02CF47F4C42EA88
:103B20000322114341EA0C0181607047826822F050
:103B3000700222F44012114341F007018160704786
:103B40002DE9F003026A22F001020262026A436870
:103B5000D0F818C02CF0700C2CF4803C2CF0030C26
:103B60000C6844EA0C0C22F002028C682243194CC7
:103B7000194D1A4E1A4FDFF86C80A04207D0A842A8
:103B800005D0B04203D0B84201D0404507D122F061
:103B90000802D1F80C9049EA020222F00402A04285
:103BA00007D0A84205D0B04203D0B84201D040456A
:103BB00007D123F4807323F400734C6923438C6989
:103BC00023434360C0F818C0496841630262BDE8FE
:103BD000F0037047002C01400034014000400140D8
:103BE000004401400048014070B4026A22F0100213
:103BF0000262036A4268D0F818C02CF4E04C2CF042
:103C0000807C2CF4407C0C684CEA042C23F02003CC
:103C10008C6843EA0413194C194DA04201D0A84204
:103C200006D123F08003CE6843EA061323F0400355
:103C3000A04210D0A8420ED0A0F18044B4F5A03428
:103C400009D0A0F18044B4F5A23404D0A0F180449E
:103C5000B4F5A43409D122F4806222F400624C69E4
:103C600042EA84028C6942EA84024260C0F818C0C9
:103C700049688163036270BC70470000002C0140FA
:103C80000034014070B4026A22F480720262036A56
:103C90004268D0F81CC02CF0700C2CF4803C2CF046
:103CA000030C0C6844EA0C0C23F400738C6843EAA0
:103CB0000423194C194DA04201D0A84206D123F487
:103CC0000063CE6843EA062323F48063A04210D049
:103CD000A8420ED0A0F18044B4F5A03409D0A0F1E0
:103CE0008044B4F5A23404D0A0F18044B4F5A434E7
:103CF00009D122F4805222F400524C6942EA0412A3
:103D00008C6942EA04124260C0F81CC04968C16371
:103D1000036270BC70470000002C01400034014079
:103D200070B4026A22F480520262036A4268D0F8D8
:103D30001CC02CF4E04C2CF0807C2CF4407C0C68F3
:103D40004CEA042C23F400538C6843EA0433194CE6
:103D5000194DA04201D0A84206D123F40043CE68F9
:103D600043EA063323F48043A04210D0A8420ED089
:103D7000A0F18044B4F5A03409D0A0F18044B4F59A
:103D8000A23404D0A0F18044B4F5A43409D122F4C3
:103D9000804222F400424C6942EA84128C6942EA71
:103DA00084124260C0F81CC049680164036270BCA0
:103DB00070470000002C01400034014010B4026A3A
:103DC00022F480320262D0F820C04268036D23F0F2
:103DD000700323F480330C6823432CF4003C0C89DB
:103DE0004CEA044CA0F18044B4F5963413D0A0F111
:103DF0008044B4F59A340ED0A0F18044B4F5A034D8
:103E000009D0A0F18044B4F5A23404D0A0F18044DC
:103E1000B4F5A43404D122F480324C6942EA04227D
:103E20004260036549688164C0F820C010BC7047D7
:103E300010B4026A22F480120262D0F820C04268F4
:103E4000036D23F4E04323F080730C6843EA0423FA
:103E50002CF4001C0C894CEA045CA0F18044B4F5FD
:103E6000963413D0A0F18044B4F59A340ED0A0F16A
:103E70008044B4F5A03409D0A0F18044B4F5A23454
:103E800004D0A0F18044B4F5A43404D122F48022FB
:103E90004C6942EA8422426003654968C164C0F803
:103EA00020C010BC7047036AD0F820C02CF0010C71
:103EB000C0F820C0D0F818C02CF0F00C4CEA021268
:103EC00023F00A031943826101627047036A23F0F9
:103ED00010030362D0F818C0036A2CF4704C4CEA4B
:103EE000023223F0A00343EA0111826101627047AC
:103EF00010B485B018A14A6809680392029118A10C
:103F00004A68096801920091416E00291CD002683C
:103F10009168C1F342619268520F02AB13F802C07C
:103F20001DF802204FEACC04B4FBF2F2EC46A0F8F4
:103F30006A205A5C1CF80110D200B2FBF1F1A0F823
:103F4000681005B010BC70470121A0F86A10A0F8F5
:103F5000681005B010BC70470101010307010000A3
:103F6000080402040801010190F8281011F0010F63
:103F700006D001684A68C36A22F400321A434A60D4
:103F800090F8281011F0020F06D001684A68036B00
:103F900022F480321A434A6090F8281011F0040F7E
:103FA00006D001684A68436B22F480221A434A60B3
:103FB00090F8281011F0080F06D001684A68836B4A
:103FC00022F400421A434A6090F8281011F0100FB2
:103FD00006D001688A68C36B22F480521A438A6053
:103FE00090F8281011F0200F06D001688A68036C41
:103FF00022F400521A438A6090F8281011F0400F02
:1040000011D001684A68436C22F480121A434A6056
:10401000416CB1F5801F06D101684A68836C22F4B7
:10402000C0021A434A6090F8281011F0800F06D0A1
:1040300001684A68C06C22F400221043486070474F
:10404000F8B504460026C4F88860FDF7D1F80746A5
:10405000206800686FF07E4510F0080F0AD03B46DC
:1040600000224FF400112046009500F071FE08B1C7
:104070000320F8BD2068006810F0040F0AD03B460A
:1040800000224FF480012046009500F061FE08B147
:104090000320F8BD2020C4F88000C4F8840084F810
:1040A0007C600020F8BD10B5806A0021A0F85E1089
:1040B000A0F85610FEF7A6FB10BD70B5846AD4F8C0
:1040C0008000D4F88450216889684FF0000611F010
:1040D000800F06D0212804D1A4F85660204600F0B5
:1040E00079F82068806810F0400F06D0222D04D1A6
:1040F000A4F85E60204600F04DF8D4F8880040F047
:104100001000C4F888002046FEF77CFB70BD10B597
:104110000146886A0968096811F0200F14D100214E
:10412000A0F85E1001680A6822F480720A600168D3
:104130008A6822F001028A6001688A6822F04002DF
:104140008A602021C0F88410FEF74CFD10BD10B528
:10415000806AFEF759FD10BD10B50146886A0968EE
:10416000096811F0200F02D0FEF7A4FD10BD002158
:10417000A0F8561001688A6822F080028A60006800
:10418000016841F04001016010BD10B5806AFEF782
:1041900092FD10BD01680A6822F490720A600168FD
:1041A0008A6822F0010222F080528A602021C0F841
:1041B00084100021C166704710B501680A6822F0BA
:1041C00040020A602021C0F8801000210167FEF73C
:1041D00071FD10BD01680A6822F0C0020A60016822
:1041E0008A6822F400028A602021C0F8801070479B
:1041F0002DE9F0470446002600270020FE4B2168E9
:10420000D4F810C0A268E56942EA0C02D4F814C0E0
:104210004CEA050C42EA0C02D4F864C04CEA0202F3
:10422000D1F800C0F54D0CEA050C4CEA02020A6018
:1042300021684A68D4F80CC022F4405242EA0C02C9
:104240004A60A16922689A4203D0D4F820C04CEA9F
:104250000101D2F808C02CF4306C2CF06E4C4CEA02
:10426000010191602168CA6AD4F824C022F00F02CB
:1042700042EA0C02CA622268E149A2F1804CBCF514
:104280009C3C20D0A2F1804CBCF5884C30D0A2F1EF
:10429000804CBCF5904C40D0A2F1804CBCF5984CC1
:1042A00050D09A426BD1D1F8881011F440615ED0A1
:1042B000B1F5806F5FD0B1F5006F5AD0B1F5406FA6
:1042C0005BD010255CE0D1F8881011F0030107D015
:1042D000012909D0022905D0032907D010254FE074
:1042E00001254DE002254BE0042549E0082547E083
:1042F000D1F8881011F00C0107D0042909D0082941
:1043000005D00C2907D010253AE0002538E0022519
:1043100036E0042534E0082532E0D1F8881011F0A9
:10432000300107D0102909D0202905D0302907D025
:10433000102525E0002523E0022521E004251FE0CB
:1043400008251DE0D1F8881011F0C00107D04029E0
:1043500009D0802905D0C02907D0102510E00025FC
:104360000EE002250CE004250AE0082508E00025FF
:1043700006E0022504E0042502E0082500E01025FF
:10438000DFF880A24FF400414FF000089A4240F05D
:104390003582ADB1022D4BD0042D6FD0082D6ED0DB
:1043A0000127002800F0C884D4F8049009EB4901E3
:1043B000814202D8B0EB093F71D9012700F0BCBCA3
:1043C000FDF7ACFA0146606AC8B1012819D002288D
:1043D00019D0032819D0042819D0052819D0062887
:1043E00019D0072819D0082819D0092819D00A2867
:1043F00019D00B2819D00120B1FBF0F0D1E7012032
:10440000FAE70220F8E70420F6E70620F4E70820A0
:10441000F2E70A20F0E70C20EEE71020ECE720207E
:10442000EAE74020E8E78020E6E74FF48070E3E722
:10443000606AC8B1012819D0022819D0032819D000
:10444000042819D005281BD006281BD007281BD00C
:1044500008281BD009281BD00A281BD00B281BD0EA
:104460000120BAFBF0F09CE70120FAE70220F8E710
:104470000420F6E70620F4E70820F2E710E047E022
:104480000A20EEE70C20ECE71020EAE72020E8E71E
:104490004020E6E78020E4E74FF48070E1E76CE03D
:1044A000FDF760FA0146606AC8B1012819D00228F8
:1044B00019D0032819D0042819D0052819D00628A6
:1044C00019D0072819D0082819D0092819D00A2886
:1044D00019D00B2819D00120B1FBF0F061E70120C1
:1044E000FAE70220F8E70420F6E70620F4E70820C0
:1044F000F2E70A20F0E70C20EEE71020ECE720209E
:10450000EAE74020E8E78020E6E74FF48070E3E741
:10451000606AC8B1012819D0022819D0032819D01F
:10452000042819D0052819D0062819D0072819D031
:10453000082819D0092819D00A2819D00B2819D011
:104540000120B1FBF0F02CE70120FAE70220F8E7A8
:104550000420F6E70620F4E70820F2E70A20F0E757
:104560000C20EEE71020ECE72020EAE74020E8E707
:104570008020E6E74FF48070E3E77DB1022D61D043
:10458000042D7CD0082D7BD001271F49A6F5407053
:10459000884276D82068C66000F0CEBBFDF7BEF931
:1045A0000146606A90B3012835D0022835D003282F
:1045B00035D0042835D0052835D0062835D0072831
:1045C00035D0082835D0092835D00A2835D00B2811
:1045D00035D00122002308461946FBF719FE0902CF
:1045E000626841EA106103025008181841EB0801A3
:1045F0000023FBF70DFE0AE000800040F369FFCFC7
:10460000001002400024F400FFFC0F0001E0064609
:10461000BBE70122DEE70222DCE70422DAE706221A
:10462000D8E70822D6E70A22D4E70C22D2E71022E4
:10463000D0E72022CEE74022CCE78022CAE74FF421
:104640008072C7E7606A70B301282FD002282FD08C
:1046500003282FD004282FD005282FD006282FD0AC
:1046600007282FD008282FD009282FD00A282FD08C
:104670000B282FD0012200235046194602E02CE0DF
:1046800073E0B9E0FBF7C4FD090241EA10610202E0
:104690004FEA5900101841EB08014A460023FBF786
:1046A000B7FD064671E7FFE70122E4E70222E2E7F1
:1046B0000422E0E70622DEE70822DCE70A22DAE746
:1046C0000C22D8E71022D6E72022D4E74022D2E7F6
:1046D0008022D0E74FF48072CDE7FDF743F9014621
:1046E000606A48B3012829D0022829D0032829D09C
:1046F000042829D0052829D0062829D0072829D020
:10470000082829D0092829D00A2829D00B2829D0FF
:104710000122002308461946FBF77AFD0902626868
:1047200041EA106103025008181841EB0801002308
:10473000FBF76EFD064628E70122EAE70222E8E7DA
:104740000422E6E70622E4E70822E2E70A22E0E79D
:104750000C22DEE71022DCE72022DAE74022D8E74D
:104760008022D6E74FF48072D3E7606A58B30128FD
:104770002BD002282BD003282BD004282BD005289F
:104780002BD006282BD007282BD008282BD009287F
:104790002BD00A282BD00B282BD0012200234FF43A
:1047A00000401946FBF734FD090241EA106102029C
:1047B0004FEA5900101841EB08014A460023FBF765
:1047C00027FD0646E1E60122E8E70222E6E70422A9
:1047D000E4E70622E2E70822E0E70A22DEE70C220D
:1047E000DCE71022DAE72022D8E74022D6E7802251
:1047F000D4E74FF48072D1E701279DE2E0694FF6DC
:10480000EF79B0F5004F08D0092D74D2DFE805F03C
:10481000F4F3F273F1737373F000092D6CD2DFE8D7
:1048200005F00544856BC16B6B6BEC00FDF776F80A
:104830000146606A00B3012820D0022820D0032856
:1048400020D0042820D0052820D0062820D00728F2
:1048500020D0082820D0092820D00A2820D00B28D2
:1048600020D00120B1FBF0F04100606801EB500165
:10487000B1FBF0F086B217E10120F3E70220F1E787
:104880000420EFE70620EDE70820EBE70A20E9E740
:104890000C20E7E71020E5E72020E3E74020E1E7F0
:1048A0008020DFE74FF48070DCE7FDF749F8014630
:1048B000606A10B3012822D0022822D0032822D017
:1048C000042822D0052822D0062822D0072822D06A
:1048D000082822D0092822D00A2822D00B2822D04A
:1048E0000120B1FBF0F04100606801EB5001B1FB29
:1048F000F0F086B2D8E016E2D5E00120F1E7022020
:10490000EFE70420EDE70620EBE70820E9E70A20BF
:10491000E7E70C20E5E71020E3E72020E1E740206F
:10492000DFE78020DDE74FF48070DAE7606A00B3EC
:10493000012820D0022820D0032820D0042820D00D
:10494000052820D0062820D0072820D0082820D0ED
:10495000092820D00A2820D00B2820D00120BAFB1B
:10496000F0F04100606801EB5001B1FBF0F086B25D
:104970009AE00120F3E70220F1E70420EFE70620A8
:10498000EDE70820EBE70A20E9E70C20E7E7102035
:10499000E5E72020E3E74020E1E78020DFE74FF470
:1049A0008070DCE7FCF7DEFF0146606A30B3012867
:1049B00026D0022826D0032826D0042826D0052871
:1049C00026D0062826D0072826D0082826D0092851
:1049D00026D00A2826D00B2826D00120B1FBF0F0E3
:1049E0004100606801EB5001B1FBF0F086B25BE082
:1049F0005EE11FE1E3E0A4E065E018E00120EDE7FF
:104A00000220EBE70420E9E70620E7E70820E5E7D6
:104A10000A20E3E70C20E1E71020DFE72020DDE7B4
:104A20004020DBE78020D9E74FF48070D6E7606A4A
:104A300000B3012820D0022820D0032820D0042849
:104A400020D0052820D0062820D0072820D00828EC
:104A500020D0092820D00A2820D00B2820D00120DF
:104A6000B1FBF0F04100606801EB5001B1FBF0F0E8
:104A700086B219E00120F3E70220F1E70420EFE716
:104A80000620EDE70820EBE70A20E9E70C20E7E73E
:104A90001020E5E72020E3E74020E1E78020DFE782
:104AA0004FF48070DCE70127A6F11000484508D8D4
:104AB0004FF6F0703040C6F3420108432168C860E9
:104AC0003AE1012738E1FCF729FF0146606AF8B1B5
:104AD00001281FD002281FD003281FD004281FD070
:104AE00005281FD006281FD007281FD008281FD050
:104AF00009281FD00A281FD00B281FD00120B1FB86
:104B0000F0F1606801EB5001B1FBF0F086B20BE10F
:104B10000120F4E70220F2E70420F0E70620EEE7A8
:104B20000820ECE70A20EAE70C20E8E71020E6E797
:104B30002020E4E74020E2E78020E0E74FF48070A7
:104B4000DDE7FCF7FDFE0146606AF8B101281FD0E1
:104B500002281FD003281FD004281FD005281FD0EB
:104B600006281FD007281FD008281FD009281FD0CB
:104B70000A281FD00B281FD00120B1FBF0F160687C
:104B800001EB5001B1FBF0F086B2CDE00120F4E77B
:104B90000220F2E70420F0E70620EEE70820ECE729
:104BA0000A20EAE70C20E8E71020E6E72020E4E707
:104BB0004020E2E78020E0E74FF48070DDE7606AA4
:104BC000F8B101281FD002281FD003281FD00428C5
:104BD0001FD005281FD006281FD007281FD008285F
:104BE0001FD009281FD00A281FD00B281FD0012052
:104BF000BAFBF0F1606801EB5001B1FBF0F086B256
:104C000092E00120F4E70220F2E70420F0E706201A
:104C1000EEE70820ECE70A20EAE70C20E8E710209E
:104C2000E6E72020E4E74020E2E78020E0E74FF4D9
:104C30008070DDE7FCF796FE0146606AF8B1012856
:104C40001FD002281FD003281FD004281FD00528FA
:104C50001FD006281FD007281FD008281FD00928DA
:104C60001FD00A281FD00B281FD00120B1FBF0F164
:104C7000606801EB5001B1FBF0F086B254E0012016
:104C8000F4E70220F2E70420F0E70620EEE7082030
:104C9000ECE70A20EAE70C20E8E71020E6E720200E
:104CA000E4E74020E2E78020E0E74FF48070DDE7B2
:104CB000606AF8B101281FD002281FD003281FD036
:104CC00004281FD005281FD006281FD007281FD072
:104CD00008281FD009281FD00A281FD00B281FD052
:104CE0000120B1FBF0F1606801EB5001B1FBF0F085
:104CF00086B219E00120F4E70220F2E70420F0E791
:104D00000620EEE70820ECE70A20EAE70C20E8E7B7
:104D10001020E6E72020E4E74020E2E78020E0E7FB
:104D20004FF48070DDE70127A6F11000484502D856
:104D30002068C66000E001270120A4F86A00A4F8FA
:104D40006800C4F86C80C4F870803846BDE8F0870D
:104D50002DE9F0410446069D884617461E46206808
:104D6000C06938EA000016D00020B84210D1B5F171
:104D7000FF3F05D0FCF73CFA801BA8420DD865B177
:104D80002068C06938EA00001CD00020B842EED08C
:104D90000020BDE8F0810120E7E72068016821F4E8
:104DA000D07101602068816821F0010181602020BC
:104DB000C4F88000C4F88400002084F87C0003203C
:104DC000BDE8F0810120E1E70148FDF71DBD0000CD
:104DD00088020020FEE700000FB4084B10B504A9BC
:104DE00002AA039800F0DEF8044602A9002000F0B1
:104DF00070FC204610BC5DF814FB0000D356000880
:104E000002E008C8121F08C1002AFAD17047704793
:104E1000002001E001C1121F002AFBD170470000F1
:104E20002DE9FF5F82B00021DDE90430020DDDF8DD
:104E300040B0034318D044F61050A2F2FF32424370
:104E40001514119801281FD0A5EB0B00401C5FEA38
:104E5000000A4FF000064E4FDFF83891B04650463A
:104E600015D5CAF1000413E0119801244AA30128C2
:104E700001D16FEA0B010298119AC0E90031C0E933
:104E8000024206B0BDE8F09FCBF10000DFE7044628
:104E90000021404A491842EB0450CDE9001012E0CD
:104EA000E00707D032463B4640464946FBF7F7FA53
:104EB0008046894632463B4610461946FBF7EFFAD4
:104EC00006460F466410002CEAD1DDE90401DDE955
:104ED0000023BAF1000F06DAFBF7E1FA42464B462F
:104EE000FBF7DDFA05E0FBF74CFB42464B46FBF7D0
:104EF00048FB04460E460022284BFBF7C9FB03D8AB
:104F00004FF0FF30014607E00022254B2046314696
:104F1000FBF71EFAFBF7A4FB102409E0002C0ADBC8
:104F20000A220023FBF774F9039B30321A55641EE2
:104F300050EA0102F2D1641C039AC4F11103144433
:104F4000119A012A03D0012208430DD10AE0084337
:104F500004D000204FF0110B119072E7A3EB0B056A
:104F60006D1E0DE05B4504DD4FF0000205F101050B
:104F700004E003DA4FF00002A5F10105002AECD0AD
:104F800002981199C0E90231C0E9004579E70000B3
:104F9000000014400000F03F300000000000F0432B
:104FA0000000E03F2DE9FF4F95B09B46894606463D
:104FB00000250FE2252877D100242746F84A012151
:104FC000059400E0044316F8013F203B01FA03F08A
:104FD0001042F7D130782A2811D06FF02F033078A3
:104FE000A0F13002092A16D8059A44F0020402EB17
:104FF000820203EB42021044761C0590EFE759F859
:10500000042B0592002A03DA504244F40054059020
:1050100044F00204761C30782E2816D116F8010FC1
:1050200044F004042A280DD06FF02F023078A0F14C
:105030003003092B09D807EB870302EB4303C7189A
:10504000761CF3E759F8047B761C30786C280FD077
:1050500006DC4C2817D068280DD06A2814D104E04B
:10506000742810D07A280FD10DE044F400140AE01F
:1050700044F4801401E044F440147278824202D176
:1050800004F58014761C761C307866280BD013DC6F
:10509000582877D009DC002875D04528F6D0462856
:1050A000F4D047281AD19DE118E0632835D0642850
:1050B00079D0652812D195E1702873D008DC672873
:1050C000F1D069286FD06E280DD06F2806D1B5E0D9
:1050D00073282CD0752875D0782874D05A46179923
:1050E00090476D1C75E1C4F30250022809D00328D3
:1050F0000DD0D9F8001004280DD00D6009F1040975
:1051000067E1D9F80010EA17C1E90052F6E7D9F8CB
:1051100000100D80F2E70D70F0E719F8041B8DF810
:10512000001000208DF80100EA46012003E059F844
:1051300004AB4FF0FF3061074FF0000102D40DE0E7
:1051400008F101018846B9420FDA8045F8DB1AF808
:1051500008100029F4D108E008F1010188468142D5
:10516000FADB1AF808100029F6D105985B46A0EB87
:10517000080721463846179A00F094FA284400EBB5
:10518000080507E04DE029E10DE01AF8010B5A4649
:1051900017999047B8F10108F7D25B462146384687
:1051A000179A13E142E00A220092C4F302524FF030
:1051B000000A022A08D059F804CB032A4FEAEC71FE
:1051C0000AD00DE029E02AE009F1070121F00702E9
:1051D000F2E802C1914609E00FFA8CFC4FEAEC714B
:1051E000042A03D14FFA8CFC4FEAEC71002907DA4C
:1051F0000A460021DCF1000C61EB02012D2202E0E5
:10520000220504D52B228DF80420012203E0E207B9
:1052100001D02022F7E7904659E00A2102E010224F
:105220000DE010214FF0000A00910BE010224FF02A
:10523000000A44F004040827009203E008224FF01B
:10524000000A0092C4F30252022A05D059F804CB96
:105250000021032A08D009E009F1070121F0070223
:10526000F2E802C1914605E01FFA8CFC042A01D144
:105270000CF0FF0C4FF00008220728D5702806D04C
:10528000009B83F0100353EA0A0305D00EE040228E
:105290008DF80420012208E05CEA010206D03022E9
:1052A0008DF804208DF8050002229046009B83F0C3
:1052B000080353EA0A030AD15CEA010201D162073A
:1052C00005D530228DF804204FF001087F1E5828A4
:1052D00004D034A003900EA802900DE036A0F9E7A8
:1052E00053466046009AFAF793FF84460398825C1F
:1052F0000298401E029002705CEA0100F0D1029810
:1053000006A9081A00F1200A600702D524F48034A7
:1053100000E00127574502DDA7EB0A0000E000206E
:1053200000EB0A01009005984144401A0590E00303
:1053300006D45B462146179A059800F0B3F9054458
:10534000002706E001A85A46C05D179990476D1CDA
:105350007F1C4745F6DBE0030CD55B462146179AD8
:10536000059800F09FF9054404E030205A4617994B
:1053700090476D1C0099481E00900029F5DC08E05C
:10538000029802995A460078491C02911799904751
:105390006D1CBAF10001AAF1010AF1DC65E100001F
:1053A00009280100303132333435363738396162FB
:1053B00063646566000000003031323334353637BF
:1053C00038394142434445460000000000F058F996
:1053D0000544761C307800287FF4ECAD19B02846DF
:1053E000BDE8F08F620700D4062709F1070222F01A
:1053F000070CFCE80223E14603F000485FEA080CD2
:1054000002D00FF2702C0DE05FEA045C02D50FF2BF
:10541000682C07E05FEAC47C02D00FF2602C01E048
:10542000AFF2700C4FF0FF3823F00043CDF850C0BE
:1054300065280CD006DC452809D046281DD0472811
:105440003DD13DE0662818D067287ED138E00021A4
:10545000112F01DB112000E0781CCDE9000106A925
:105460000EA8FFF7DDFCDDE90F010E9A0391002184
:10547000009207F1010A04914DE04FF000400097BF
:10548000CDE9011006A90EA8FFF7CAFCDDE90F025D
:1054900003920E9B11990022DDF80CA00093049258
:1054A00011B9791C00EB010AB7EB0A0004D4C0F172
:1054B000FF3007F1010A0490AAEB0700019044E0D5
:1054C000012F00DA01270021112F01DD112000E05A
:1054D0003846CDE9000106A90EA8FFF7A1FCDDE9D9
:1054E0000F010E9A0391002104910092BA46210700
:1054F0000CD40399514500DA8A46BAF1010F05DD53
:10550000009AAAF10101515C302908D0B84202DAB0
:1055100010F1040F06DA0121CDE9011015E0AAF11E
:105520000101E9E7002805DC049901440491AAEB94
:10553000000102E0411C514500DD8A460499401AF1
:10554000401C01904FF000400290200704D40198C5
:10555000504501DBCDF8048000208DF84F00029803
:105560000DF14F07B0F1004F25D02B200E9002987F
:105570004FF0020800280CDA404202902D200E90D5
:1055800007E00A210298FAF7AEFE3031029007F8E0
:10559000011DB8F10001A8F10108F2DC0298002811
:1055A000EFD1791E0E980870307800F0200040F09E
:1055B000450007F8020D12A8C01B00F10708149857
:1055C000007800B1012000EB0A01019801EBE071C5
:1055D00005984144401A401E0590E00306D45B46FE
:1055E0002146179A059800F05DF805441498007854
:1055F00018B15A46179990476D1CE00324D55B46B5
:105600002146179A059800F04DF805441CE00498CF
:10561000002807DBDDE90301884203DD0098405CD8
:10562000179901E0179930205A469047049805F1E0
:105630000105401C04900198401E019004D12E20C9
:105640005A46179990476D1CBAF10001AAF1010A58
:10565000DDDC05E017F8010B5A46179990476D1CE1
:10566000B8F10001A8F10108F4DC5B462146179A65
:105670000598ABE62D0000002B0000002000000084
:105680002DE9F041044600251E461746880404D43F
:1056900005E039462020B0476D1C641EF9D5284628
:1056A000BDE8F0812DE9F041044600251E469046F4
:1056B000C80301D5302700E02027880404D505E081
:1056C00041463846B0476D1C641EF9D52846BDE8F2
:1056D000F0810A68531C0B6010707047FBF796FD51
:1056E000FEF75BF9FDF700FEFDF7D8FDFDF70EFFB5
:1056F000FDF7D8FEFDF788FE00210F48FCF7A2FF5A
:10570000FDF782FC0020FDF7D7FB0020FDF7D6FC5B
:105710004FF6FF70FDF7E6FC012208490848FDF747
:1057200007FA0020FDF776FDFDF714FBFBF70CF9F7
:10573000FDF79AFDF8E700003C0200200D00002074
:1057400088020020000000000000000000000000AF
:105750000000000000000000000000000000000049
:105760000000000000000000000000000000000039
:1057700000000000000080018001800180018001A4
:105780008001800180018001800180018001800111
:105790000000000080018001000000000000000007
:1057A0000000000000000000CC00CC00CC00CC00C9
:1057B000CC00CC0000000000000000000000000051
:1057C00000000000000000000000000000000000D9
:1057D00000000000000000000000000000000000C9
:1057E000600C600C600C30063006FE1FFE1F300699
:1057F00038071803FE1FFE1F180318038C018C01C5
:105800008C01000000008000E003F80F9C0E8C1C4F
:105810008C188C009800F801E007800E801C8C1812
:105820008C189C18B80CF00FE0038000800000007A
:10583000000000000000000000000E181B0C110CFE
:1058400011061106110311039B018E01C038C06CB3
:1058500060446044304430441844186C0C380000F4
:10586000000000000000E001F003380718061806E9
:105870003003F001F000F8009C310E33061E061CC8
:10588000061C063FFC73F021000000000000000031
:1058900000000000000000000C000C000C000C00D8
:1058A0000C000C00000000000000000000000000E0
:1058B00000000000000000000000000000000000E8
:1058C000000000000000000200038001C000C000D2
:1058D00060006000300030003000300030003000E8
:1058E0003000300060006000C000C0008001000394
:1058F00000020000000020006000C0008001800164
:10590000000300030006000600060006000600066D
:10591000000600060003000380018001C000600053
:105920002000000000000000000000000000000057
:10593000C000C000D806F807E001300338070000B7
:105940000000000000000000000000000000000057
:105950000000000000000000000000000000000047
:1059600080018001800180018001FC3FFC3F8001BB
:105970008001800180018001000000000000000023
:105980000000000000000000000000000000000017
:105990000000000000000000000000000000000007
:1059A0000000000000008001800100010001800073
:1059B00000000000000000000000000000000000E7
:1059C000000000000000000000000000E007E00709
:1059D00000000000000000000000000000000000C7
:1059E00000000000000000000000000000000000B7
:1059F00000000000000000000000000000000000A7
:105A0000000000000000C000C00000000000000016
:105A1000000000000000000C000C0006000600065C
:105A20000003000300038003800180018001C000A7
:105A3000C000C00060006000000000000000000026
:105A4000000000000000E003F007380E180C0C18EE
:105A50000C180C180C180C180C180C180C180C1826
:105A6000180C380EF007E0030000000000000000F2
:105A700000000000000000018001C001F001980159
:105A80008801800180018001800180018001800106
:105A90008001800180018001000000000000000002
:105AA000000000000000E003F80F180C0C180C18A0
:105AB00000180018000C000600038001C000600000
:105AC00030001800FC1FFC1F000000000000000058
:105AD000000000000000E001F807180E0C0C0C0C90
:105AE000000C0006C003C007000C001800180C18BA
