:020000040800F2
:100000000009002099020008D34000088F3700083B
:10001000D140000895160008F349000800000000D0
:10002000000000000000000000000000EB4300089A
:100030005317000800000000D5400008ED430008F9
:10004000B3020008B3020008B3020008B3020008BC
:10005000B3020008B3020008B3020008B3020008AC
:10006000B3020008B3020008B302000899160008A2
:10007000A5160008B3020008B3020008B302000886
:10008000B302000800000000B3020008B302000839
:10009000B3020008B3020008B3020008B30200086C
:1000A000B302000881440008B3020008B30200084C
:1000B0008D44000899440008B3020008B302000808
:1000C000B3020008B3020008B3020008B30200083C
:1000D000B3020008B3020008B3020008B30200082C
:1000E000B3020008B3020008B3020008B30200081C
:1000F000B3020008B3020008B302000800000000C9
:1001000000000000B302000800000000B302000875
:10011000B302000800000000B3020008B3020008A8
:10012000B3020008B3020008B3020008B3020008DB
:10013000B30200080000000000000000B302000845
:10014000B3020008B3020008000000000000000035
:10015000000000000000000000000000000000009F
:10016000000000000000000000000000B3020008D2
:10017000B3020008000000000000000000000000C2
:1001800000000000B30200080000000000000000B2
:10019000000000000000000000000000000000005F
:1001A0000000000000000000B3020008B3020008D5
:1001B000B3020008B3020008B30200080000000008
:1001C00000000000B3020008000000000000000072
:1001D000B3020008B302000800F002F800F04CF887
:1001E0000AA090E8000C82448344AAF10107DA4592
:1001F00001D100F041F8AFF2090EBAE80F0013F098
:10020000010F18BFFB1A43F001031847AC6200004E
:10021000CC620000103A24BF78C878C1FAD85207DF
:1002200024BF30C830C144BF04680C607047000070
:100230000023002400250026103A28BF78C1FBD8EF
:10024000520728BF30C148BF0B607047662904F0D1
:10025000F787642900F05480002070471FB504F030
:10026000EAFF00F0C1FB04000020002104F020FCA4
:10027000E0601FBD10B510BD00F0B6FC1146FFF7E1
:10028000EDFF04F0E7FB00F0D4FC03B4FFF7F2FF4E
:1002900003BC00F017FD00000948804709480047EB
:1002A000FEE7FEE7FEE7FEE7FEE7FEE7FEE7FEE726
:1002B000FEE7FEE704480549054A064B7047000083
:1002C00065440008D901000800030020000900204F
:1002D00000050020000500200FB41CB5074B06AA3E
:1002E0007B4469460090059800F065FB0020694654
:1002F00000F074FB1CBC5DF814FB0000F906000064
:100300002DE9F0410646002410687529314616A5EE
:1003100010D0AFF30080002802DA404213A507E0B6
:1003200031688A0701D512A502E0490704D511A555
:10033000012401E0AFF3008000210A2206F1240726
:1003400009E0B0FBF2FCB0FBF2F302FB1C00303022
:1003500078541846491C0028F3D123462A463046D3
:10036000BDE8F04100F0B9B8000000002D00000029
:100370002B000000200000002DE9F0474FF0000A9C
:1003800089460446C0F820A02046E1688847002836
:1003900076D0252806D0D4E901219047206A401C58
:1003A0002062F1E7E168204600258847C4F81CA0D8
:1003B00006460027C4F818A02A2E09D0304604F0BB
:1003C00041FB38B304EB8708303EC8F8186019E0E9
:1003D00059F8041B204604EB87029161E1688847C5
:1003E000012F064618D1E069002820DA25F0200503
:1003F0001DE0D8F8180000EB800006EB4000303814
:10040000C8F818002046E1688847064604F01AFB41
:100410000028EED1012F0AD02E2E08D12046E16807
:1004200088477F1C0646022F45F02005C4DBA069E3
:10043000002803DA404245F00105A061E80701D039
:1004400025F01005B6B1A6F14100192802D82036D2
:1004500045F400654A463146204625604D46FFF783
:10046000F5FE58B1012806D0ED1D25F0070000F17A
:10047000080989E704E005F1040985E730468AE7C1
:10048000206ABDE8F0874FF0000200B5134694469D
:100490009646203922BFA0E80C50A0E80C50B1F1DC
:1004A0002001BFF4F7AF090728BFA0E80C5048BFF0
:1004B0000CC05DF804EB890028BF40F8042B08BF8E
:1004C000704748BF20F8022B11F0804F18BF00F88A
:1004D000012B70477047704770472DE9F0470D4674
:1004E00099469246044600F124080168880604D51E
:1004F000E06921F01001216000E00120A84201DD47
:10050000471B00E00027A1697A1902EB0900081ACD
:10051000A0612078C00602D42046AFF300800026F8
:1005200008E0D4E901211AF806009047206A401C2F
:10053000761C20624E45F4DB2078C0060AD52046A2
:10054000AFF3008006E0D4E9012130209047206A13
:10055000401C2062381EA7F10107F4DC07E0D4E953
:10056000012118F805009047206A401C2062281ECF
:10057000A5F10105F3DC2046AFF3008020780006EA
:1005800002D50220BDE8F0870120FBE770472DE986
:10059000FF4F0C461E464FF0FF378BB0D2E90001EB
:1005A000DDF860800A908A46C1F30A5505B93D46D8
:1005B000002108464FF00000BAF1000F00F440009F
:1005C00005DA00EB80004FF4400101EA50004FEAE9
:1005D0009059B9F1010F00DDB9460A9850EA4A0076
:1005E0000ED044F61050A5F2FF3545432F14B8F154
:1005F000000F1ED07542291E1EDDC9F100021CE04D
:10060000B8F1010F4FF0000001D0302103E0F243B8
:1006100005E02154401CB042FBDB304600220021A3
:1006200021540B99C1F80880C1E900200FB0BDE842
:10063000F08FBD1B6D1CDEE74A4600DA694206A852
:1006400000F05CFA06AB93E8070003AB83E8070011
:1006500050460A9900F03DFB8DE80700A0F50050D8
:100660001F3800900398002D0ADD42F21F014A4610
:100670000844002303A90390684600F0A6FD09E0A2
:10068000A0F500504A461F38002303A9039068468E
:1006900000F0B0FD8DE807000004000C03D04FF01F
:1006A000FF30410800E01046B8F1000F03D00022EF
:1006B000009215461EE0751E05D400F099F93032FF
:1006C00062556D1EF9D5B3460122084302D00022BF
:1006D0007F1C04E02078302801D100227F1E002AF0
:1006E000099784D01DE0112D07DA00F081F930322E
:1006F00062556D1C50EA0102F5D1084302D0009802
:10070000C8B10EE00021681E05E0235C625C635402
:100710002254401E491C8142F7DBAB46A81B401EF9
:100720000990002004F80B000B98099AC0F8088083
:10073000C0E9002B7AE711264FF0000857E72DE9B2
:10074000F04F88460446D21D22F0070191B0D1E94E
:100750000001CDE90A0104F04DF902460B98C00FE3
:1007600001D02D2007E02068810701D52B2002E071
:10077000202101EAC000032A099001D0072A05DBE5
:1007800003464146204600F079F90BE120788006C7
:1007900001D5E06900E00620B8F1650F814606D07A
:1007A000B8F1660F18D0B8F1670F70D131E00020B2
:1007B000B9F1110F009001DB112301E009F10103F0
:1007C0000AAA01A90CA8FFF7E2FEDDE90C700026D9
:1007D00009F10105834647E001204B4600904FF0A8
:1007E00000470AAA01A90CA8FFF7D1FEDDE90DB068
:1007F0000C995D46002610B909F101000D18B9EBFE
:10080000050003D4C0F1FF3609F10105A5EB09008D
:100810002BE0B9F1010F01DA4FF001090020B9F125
:10082000110F0090484601DD112300E003460AAA9B
:1008300001A90CA8FFF7ABFEDDE90C704D460026C0
:100840008346207800070AD4AB4500DA5D4601A84C
:10085000012D04DD411911F8011C302907D04F4545
:1008600002DA17F1040F04DA012082460FE06D1E50
:10087000EEE7002F02DCED1B3E4403E0781CA842AB
:1008800000DD7D1CB81B00F1010A4FF00047207805
:10089000000703D4AA4501DB4FF0FF3A0021B7F16E
:1008A000004F0DF143088DF8431024D002202B2374
:1008B000002F01DA7F422D230A21021EA0F1010040
:1008C00000DC5FB197FBF1FC97FBF1F201FB1C7CB4
:1008D00017460CF1300C08F801CDEEE7A8F1010045
:1008E00003702188090501D5452100E06521A0F1AB
:1008F000010800F8011C09980FA9A1EB0807FF1DCA
:1009000000B10120411901EBEA70A1693844081ACD
:10091000401EA0612078C00602D42046AFF30080BC
:10092000099828B1D4E901219047206A401C20622F
:100930002078C00622D52046AFF300801EE0002EAE
:1009400004DBB34502DD01A8805D00E03020D4E97E
:1009500001219047206A401C2062761CAAF1010008
:100960005FEA000A0AD100F03FF8C0680168405C05
:10097000D4E901219047206A401C2062281EA5F17D
:100980000105DCDC07E0D4E9012118F8010B9047F0
:10099000206A401C2062381EA7F10107F3DC2046C4
:1009A000AFF30080032011B041E6000001694A1C4A
:1009B00002610878704700B58FB0CDE901310021A0
:1009C000059105497944CDE9031011466846FFF7C2
:1009D000D3FC0FB000BD0000E5FFFFFF0A6802F87E
:1009E000010B0A607047000000487047BC020020FD
:1009F00030B5B0F10A024FEA900E71F100034EEAF1
:100A0000817EB0EB0E0061EB91014FEA101E4EEAC1
:100A1000017E10EB0E0041EB11114FEA102E4EEA51
:100A2000016E10EB0E0041EB11214FEA104E4EEA21
:100A3000014E10EB0E0041EB1141401841F1000155
:100A40004FEAD00040EA41704FEAD10110EB800537
:100A50004FEA810444EA907444EB01046D1944EBBD
:100A60000404521BA3414FF0000348BF0A3200D5D3
:100A700030BD401C41F1000130BD00002DE9F041C6
:100A80001F46044603260168072A01F4006004DBC0
:100A900008B116A505E016A503E008B115A500E00C
:100AA00015A521F010002060A069C01EA0610FB143
:100AB000401EA0612046AFF300804FB1D4E9012170
:100AC00038469047206A401C2062C01C206206E025
:100AD000206AFAE7D4E9012115F8010B9047761E48
:100AE000F8D22046AFF30080BDE8F0814E414E00C1
:100AF0006E616E00494E4600696E66002DE9F04752
:100B0000814616468AB0354878440DC88DE80D00F8
:100B100032487844801C03AC0DC884E80D0041F6CF
:100B20009B300844372190FBF1F290FBF1F5A5F1E1
:100B3000800501FB12041B3C02D56442012000E049
:100B40000020DFF898A080460027FA44AAF1BE0AE8
:100B50000EE0E0070AD03246684607EB4701012362
:100B60000AEB810100F046FB8DE8070064107F1C52
:100B7000002CEED1194F7F44AE3F19E0E80715D0A5
:100B800007EB04100DF1180A90E80E008AE80E0039
:100B9000C068F04201D1981908903246012306A995
:100BA00003A800F027FB03AB83E807006D10641C6B
:100BB000002DE3D14FF0010332466946B8F1000F32
:100BC00003A802D000F001FB01E000F013FBC9E92B
:100BD0000001C9F808200AB0BDE8F0879459000068
:100BE000004870479C0200207546FFF7F9FFAE46AB
:100BF00005006946534620F00700854618B020B529
:100C0000FFF758FBBDE820404FF000064FF000070B
:100C10004FF000084FF0000B21F00701AC46ACE8A4
:100C2000C009ACE8C009ACE8C009ACE8C0098D4611
:100C3000704710B50446AFF300802046BDE8104071
:100C4000FFF723BB4FF0013C50F8042B51F8043B55
:100C50009A4221D1A2EB0C03934313EACC1317D190
:100C600050F8042B51F8043B9A4215D1A2EB0C0327
:100C7000934313EACC130BD150F8042B51F8043BE7
:100C80009A4209D1A2EB0C03934313EACC13DBD0B5
:100C90004FF00000704700BFD01A01BAB1FA81F1DD
:100CA00001F0180122FA01F0CB40C1F12001DBB2C2
:100CB000C0B2C01A2CFA01F3D11A914311EAC31140
:100CC000E6D1704701491820ABBEFEE726000200BE
:100CD00070475FEA400C08BF91F0000F4FEA8C2389
:100CE0004FEAC12243EA51514FEA1C5018BF00F5A8
:100CF000F0404FEA300018BF41F000415FEA6C5C01
:100D000000F02980BCF1FF3F08BF40F080407047F1
:100D1000130C06BF12044FF0100C4FF0000C130E12
:100D200004BF12020CF1080C130F04BF12010CF1E6
:100D3000040C930F04BF92000CF1020CD30F04BFFC
:100D400052000CF1010C11464FF00002A0F11F00FF
:100D5000A0EB0C00704711F0004F08BF704731F056
:100D600000413FF4D5AF0B0C06BF09044FF0100C47
:100D70004FF0000C0B0E04BF09020CF1080C0B0F16
:100D800004BF09010CF1040C8B0F04BF89000CF1A6
:100D9000020CCB0F04BF49000CF1010CCCF1200375
:100DA000A0EB0C0022FA03F302FA0CF241EA030171
:100DB00000F10100704720F07F4C80EA030023F02F
:100DC0007F47ACEB070303F57C5300F0004003F1D1
:100DD000FF032DE980494FEA154B09B44FEA14434C
:100DE00025EA0B4E24EA03480FF2042606EB1327EC
:100DF00049083E785FEA320203FB0667C7F5000741
:100E000007FB06F64FEA54374FEAD64606F10206CC
:100E100007FB066CCCF1005C4FEA1C472CEA074C40
:100E200007FB06F40CFB06F504EB15464FEA961695
:100E300034BF00204FF000404FEAD13706FB07FCDB
:100E40004FEA1C4C0CFB0BF7D21B03FB0CF761EBBE
:100E500007010CFB0EF7B0EB074072EB17420CFBDF
:100E600008F734BFA2EB0742B2EB074261EB174130
:100E70004FEA0C444FEA910706FB07FC4FEA1C4C73
:100E80000CFB0BF7B0EBC74072EB573203FB0CF7D0
:100E900034BFA2EBC742B2EBC74261EB57310CFB48
:100EA0000EF7B0EBC70072EB57720CFB08F734BFBC
:100EB000A2EBC702B2EBC70261EB5771039F4FEA87
:100EC000816141EA921104EBCC044FEAD1374FEA39
:100ED000826206FB07FC42EA90124FEA80604FEA0A
:100EE0001C4C0CFB0BF7D21B03FB0CF761EB07014F
:100EF0000CFB0EF7B0EB074072EB17420CFB08F748
:100F000034BFA2EB0742B2EB074261EB17414FEA55
:100F10008C554FEA910704EB9C2406FB07FC4FEA33
:100F20001C4C0CFB0BF7B0EBC74072EB573203FBCA
:100F30000CF734BFA2EBC742B2EBC74261EB5731AB
:100F40000CFB0EF7B0EBC70072EB57720CFB08F707
:100F500034BFA2EBC702B2EBC70261EB577115EBCE
:100F60004C254FEA816141EA92114FEA82624FEAD1
:100F7000D13742EA901206FB07FC44F100044FEA25
:100F800080604FEA1C4C0CFB0BF7D21B03FB0CF7E9
:100F900061EB07010CFB0EF7B0EB074072EB174259
:100FA0000CFB08F734BFA2EB0742B2EB074261EB40
:100FB000174115EB1C154FEA813141EA92414FEA86
:100FC000823242EA90424FEA80304FEA0C7644F196
:100FD000000448EA03434EEA0B484FF0000EB2EB20
:100FE000080C71EB030724BF624639464EEB0E0E28
:100FF0004FF0000B0018524149414BEB0B0BB2EB89
:10100000080C71EB03077BF1000B24BF62463946E5
:101010004EEB0E0E4FF0000B0018524149414BEBC6
:101020000B0BB2EB080C71EB03077BF1000B24BF39
:10103000624639464EEB0E0E51EA020718BF46F0E3
:10104000010616EB0E7655F1000254F1000103D5AE
:10105000BDE88901BDE80088BDE88901BDE8004818
:10106000B619524141EB0101A3F1010370478080A1
:101070007F7E7D7C7B7A79787776767574737271F2
:1010800071706F6E6E6D6C6C6B6A6A6968686766AA
:1010900066656464636362616160605F5F5E5E5D3C
:1010A0005D5C5C5B5B5A5A595958585757565655B0
:1010B00055555454535352525251515050504F4F12
:1010C0004F4E4E4D4D4D4C4C4C4B4B4B4A4A4A4962
:1010D00049494848484747474746464645454544A5
:1010E0004444444343434342424242414141002B32
:1010F0009C4630D477002BD01CB54FEA370703B499
:101100004FF010004FF01001BAF1000F06D0BCF103
:10111000000FDCBF40F0080040F008014FF0000075
:101120000FBCBDE810400BF1010BBBF1010F08BF74
:101130005FEA170722BF12F1010211F101014FF01E
:10114000004143F1000300F0004043EA0000704713
:10115000F9D35708D0E746EA064613F1400F4FEAA5
:1011600016461FDD13F1200FDFBF16430A4600218C
:1011700020335B42BED0C3F1200746EA064602FA9E
:1011800007F74FEA164646EA0706C3F1200722FA98
:1011900003F201FA07F721FA03F14FF0000342EAE4
:1011A0000702A7E746EA020646EA06464FEA16465F
:1011B00046EA0106BCBF46EA0646360C4FF000037D
:1011C0004FF000024FF0000194E72DE9804C9A4661
:1011D000934670B491E8380007C831EA400C48BF24
:1011E00034EA430C03D5FFF7E6FDFFF780FFF0BCC0
:1011F000BDE8008C2DE9804C9A46934670B491E886
:10120000380007C810F0804F08BF13F0804F03D19B
:1012100000F005F8FFF76BFFF0BCBDE8008C20F094
:101220007F4780EA030023F07F4C07EB0C03A3F514
:101230007C5300F00040A3F1FE0392F0000F00F099
:10124000B38095F0000F00F077802DE901494FEA57
:1012500011404FEA144621EA004800FB06FC24EA4C
:10126000064708FB06F607FB08F800FB07F718EB34
:1012700006484CEB164C4FEA124B18EB07484FEA66
:1012800015464CEB174022EA0B4E0BFB06FC25EAF9
:1012900006470EFB06F607FB0EFE0BFB07F71EEBE1
:1012A000064E4CEB164C4FF000061EEB074E4CEB77
:1012B000174B18EB0B0840F1000018EB0E0B58EB26
:1012C000000840F100008F1A4FF000013CBFC943F5
:1012D000661B14BFB5EB040C00213CBFC943F61BD1
:1012E0004FEA17444EEA8E0E27EA04454FEA1C47A0
:1012F00004FB07622CEA074C05FB07F70CFB05F61D
:1013000004FB0CFC16EB074642EB174216EB0C46AF
:1013100042EB1C421BEB060658EB0202414146EA37
:101320009E0601D5BDE80189B619524141EB010184
:10133000A3F10103BDE801894FEA14454FEA1147C3
:1013400024EA054621EA074C05FB07F406FB07F7EC
:101350000CFB06F105FB0CFC11EB074144EB1744B9
:101360004FEA124711EB0C4144EB1C4422EA074CB4
:1013700005FB07F206FB07F70CFB06F605FB0CFC6A
:1013800016EB074642EB174216EB0C4642EB1C45A8
:101390006A1854F1000148BF7047B619524141EB39
:1013A0000101A3F10103704795F0000F37D04FEA18
:1013B00011424FEA144721EA024624EA074C02FB95
:1013C00007F106FB07F70CFB06F402FB0CFC14EB21
:1013D000074441EB17414FEA154714EB0C4441EB2E
:1013E0001C4125EA074C02FB07F506FB07F70CFB3F
:1013F00006F602FB0CFC16EB074645EB174516EB11
:101400000C4645EB1C42121951F1000148BF7047D0
:10141000B619524141EB0101A3F1010370474FEAB4
:1014200014454FEA114724EA054621EA074C05FB1B
:1014300007F106FB07F70CFB06F24FF0000605FB71
:101440000CFC12EB074241EB174112EB0C4251EB43
:101450001C4148BF7047921841EB0101A3F1010301
:10146000704710B5846AE16D11F0500F06D0E16D40
:10147000C90625D5204600F08FFB10BDE06D40F475
:101480000070E06520680168090716D502F07EFC4F
:1014900078B12068C068800400280ADBE06D20F481
:1014A0008070E065E06DC00403D4E06D40F00100A1
:1014B000E065204600F06EFB10BDC0688007EBE7DA
:1014C000616D496BBDE81040084710B5806AC16D79
:1014D00041F04001C165016E41F00401016600F078
:1014E0005BFB10BD10B5806A00F055FB10BD00001D
:1014F00070B504460068816811F0010F28D1816839
:10150000144A114215D18168D5432940491C816094
:1015100000F008FF064616E0816811F0010F03D1C4
:1015200081682940491C816000F0FCFE801B022874
:1015300009D9E06D40F01000E065206E40F0010038
:101540002066012070BD20680168C943C907E3D146
:10155000002070BD3F00008010B541482DED068B86
:101560000168404C6268891A9FED3F9B9FED408B5C
:1015700032296ED300686060012204F118013E48F0
:1015800000F054FC94ED060A9FED3C1AB8EE400AB8
:10159000C0EE010A9FED3A0A20EE800A10EE100A12
:1015A00003F0D8FD41EC100B9FED361B84ED080BCA
:1015B00053EC112B03F0AEFC0AD294ED080B53EC64
:1015C000182B51EC100B03F06BFB01D82820A06006
:1015D00094ED080B53EC182B51EC100B03F09AFC14
:1015E0001DD294ED080B53EC192B51EC100B03F0AA
:1015F00057FB14D294ED080B53EC182B51EC100B45
:1016000003F0BEFC9FED21AB53EC1A2B03F084FBDF
:1016100053EC1A2B03F062FA03F014FBA06094ED74
:10162000080B53EC192B51EC100B03F073FC01D891
:101630005020A06094ED080B53EC182B51EC100BCC
:1016400003F068FC08D20120A070207820F001008F
:101650002070BDEC068B10BD0020A070F9E70000E3
:1016600038000020080000200000000000000040BA
:10167000000000000000F03F4000002000F07F4527
:101680003333534000000000000000000000000061
:1016900000004440FEE70000014800F03FBC0000AD
:1016A000AC000020014800F039BC00003C020020E2
:1016B0000D4902688A4201D20C4901E00B492031F0
:1016C000D2B21423083AB2FBF3F2436C02F01F02C9
:1016D00023F003031944816404498031C16401216A
:1016E0009140016570470000080402400008024074
:1016F0000179074A02EB81024265054A4432491EDC
:10170000826501F01F0201219140C1657047000010
:10171000FC08024030B5D0E913456560446D14B152
:10172000D0E91645656090F8444004F01F05012497
:10173000AC40056C6C60046863608368102B0368C0
:1017400003D099600068C26030BD9A600068C160D3
:1017500030BD7047002240F6B83306E00021491C36
:1017600089B29942FBD3521C92B28242F6D370479F
:10177000704700002DE9F84F00270446009790F8C5
:101780005800DFF8DC930D46B846012811D0012639
:1017900084F85860206802F0F5FA60B1E06D40F01E
:1017A0002000E0655FF0010784F858803846BDE806
:1017B000F88F0220FBE7D5E900210C23206803EA1B
:1017C00091131844036B01F01F014FF01F0C0CFA2A
:1017D00001FCC2F3846223EA0C038A4013430363CF
:1017E000206802F0CFFA8246206802F0C7FA5AEA6F
:1017F00000003CD1AA6829682068B2F1004F37D0B8
:1018000002F0CCFA2068416921F000414161206872
:101810006969C268C2F3C102520091402A69042A70
:1018200031D000EB82002B68026EDFF838C303F082
:10183000F84302EA0C020B431A4342F000410166EE
:1018400022682869A96902EB8000026E22F080728A
:101850000A430266297F20682A69012910D00021E5
:1018600000EB8200026E22F000720A4302667DE005
:10187000002202F093FA2068416941F00041C5E777
:101880004FF00071ECE7002102F072FA400320688B
:101890004FF0000172D002F06BFA90FAA0F0B0FAAB
:1018A00080F1286842036ED090FAA0F0B0FA80F080
:1018B000814204D100221146206802F07EFA012103
:1018C000206802F055FA400320684FF001015DD016
:1018D00002F04EFA90FAA0F0B0FA80F128684203C4
:1018E00059D090FAA0F0B0FA80F0814204D10022E1
:1018F0000121206802F061FA0221206802F038FA22
:10190000400320684FF0020148D002F031FA90FA0B
:10191000A0F0B0FA80F12868420344D090FAA0F019
:10192000B0FA80F0814204D100220221206802F046
:1019300044FA0321206802F01BFA400320684FF0AC
:10194000030133D002F014FA90FAA0F0B0FA80F15B
:10195000286842032FD090FAA0F0B0FA80F08142BC
:1019600004D100220321206802F027FA2068816850
:1019700011F0010F22D0ACE000E004E002F0F8F931
:10198000C0F384618DE7C0F3846091E702F0F0F961
:10199000C0F38461A2E7C0F38460A6E702F0E8F92F
:1019A000C0F38461B7E7C0F38460BBE702F0E0F9FD
:1019B000C0F38461CCE7C0F38460D0E72A7B296858
:1019C00050F8B03FC1F3120C23EA0C0302F0180CDC
:1019D000654A22FA0CF20A4013430360E96849455C
:1019E00077D1286841031CD090FAA0F1B1FA81F1B7
:1019F000491C01F01F0109294FEA403132D8002962
:101A000012D000BF90FAA0F1B1FA81F101F1010109
:101A100001F01F0106FA01F609D100BFC0F384618D
:101A200009E0C0F38461E3E7C0F38461EEE790FA74
:101A3000A0F1B1FA81F101F1010101F01F0146EAC3
:101A4000816102D1C0F3846003E090FAA0F0B0FAA3
:101A500080F000F1010000F01F0000EB400041EABF
:101A6000005132E000290ED090FAA0F1B1FA81F1D4
:101A700001F1010101F01F0106FA01F606D100BFD4
:101A8000C0F3846106E0C0F38461F1E790FAA0F14D
:101A9000B1FA81F101F1010101F01F0146EA816112
:101AA00002D1C0F3846003E090FAA0F0B0FA80F0B5
:101AB00000F1010000F01F002C4A00EB400002EB97
:101AC000005041EA000141F00071AA68206802F06C
:101AD00065F927482A6802423FF466AE25488168C6
:101AE000254B01F0E0719A4202D0244B9A421BD15F
:101AF0000B0219D42268B2F1A04F7FF455AE826870
:101B000041F4000122F0E0720A4382601C481D4942
:101B10000068B0FBF1F000EB4000800000E0401EE8
:101B200000900028FBD13FE6174D184BAA4207D181
:101B3000CD0105D422689A42F5D041F0807109E0C8
:101B4000134DAA42EFD14A02EDD422689A42EAD05C
:101B500041F48001826822F0E0720A43826023E649
:101B600000007F4000F0FF03FFFF0700000020FEA1
:101B70000000088000030050000021C31000C09046
:101B80003C000020400D0300000052C7000100503F
:101B9000000084CB7047704770470000F8B54FF0E5
:101BA000000504002E46009502D0E06D10B107E05C
:101BB0000120F8BD204600F0EDF8266684F8586054
:101BC00020688168C1F3407119B18168694A114088
:101BD000816020688168C1F3007179B98168664AC3
:101BE000114041F080518160644865490068B0FB54
:101BF000F1F000E0401E00900028FBD120688168D1
:101C0000C1F3007141B9E16D41F01001E165216E50
:101C100041F001012166012502F0B4F8E16DC90629
:101C200000D430B1E06D40F01000E0650125284699
:101C3000F8BDE06D20F4807040F00200E06520689F
:101C4000806810F0010F11D14FF0A04080684D491D
:101C500000F00100896801F00101084306D14A48FB
:101C60006168826822F47C120A438260E168E06B5A
:101C7000627F0843A16841EA4231084394F8241086
:101C800040EA0140012904D1218D404A02EB414143
:101C90000843E16A29B101F47871226B014342EAF9
:101CA00001002168CA683A4B1A400243CA602068A2
:101CB0000169626B21F0406111430161206802F00B
:101CC00061F80646206802F059F830432ED1207F93
:101CD00094F83810800340EA41022068C16844F259
:101CE000020399431143C1602069002820680169FB
:101CF0000AD041F480310161206850F8C01F226988
:101D00006FF30D01114307E021F480310161206878
:101D100050F8C01F6FF30D01016094F840000128D6
:101D20000CD02068016921F001010161606901287E
:101D30002068016B21F00F0111D013E0D4E91101EB
:101D40000843D4E913121143084321680A6940F299
:101D5000FC739A43104340F001000861E6E7226AF1
:101D6000521E11430163E06D20F0020040F00100BB
:101D7000E0655CE7C0FFFF5FC0FFFF7F3C00002025
:101D8000400D030000010050000300500000FEFF62
:101D90000740F0FF70B586B0054614216846FEF78F
:101DA00072FB1D492868884233D11C49C86C40F435
:101DB0000050C864C86C00F400500590C86C40F036
:101DC0000200C864C86C002600F0020005904FF4C1
:101DD000004000900320CDE901066946104800F05C
:101DE000B3F9114C0F4820602420C4E9010680207B
:101DF000C4E90360400060618000A0612020C4E964
:101E00000706204600F0E8F808B1FFF7B1FC6C6562
:101E1000A56206B070BD0000000100500010024035
:101E20000004004808000240AC0000202DE9F04109
:101E30000446344817468846806800F01F0520682D
:101E400001F0A0FF00285AD194F85800012856D07C
:101E5000012084F85800002625B1052D02D0092D57
:101E600000D003E02046FFF743FB18B184F8586028
:101E7000BDE8F081E06D40F60161884340F4807078
:101E8000E06521492068884202D14FF0A04100E07E
:101E90000146814200D01DB9E06D20F48010E0655C
:101EA000E06DC00404D5206E20F00600206600E03E
:101EB0002666616D1548C862616D15480863616DDD
:101EC0001448486321681C20086084F85860206822
:101ED000416841F0100141602068C16841F0010192
:101EE000C16021683B4642464031606D00F0D4F845
:101EF00021688A68084B1A40121D8A60B8E70220E0
:101F0000B6E7000000030050000100506314000811
:101F1000E5140008CB140008C0FFFF7FF0B4016C8B
:101F20000C6801680D6890F8442002F01F06042236
:101F300002FA06F3234211D06B070FD50B689B06FC
:101F400003D40B6823F004030B6090F8441001F0F5
:101F50001F018A40016C4A60016B1DE0022303FAF5
:101F600006F727424FF0000C4FF0010218D0AF07E0
:101F700016D50C68A40605D40C6824F00A040C607D
:101F800080F8252090F8441001F01F018B40016C6F
:101F90004B6080F824C0C16A00291AD0F0BC084701
:101FA0000823B340234214D02B0712D50B6823F02B
:101FB0000E030B6090F84410036C01F01F0102FA4D
:101FC00001F15960C26380F8252080F824C0416B7C
:101FD000E2E7F0BC7047000070B504000CD02B4A5B
:101FE00021681420914209D2294A0A44B2FBF0F038
:101FF0008000606427480AE0012070BD234A5242F5
:102000000A44B2FBF0F08000606420480838206485
:10201000022084F825000A6847F6F0708243D4E96C
:1020200002031843D4E904352B431843A36918432A
:10203000E3691843236A1843104308602046FFF7FA
:1020400037FBA0680025B0F5804F00D16560A16C1A
:1020500020790860D4E9130141606068401E0328BC
:1020600008D82046FFF744FB606D0560D4E91601EF
:10207000416002E06565A565E565E563012084F8DA
:10208000250084F82450002070BD000008040240A0
:10209000F8FFFDBF0000024070B5044690F8240030
:1020A000002501280CD0012084F8240094F8256034
:1020B0000020012E06D084F824000225284670BD99
:1020C000022070BD022684F82560E063206806685F
:1020D00026F0010606602046FFF71CFB206B002857
:1020E0002068016802D041F00E0106E021F00401F1
:1020F00001602068016841F00A010160A06C01687C
:10210000C90303D5016841F480710160606D18B1A5
:10211000016841F4807101602068016841F00101AB
:102120000160CBE770B5044600F0FCF80546601C82
:1021300002D004484068044400F0F4F8401BA04278
:10214000FAD370BD300000202DE9FC4FDFF8A0A1CC
:10215000002301250AF1040B03244FF00F0C0BF1AF
:10216000040EBDE005FA03F632406FD04F68012F30
:1021700005D0022F03D0112F01D0122F17D1D0F884
:1021800008905F0004FA07F829EA08090097D1F8D7
:102190000C8008FA07F848EA0908C0F80880476880
:1021A000B7430E79C6F300169E403E434660C668AC
:1021B0004FEA430804FA08F7BE4301978F6807FA0D
:1021C00008F73743C7604E68022E01D0122E13D194
:1021D000DE0800EB86060096366A5F07FF0E0CFAF3
:1021E00007F926EA0906D1F8109009FA07F949EA31
:1021F0000609009EC6F820900668019FBE430F792D
:1022000007F0030707FA08F7374307604E68F60040
:1022100065D5384E376E47F001073766366E23F0C6
:10222000030706F001060096334E3E44B146B668F9
:102230009F074FEA17780CFA08F7BE43B0F1904FAA
:1022400005D02E4FB84204D1012717E047E0002700
:1022500014E02B4FB84201D102270FE0294FB842BA
:1022600001D103270AE0284FB84201D1042705E035
:10227000264FB84201D1052700E0062707FA08F7E4
:102280003743C9F80870DAF800605746D1F804807F
:1022900096435FEAC83800D516433E60DBF800601D
:1022A0005F46D1F8048096435FEA883800D516432C
:1022B0003E60DEF800607746D1F8048096435FEA1E
:1022C000C82800D516433E60094F0C373E68D1F848
:1022D000048096435FEA882800D516433E605B1C65
:1022E0000A6832FA03F67FF43DAFBDE8FC8F0000C8
:1022F00000040140001002400000014000040048BA
:1023000000080048000C0048001000480014004875
:102310000069084000D0012070470AB18161704710
:1023200081627047014880687047000030000020DB
:102330000248816842681144816070473000002083
:1023400010B50024032000F077F8002000F008F812
:1023500008B1012401E000F025F8204610BD00007E
:1023600070B50E4E05460024706898B14FF47A712E
:10237000B1FBF0F00A490968B1FBF0F000F03CFD58
:1023800040B9102D06D200222946501E00F034F824
:10239000356000E00124204670BD000030000020C0
:1023A0003C0000200B4808B5016E41F001010166B8
:1023B000016E01F001010091816D41F08051816554
:1023C000806D00F0805000900348816841F48041A6
:1023D000816008BD0010024000700040002809DB49
:1023E00000F01F02012191404009800000F1E0202F
:1023F000C0F8001170470000F0B40E4B1B680C468B
:10240000C3F30223C3F10705042D00D90425191DC8
:10241000072901D2002300E0DB1E012606FA05F1A0
:10242000491E214099409E40761E16403143F0BC23
:1024300002F0F8BA0CED00E0064900F00702086867
:102440004FF6FF03184040EA0220034A1043086099
:10245000704700000CED00E00000FA052B492C4B02
:102460000A6832214A432B4940B1B0F5007F086821
:1024700029D020F4C06040F480602CE00868C0F3EC
:102480004120022804D051F8800F20F4807022E00F
:10249000D1F8800020F48070C1F88000086820F432
:1024A000C06040F400700860B2FBF3F0401C00E034
:1024B000401E4A69520501D50028F9D148694005F6
:1024C0000AD503207047C0F34120022806D051F8F6
:1024D000800F40F48070086000207047D1F88000C1
:1024E00040F48070C1F88000086820F4C06040F4B7
:1024F00000700860B2FBF3F0401C00E0401E4A6927
:102500005205DBD50028F9D1D8E700003C000020B7
:1025100040420F00007000402DE9F8430446006877
:1025200000269D4D00035ED5A86D0027C00008D48D
:10253000A86D40F08050A865A86D012700F080507C
:102540000090DFF85892D9F8001041F48071C9F872
:102550000010FFF7E7FE804606E000BFFFF7E2FE4F
:10256000A0EB080002282BD8D9F80000C005F5D54B
:10257000D5F8900010F4407014D0216C814211D035
:10258000D5F89000D5F8901020F4407041F48031D7
:10259000C5F89010D5F8901021F48031C5F890104E
:1025A000C5F89000C00711D0FFF7BCFE804641F28D
:1025B000883907E0FFF7B6FEA0EB0801494501D9CD
:1025C00003260BE0D5F890008007F3D5D5F89000EE
:1025D000216C20F440700843C5F890001FB1A86D2D
:1025E00020F08050A8652078C00707D0D5F8880073
:1025F000616820F003000843C5F888002078800750
:1026000007D5D5F88800A16820F00C000843C5F86C
:1026100088002078400707D5D5F88800E16820F0C9
:1026200030000843C5F888002078000707D5D5F8A2
:102630008800216920F0C0000843C5F88800207890
:10264000800607D5D5F88800616920F4406008430A
:10265000C5F888002078400607D5D5F88800A1691C
:1026600020F440500843C5F888002078000607D5BC
:10267000D5F88800E16920F440400843C5F8880097
:102680002088C00507D5D5F88800216A20F440309D
:102690000843C5F888002088800507D5D5F888004C
:1026A000616A20F440200843C5F88800208840056E
:1026B0000FD5D5F88800A16A20F440100843C5F86A
:1026C0008800A06AB0F5801F03D1E86840F480104C
:1026D000E860208800050FD5D5F88800E16A20F46D
:1026E00040000843C5F88800E06AB0F5800F03D1C8
:1026F000E86840F48010E8602088C0040FD5D5F861
:102700008800216B20F040700843C5F88800206BDA
:10271000B0F1807F03D1E86840F48010E860208841
:102720004FF0006180040ED5D5F88800626B20F070
:1027300040601043C5F88800606B884203D1E868A8
:1027400040F48010E860208840040ED5D5F8880059
:10275000A26B20F040601043C5F88800A06B88424F
:1027600003D1E86840F48010E860208800040FD5A9
:10277000D5F88800E16B20F040500843C5F8880088
:10278000E06BB0F1805F03D1E86840F48030E8602E
:102790003046BDE8F88300000010024000700040A1
:1027A0002DE9F0470E4605004FF0000725D0DFF871
:1027B000AC81D8F8000000F00F00B0420CD2D8F87D
:1027C000001021F00F013143C8F80010D8F80000C4
:1027D00000F00F00B04210D12968614CC80741F2E7
:1027E000883A5AD06868DFF87C91032808D002281C
:1027F00020682DD0400500282CDB0120BDE8F087A3
:1028000020688001F9D5E06800F00302E068C0F3B9
:102810000310401C032A19D0534A00BFB2FBF0F04A
:10282000E268C2F306225043E268C2F34162521CDE
:102830005200B0FBF2F0484517D9A06810F0F00F35
:102840000CD0880711D5A86840B10EE0474AE5E7EB
:102850008003D0E700F092F8484506D9A06820F040
:10286000F00040F08000A0608027A068696820F038
:1028700003000843A060FFF755FD814606E000BF56
:10288000FFF750FDA0EB090151453AD8A0686968EF
:1028900000F00C00B0EB810FF2D12868810714D54D
:1028A000400703D5A06840F4E060A06028780007E6
:1028B00005D5A06820F4605040F4E060A060A068F6
:1028C000A96820F0F000084304E0802F03D1A0683D
:1028D00020F0F000A060D8F80010404601F00F0191
:1028E000B14216D9016821F00F0131430160FFF7B1
:1028F00019FD074607E000BFFFF714FDC11B514556
:1029000001D903207AE7D8F8000000F00F00B042A8
:10291000F2D12878400705D5A068E96820F4E06086
:102920000843A0602878000706D5A068296920F42C
:10293000605040EAC100A06000F020F8A1680C4A95
:10294000C1F30311515C01F01F01C840094908603F
:1029500009480068BDE8F047FFF702BD00200240CB
:102960000010024000B4C4040024F40000366E01DC
:10297000146400083C00002030000020184910B505
:102980008868C0F381021748012A0BD08A68164B69
:10299000C2F38102022A06D08A68C2F38102032AA6
:1029A00003D0002010BD184610BDCA6802F0030411
:1029B000CA68C2F30312521C032C02D0B0FBF2F01F
:1029C00001E0B3FBF2F0CA68C968C2F306225043C3
:1029D000C1F34161491C4900B0FBF1F010BD00009A
:1029E000001002400024F40000366E012DE9F84387
:1029F00004007AD02078FA4DC00747D0A868E9686B
:102A000000F00C0001F003010C2802D0082817D0B8
:102A100001E0032914D06068B0F5803F17D0B0F50D
:102A2000A02F286817D020F480302860286820F470
:102A3000802028606068E0B1FFF774FC064614E06F
:102A40002868800322D560680028D2D01EE028685C
:102A500040F48030EDE740F480202860F7E700BFC5
:102A6000FFF760FC801B642870D828688003F7D5C6
:102A70000CE0FFF757FC064605E000BFFFF752FCED
:102A8000801B6428F0D828688003F7D4207880075A
:102A90004CD5A868E96800F00C0001F003010C288F
:102AA00002D004280DD001E002290AD0E0680028F5
:102AB00028682BD040F480702860FFF733FC06466E
:102AC00019E02868400502D5E068002891D06868C0
:102AD000217C20F0FE4040EA01606860C148006847
:102AE000FFF73EFC002800D120E076E1FFF71AFC5A
:102AF000801B0228B8D828684005F7D56868217C73
:102B000020F0FE4040EA016068600FE020F4807031
:102B10002860FFF707FC064605E000BFFFF702FC50
:102B2000801B0228A0D828684005F7D42078000729
:102B300029D560690028D5F8940013D040F0010031
:102B4000C5F89400FFF7EEFB064606E090E000BFF4
:102B5000FFF7E8FB801B022886D8D5F89400800791
:102B6000F6D510E020F00100C5F89400FFF7DAFB7D
:102B7000064604E0FFF7D6FB801B022878D8D5F87C
:102B800094008007F6D42078400761D5A86D002610
:102B9000C00008D4A86D40F08050A865A86D01263B
:102BA00000F08050009090480168C90511D4016878
:102BB000804641F480710160FFF7B4FB074604E0F2
:102BC000FFF7B0FBC01B022852D8D8F80000C005A0
:102BD000F6D5A068012815D00528D5F8900016D0A4
:102BE00020F00100C5F89000D5F8900020F0040016
:102BF000C5F89000A06841F28838B8B1FFF792FBA1
:102C000007460EE0D5F8900040F00100F0E740F0F4
:102C10000400C5F89000F5E7FFF784FBC11B4145B0
:102C200026D8D5F890008007F6D50CE0FFF77AFBA0
:102C3000074604E0FFF776FBC11B414518D8D5F8DD
:102C400090008007F6D41EB1A86D20F08050A865D2
:102C50002078800629D5A0690028D5F8980013D0DF
:102C600040F00100C5F89800FFF75CFB064606E05F
:102C700077E000BFFFF756FB801B022877D8D5F816
:102C800098008007F6D510E020F00100C5F8980004
:102C9000FFF748FB064604E0FFF744FB801B0228D1
:102CA00065D8D5F898008007F6D4E069F0B3A96834
:102CB000C1F38101032961D00228286820F08070C7
:102CC00028600BD0E86820F00300E860E868474916
:102CD0000840E860FFF726FB04464BE0FFF722FBC5
:102CE000064604E0FFF71EFB801B02283FD8286839
:102CF0008001F7D4F4E908016FF00F0202EB011133
:102D00000843218A5204490802EB4151A26841EA72
:102D100002210843217D4FF07E42490802EB4161C8
:102D20000843217B40EAC160E96800E062E0304A84
:102D300011400843E860286840F080702860E86827
:102D400040F08070E860FFF7EDFA044605E000BF50
:102D5000FFF7E8FA001B022809D828688001F7D598
:102D600048E004E0FFF7DEFA001B022802D9032046
:102D7000BDE8F88328688001F4D43BE00128F7D04F
:102D8000E868226A00F00301914226D1616A00F0EE
:102D9000F0020901103991421FD1A26A00F4FE41EC
:102DA000B1EB022F19D194F82C2000F07841B1EB4F
:102DB000C26F12D1218E00F4C00249084905A1F565
:102DC0000011914209D194F8341000F0C060490814
:102DD0004906A1F1007181420CD00120C8E7000032
:102DE000001002403000002000700040FFFFEEFEA7
:102DF0000C809F010020BBE710B5401EB0F1807F22
:102E000001D3012010BD4FF0E02460610F21601755
:102E100001F008FE0020A06107202061002010BD05
:102E20007047704770470000F0B590F83C20012AC9
:102E30004AD0012280F83C20CA688B6822F4407294
:102E40001A434B6822F480621A430B6822F4006232
:102E50001A430B6922F480521A434B6922F4005240
:102E60001A430B6B22F480421A430B8B22F470221C
:102E700042EA0342154C03680026154DA34201D0D7
:102E8000AB4203D1CF6922F080523A43A34201D032
:102E9000AB4214D10F8D22F4700242EA07520F6A3E
:102EA00022F080723A434F6A22F000723A43A34202
:102EB00001D0AB4203D1C96A22F000520A435A64DE
:102EC00080F83C600020F0BD0220F0BD002C0140E5
:102ED000003401407047704770470000F0B590F82B
:102EE0003C20012A3AD0012580F83C50022280F88B
:102EF0003D2003685A689C68194E1A4FB34201D0AE
:102F0000BB4204D122F4700C4A6842EA0C02DFF89A
:102F100058C002EA0C02D1F800C04CEA020CC3F817
:102F200004C00268B2420DD0B2F1804F0AD00F4BFC
:102F30009A4207D00E4B9A4204D0BA4202D00D4BAF
:102F40009A4204D1896824F080031943916080F883
:102F50003D50002180F83C100846F0BD0220F0BD35
:102F6000002C0140003401408FFFFFFD00040040B1
:102F70000008004000400140704710B5040003D035
:102F800094F83D0010B107E0012010BD002084F846
:102F90003C00204600F022F8022084F83D00211D6C
:102FA000206801F07FFA012084F8480084F83E0090
:102FB00084F83F0084F8400084F8410084F842001F
:102FC00084F8430084F8440084F8450084F84600FF
:102FD00084F8470084F83D00002010BD38B5054650
:102FE00000681D4A1D49904211D1086E40F40060EE
:102FF0000866086E002200F4006000901146192057
:10300000FFF7FAF9BDE838401920FFF7E7B9144A8D
:10301000904220D1086E40F480200866086E124C61
:1030200000F4802000900F48206054206060002051
:103030008021A060C4E90301890061618900A16168
:103040002021C4E907102046FEF7C6FF08B1FEF7AD
:103050008FFB6C62A56238BD002C0140001002405D
:10306000004801401C0002403C02002090F83D1046
:10307000012901D001207047022180F83D1001682C
:10308000CA6842F00102CA6000688168064A1140BD
:10309000062906D0B1F5803F03D0016841F0010157
:1030A00001600020704700000700010070B5044671
:1030B00090F83C00012815D0012584F83C500220EE
:1030C00084F83D0022689068354B184020F47F401A
:1030D00090600868B0F5805F50D010DC10F00F0FE2
:1030E00003D04BE04FF0020070BD4FEA2012082AD7
:1030F00044D2DFE802F05151515149323A1B294B79
:10310000C21A984248D00ADCB0F5005F19D0B0F17D
:10311000101F41D0A0F5801120392FD13CE0102A9A
:103120003AD0302A38D0402A28D135E0CB68D1E9CE
:103130000121206801F090FA2068816841F0770150
:1031400009E0CB68D1E90121206801F085FA206807
:10315000816841F48041816010E0CA684968206854
:1031600001F024FC5021206806E0CA684968206804
:1031700001F02DFC6021206801F078FA84F83D50C0
:10318000002084F83C0070BDCA684968206801F0DE
:103190000DFC40212068EFE7226801461046EBE76E
:1031A00088FFCEFF300010007047704770B50446AE
:1031B000006801694FF00005C943890715D4C1684B
:1031C000C943890711D4E91E0161012020772068D5
:1031D00080698007204602D0FFF7E7FF04E000F097
:1031E0000BF9204600F0CAF9257720680169C94328
:1031F000490717D4C168C943490713D46FF00401C4
:103200000161022020772068806910F4407F204609
:1032100002D0FFF7CAFF04E000F0EEF8204600F00D
:10322000ADF9257720680169C943090716D4C1683B
:10323000C943090712D46FF0080101610420207707
:103240002068C0698007204602D0FFF7AEFF04E087
:1032500000F0D2F8204600F091F925772068016946
:10326000C943C90617D4C168C943C90613D46FF04E
:1032700010010161082020772068C06910F4407FA8
:10328000204602D0FFF791FF04E000F0B5F8204699
:1032900000F074F9257720680169C943C90708D18E
:1032A000C168C943C90704D1891E0161204600F0E5
:1032B0004BFA20680169C943090609D4C168C943AA
:1032C000090605D46FF0800101612046FFF7A9FDD2
:1032D00020680169C943C90509D4C168C943090601
:1032E00005D46FF4807101612046FFF799FD2068D5
:1032F0000169C943490609D4C168C943490605D4CF
:103300006FF040010161204600F040FA2068016939
:10331000C943890609D4C168C943890605D46FF039
:10332000200101612046FFF77DFD20680169C94346
:10333000C90209D4C168C943C90205D46FF4801118
:1033400001612046FFF7C7FD20680169C943890272
:1033500009D4C168C943890205D46FF40011016121
:103360002046FFF7B7FD20680169C943490209D427
:10337000C168C943490205D46FF480010161204648
:10338000FFF7AAFD20680169C94309020BD4C1688F
:10339000C943090207D46FF4000101612046BDE86A
:1033A0007040FFF7E9BD70BD10B586B0044614212A
:1033B0006846FDF768F80E492068884216D10D4826
:1033C000C16C41F00101C164C06C694600F00100AC
:1033D0000590802000900220019000200290039030
:1033E000012004904FF09040FEF7AEFE06B010BDF5
:1033F0000048014000100240704770B5044690F844
:103400003C000D4601280BD0012084F83C000C2A1A
:1034100045D007DC5AB1042A1BD0082A78D12CE009
:10342000022070BD102A4ED0142A71D15DE02068B0
:1034300001F026F92068816941F008018161206866
:10344000816921F004018161206881692A69114341
:1034500011E0206801F062F92068816941F400619F
:1034600081612068816921F48061816120688169BE
:103470002A6941EA022181614AE0206801F096F957
:103480002068C16941F00801C1612068C16921F06B
:103490000401C1612068C1692A69114311E02068F3
:1034A00001F0CCF92068C16941F40061C161206874
:1034B000C16921F48061C1612068C1692A6941EA5A
:1034C0000221C16124E0206801F000FA2068016D4A
:1034D00041F0080101652068016D21F004010165DA
:1034E0002068016D2A69114311E0206801F026FA75
:1034F0002068016D41F4006101652068016D21F4CF
:10350000806101652068016D2A6941EA0221016537
:10351000002084F83C0070BD10B5040003D094F87E
:103520003D0010B107E0012010BD002084F83C00F0
:10353000204600F022F8022084F83D00211D20687A
:1035400000F0B0FF012084F8480084F83E0084F8C1
:103550003F0084F8400084F8410084F8420084F879
:10356000430084F8440084F8450084F8460084F859
:10357000470084F83D00002010BD70477047704739
:103580002DE9F04116460D00044610D0042D15D04B
:10359000082D1AD00C2D1FD0102D24D094F84300E4
:1035A000022827D094F84300012826D077E094F829
:1035B0003E0002281ED094F83E00F5E794F83F0044
:1035C000022817D094F83F00EEE794F84000022854
:1035D00010D094F84000E7E794F84100022809D0A1
:1035E00094F84100E0E794F84200022802D094F8F1
:1035F0004200D9E70220BDE8F08106B97BBB49490A
:10360000494A4A4F022055B1042D18D0082D27D021
:103610000C2D35D0102D44D084F843004EE084F8B2
:103620003E00606AC162606A31460263606A476355
:103630002268606A3432FEF72FFD80B934E084F8E6
:103640003F00A06AC162A06A31460263A06A476374
:103650002268A06A3832FEF71FFD00B929E01EE09B
:1036600084F84000E06AC162E06A31460263E06AC1
:1036700047632268E06A3C32FEF70EFD78B946E007
:1036800084F84100206BC162206B31460263206BDD
:1036900047632268206B4032FEF7FEFCB0B3012086
:1036A000A9E784F8420009E02068C16841F400718C
:1036B00003E02068C16841F48061C16001222946AD
:1036C000206800F047FF1A49206888420BD019494A
:1036D000884208D01849884205D01849884202D04B
:1036E0001749884203D1416C41F40041416421688B
:1036F0008868144A1040062806D0B0F5803F03D0F1
:10370000086840F001000860002074E704E02068C9
:10371000C16841F40061D0E72068C16841F480517C
:10372000CBE700006F450008CD45000805460008BE
:10373000002C0140003401400040014000440140A1
:10374000004801400700010000680E49884217D177
:103750000D4908468B780278012B22F0010001D038
:10376000087008E04B78012B07D042F00100087088
:1037700001204870087800F0D1BA08700020F8E7FE
:1037800070470000002C0140080000207047FEE751
:1037900070B52C4801682C4C6269891A64294CD395
:1037A0000068606100F05CF828480078C10709D023
:1037B000E17839B9E16842F22832914202D801F544
:1037C0007A71E160810708D5E17831B9E168B1F536
:1037D000FA6F02D3A1F57A71E160400703D5E07872
:1037E00080F00100E070E0780128207826D020F0F9
:1037F00002002070164DE0689FED161AB5FBF0F040
:1038000000EE100A104A0123B8EE400A10320021DF
:103810001148C0EE010A94ED020AB8EE400A20EE0B
:10382000800ABCEEC00A84ED040AFFF7A9FEE06836
:103830000A49B5FBF0F0401E086070BD40F0020080
:10384000D7E700003800002008000020000000201A
:1038500040420F000000C842F00100202C48014007
:1038600070B5114C01212046FEF752FD054602219C
:103870002046FEF74DFD45EA400504212046FEF7AF
:1038800047FD45EA800401214FF09040FEF740FDDE
:10389000064944EAC00040F0F0004A78C04320EAFC
:1038A00002020A70487070BD000400480000002049
:1038B00000B585B014216846FCF7E5FD4FF6FF70B2
:1038C000009000200321CDE90201019069460248E1
:1038D000FEF73AFC05B000BD0008004800B585B011
:1038E00014216846FCF7CFFD4FF6FF7000900120D1
:1038F0000190032003900020029069460248FEF7E1
:1039000023FC05B000BD00000008004870B500248D
:1039100006462146204600F05DF900F09BF94FF481
:103920009635304600F06AF9641CAC42F9D370BD9C
:1039300030B587B014216846FCF7A5FD1E48C16C60
:1039400041F00401C164C16C01F004010591C16C36
:1039500041F00101C164C16C01F001010591C16C2C
:1039600041F00201C164C06C012500F00200059025
:103970004FF44870CDE90005002403946946029491
:103980000E48FEF7E1FB280203940090CDE90154B4
:103990004FF0904469462046FEF7D6FBFFF79EFFA6
:1039A000A06940F48070A06104481830016841F4B7
:1039B0000871016007B030BD0010024000040048EB
:1039C000203AD2B2034B02EB420203EB021200F0A8
:1039D00019B8000044520008F0B50E46074600250D
:1039E00040F23F1407E021463846FFF7E9FF103C5C
:1039F0006D1CA4B2761C3278002A01D0142DF2D3AB
:103A0000F0BD00002DE9F04791468A4600260446A5
:103A100000F0E0F8DFF84080012700BF00F01AF95D
:103A20005FF0000539F8160007FA05F10842404634
:103A300001D1408800E0008800F0E0F86D1C102DF6
:103A4000F0D3641CE4B25146204600F0C3F8761C63
:103A5000182EE3D3BDE8F0870200002010B5FFF771
:103A600067FF002000F06EF8084CA080A088A0F549
:103A70000241303906D000F0B7FB002000F062F8B8
:103A8000A08010BD00F027FBF7E700000200002037
:103A900010B586B012A11820FFF79EFF164C17A193
:103AA000684694ED080B53EC102BFCF715FC6946A7
:103AB0004820FFF791FF17A16846A268FCF70CFCAD
:103AC00069467820FFF788FF18A16846E268FCF78E
:103AD00003FC6946A820FFF77FFF06B010BD000079
:103AE000202020202020202044415441202020203C
:103AF000202020200000000008000020202020209E
:103B0000566F6C743A252E3266202020202020200B
:103B10000000000020202020443A25642525202094
:103B20002020202020202020000000002020202015
:103B3000463A2564487A202020202020202020207A
:103B40000000000070B51D490A6842F400720A6066
:103B50000A6842F480720A60184C103C226842F0F5
:103B600020022260164A1060086840F020000860B9
:103B700000BF00BF00BF206840F020002060206828
:103B800040F480702060FFF793FE4FF09041886A08
:103B900040F48070886200BF00BF00BF0848001F6B
:103BA000006885B2886940F480708861FFF796FEEE
:103BB000206840F400702060284670BD280400484A
:103BC0001408004801B5BDF800000149488008BD4F
:103BD0000200002010B50C460146202000F068F8D5
:103BE0002146BDE81040212000F062B801B5BDF8C3
:103BF00000000149088008BD02000020134A116836
:103C000041F400711160114910390B6843F480735D
:103C10000B600B6843F020030B600D4B18601068BD
:103C200040F02000106000BF00BF00BF086840F0F7
:103C300020000860086840F48070086000BF00BF82
:103C400000BF086840F4007008607047280400480E
:103C5000140800481449086840F4007008600868B7
:103C600040F48070086010481038026842F020026A
:103C700002600E4B22221A600A6842F020020A609B
:103C800000BF00BF00BF016841F020010160016872
:103C900041F48071016000BF00BF00BF016841F4C2
:103CA00000710160704700002804004814080048B3
:103CB000184B10B51A6842F400721A601A6842F480
:103CC00080721A60134A103A146844F02004146099
:103CD000114C2060186840F02000186000BF00BF41
:103CE00000BF106840F020001060106840F4807041
:103CF00010602160186840F02000186000BF00BF0D
:103D000000BF106840F020001060106840F4807020
:103D1000106010BD280400481408004870B5124D0A
:103D2000044601224FF47F412846FEF7F6FA0F4E73
:103D3000012204213046FEF7F0FA00220421304629
:103D4000FEF7EBFA210200222846FEF7E6FA0122EE
:103D500004213046FEF7E1FA3046BDE8704000220B
:103D60000421FEF7DABA000000080048000C004801
:103D700000EB8100006E00F0F84070478068C0F3EF
:103D8000C00070478068C0F380007047C06810F4BE
:103D9000406F01D00020704701207047042303EAE0
:103DA000D15310B518444369C1F3045107248C4022
:103DB000A3438A401343436110BD00EB8100016EB1
:103DC00021F00041114301667047000030B589B011
:103DD00020216846FCF757FB184817490024C0E922
:103DE00000148460C46004250461C0E905450477BB
:103DF00044770121016280F82440C462046380F8A2
:103E00003840C46380F84040FDF7C8FE08B1FDF7B4
:103E1000AFFC0B4800900620CDE901047F200594FB
:103E2000CDE9030569460548FDF7A4FC002801D04B
:103E3000FDF79EFC09B030BD00010050400000209D
:103E40000080F03E114808B5816C41F004018164A6
:103E5000816C01F004010091816C41F001018164E9
:103E6000806C002200F00100009011460B20FEF74C
:103E7000C3FA0B20FEF7B2FA002211460C20FEF71F
:103E8000BBFABDE808400C20FEF7A8BA00100240BB
:103E90002DE9F04F87B014216846FCF7F4FA40484A
:103EA000C16C41F00401C164C16C01F004010591D1
:103EB000C16C41F02001C164C16C01F02001059189
:103EC000C16C41F00101C164C16C01F001010591B7
:103ED000C16C41F00201C164C16C01F002010591A5
:103EE000C16C41F00801C164C06CDFF8B88000F01B
:103EF00008004FF6FF740590002221464046FEF769
:103F00000CFA4FF480764FF0904900223146484633
:103F1000FEF703FADFF890A0002204215046FEF7D6
:103F2000FCF9DFF888B04FF448770022394658464C
:103F3000FEF7F3F90125CDE9004500240294694616
:103F400040460394FEF700F9CDE90054694648461F
:103F50000294FEF7F9F80720CDE9000469465846B7
:103F60000294FEF7F1F80096CDE9015469464846FF
:103F70000394FEF7E9F804200090CDE90154694666
:103F800050460394FEF7E0F80097CDE901546946E6
:103F900058460394FEF7D8F807B0BDE8F08F00004C
:103FA0000010024000080048000C004800040048CF
:103FB00010B594B01C210DA8FCF765FA34216846B1
:103FC000FCF761FA1F481E49002401604F21C0E937
:103FD000011440F2E731C0E9031444618461FEF743
:103FE000CCFF08B1FDF7C4FB1648FFF795FA08B1FE
:103FF000FDF7BEFB6020CDE90D040F9410941194E1
:10400000129400220DA90F481394FFF7F6F908B196
:10401000FDF7AEFB00944FF40050CDE9044001944D
:10402000029403940694694606480C94FEF7FCFE3D
:1040300008B1FDF79DFB0348FFF7B6F914B010BDBA
:1040400000480140F001002010B594B00024129403
:104050001394109411940D940E94342168460F9487
:10406000FCF711FA19481849016040F2CF21C0E964
:10407000011442F21071C0E9031444618461FEF737
:104080007CFF08B1FDF774FB4FF48050109010A92D
:104090000E48FFF70BF808B1FDF76AFB0D940E947C
:1040A0000DA90A480F94FEF719FF08B1FDF760FB50
:1040B0000794694605480B94FEF7B6FE002801D028
:1040C000FDF756FB14B010BD002C01400C01002080
:1040D000FEE77047704730B501210020FFF7E8FD8B
:1040E0004FF47A70FDF736FB00210120FFF7E0FD69
:1040F00041F290711020FFF7DBFD4FF41C5160205E
:10410000FFF7D6FD01216120FFF7D2FD02214620F5
:10411000FFF7CEFD48F210011320FFF7C9FD48F26A
:10412000FE011220FFF7C4FD4FF4A0610220FFF74B
:10413000BFFD41F230010320FFF7BAFD40F2033426
:1041400021463020FFF7B4FD21463120FFF7B0FDB6
:1041500021463220FFF7ACFDE51E29463320FFF74C
:10416000A7FD03213420FFF7A3FD21463520FFF7EB
:104170009FFD14213620FFF79BFD21463720FFF7D6
:1041800097FD21463820FFF793FD21463920FFF7A0
:104190008FFD29463A20FFF78BFD03213B20FFF7D7
:1041A00087FD21463C20FFF783FD4FF4A0513D20C1
:1041B000FFF77EFD4FF400719220FFF779FD214655
:1041C0009320FFF775FD40F60D019020FFF770FD7D
:1041D00041F218010320FFF76BFDBDE8304040F2CB
:1041E00073110720FFF764BD10B543F20801E32007
:1041F000FFF75EFD1221E720FFF75AFD41F2312162
:10420000EF20FFF755FD00210120FFF751FD4FF48E
:10421000E0610220FFF74CFD41F230010320FFF77F
:1042200047FD00210420FFF743FD40F2072108204D
:10423000FFF73EFD00210920FFF73AFD00210A208B
:10424000FFF736FD00210C20FFF732FD00210D2085
:10425000FFF72EFD00210F20FFF72AFD002110207F
:10426000FFF726FD07211120FFF722FD0021122074
:10427000FFF71EFD00211320FFF71AFDC820FDF7F0
:1042800051FF41F290611020FFF712FD40F227210B
:104290001120FFF70DFD3220FDF744FF1D211220F4
:1042A000FFF706FD3220FDF73DFF4FF400611320BC
:1042B000FFF7FEFC14212920FFF7FAFC0B212B202D
:1042C000FFF7F6FC3220FDF72DFF00212020FFF73D
:1042D000EFFC00212120FFF7EBFC07213020FFF746
:1042E000E7FC40F207713120FFF7E2FC06213220A3
:1042F000FFF7DEFC40F204713520FFF7D9FC41F6F0
:1043000004713620FFF7D4FC04213720FFF7D0FCDE
:1043100000213820FFF7CCFC40F206713920FFF76E
:10432000C7FC40F201713C20FFF7C2FC0F213D2089
:10433000FFF7BEFC00215020FFF7BAFCEF2151200F
:10434000FFF7B6FC00215220FFF7B2FC40F23F110C
:104350005320FFF7ADFC4FF41C516020FFF7A8FC81
:1043600001216120FFF7A4FC00216A20FFF7A0FCD7
:1043700000218020FFF79CFC00218120FFF798FCA2
:1043800000218220FFF794FC00218320FFF790FC9E
:1043900000218420FFF78CFC00218520FFF788FC9A
:1043A00010219020FFF784FC00219220FFF780FC71
:1043B00003219320FFF77CFC4FF488719520FFF7D1
:1043C00077FC00219720FFF773FC00219820FFF76E
:1043D0006FFC41F218010320FFF76AFCBDE81040B2
:1043E00040F273110720FFF763BC7047FDF7A0BFD1
:1043F00000B5A5B038216846FCF745F814211FA880
:10440000FCF741F844210EA8FCF73DF84FF400708A
:10441000FEF724F80220C10103914021049100908D
:10442000079008901421CDE909010B900C900D9094
:104430006846FEF7DBFA0F201F9003202090002033
:1044400021902290239003211FA8FEF7A9F94FF491
:1044500000400E9080031D900EA8FEF75DF825B079
:1044600000BD00000548016841F470010160034986
:104470004FF00060803908607047000088ED00E070
:104480000148FEF793BE00000C0100200148FEF732
:104490008DBE0000580100200148FEF787BE0000D5
:1044A000A40100202DE9F0430268234B234D244E44
:1044B000244C4FF08049984207D0484505D0A84287
:1044C00003D0B04201D0A04203D122F070074A6865
:1044D0003A431D4FDFF874C0DFF8748098420DD066
:1044E00048450BD0A84209D0B04207D0A04205D021
:1044F000B84203D0604501D0404503D122F4407555
:10450000CA682A434D6922F080022A4302608A6801
:10451000C2620A688262984207D0A04205D0B842BF
:1045200003D0604501D0404501D1096901630121F3
:104530004161BDE8F0830000002C01400004004010
:1045400000080040003401400040014000440140A8
:104550000048014010B501F01F030121046A994091
:104560008C430462016A9A401143016210BD10B588
:10457000846A0121626A824205D12177C069F8B953
:1045800084F83E101CE0A26A824206D10222227701
:10459000C069A8B984F83F1012E0E26A824206D1ED
:1045A00004222277C06958B984F8401008E0226BD1
:1045B000824205D108222277C06908B984F84110E7
:1045C0002046FEF7DBFF0020207710BD10B5846A7F
:1045D000616A814201D101200DE0A16A814201D1CD
:1045E000022008E0E16A814201D1042003E0216B4E
:1045F000814201D1082020772046FEF7C0FF00202D
:10460000207710BD10B5846A0121626A824203D10D
:10461000217784F83E1019E0A26A824204D1022078
:10462000207784F83F1011E0E26A824204D104202E
:10463000207784F8401009E0226B824204D10820E0
:10464000207784F8411001E084F83D102046FEF701
:10465000ABFD0020207710BD10B5846842EA03222C
:1046600024F47F440A432243826010BD8268034BD6
:104670001A400A4342F00701816070478FFFCFFF65
:104680002DE9F043026A22F001020262056A4368E2
:1046900082691C4C25F0020522400C6822F00302BE
:1046A00014438A68194E2A43174D194FDFF864C026
:1046B000DFF86490A84207D0B04205D0B84203D0DA
:1046C000604501D0484506D122F00808CA6842EA90
:1046D000080222F00402A84207D0B04205D0B84236
:1046E00003D0604501D0484505D14D6923F440739E
:1046F0001D438B692B4343608461496841630262B7
:10470000BDE8F0838FFFFEFF002C01400034014024
:10471000004001400044014000480140F0B5026AF9
:1047200022F010020262056A42688369194C1B4E2E
:1047300023400C6823F4407343EA042425F020034B
:104740008D6843EA0513144DA84201D0B04206D14A
:10475000CF6823F0800343EA071323F04003A84205
:104760000AD0B04208D00E4DA84205D00D4DA84247
:1047700002D00D4DA84207D14D6922F4406242EAB1
:1047800085028D6942EA85024260846149688163DD
:104790000362F0BDFF8FFFFE002C0140003401409A
:1047A000004001400044014000480140F0B5026A69
:1047B00022F480720262056A4368C269194C1B4E7A
:1047C00022400C6822F00302144325F400728D6825
:1047D00042EA0522144DA84201D0B04206D1CF686A
:1047E00022F4006242EA072222F48062A8420AD040
:1047F000B04208D00E4DA84205D00E4DA84202D0BE
:104800000D4DA84207D14D6923F4405343EA0513E7
:104810008D6943EA05134360C4614968C16302625C
:10482000F0BD00008FFFFEFF002C0140003401406E
:10483000004001400044014000480140F0B5026AD8
:1048400022F480520262056A4268C369194C1B4E09
:1048500023400C6823F4407343EA042425F40053F6
:104860008D6843EA0533144DA84201D0B04206D109
:10487000CF6823F4004343EA073323F48043A8427C
:104880000AD0B04208D00E4DA84205D00D4DA84226
:1048900002D00D4DA84207D14D6922F4404242EAB0
:1048A00085128D6942EA85124260C46149680164DB
:1048B0000362F0BDFF8FFFFE002C01400034014079
:1048C00000400140004401400048014030B5026A08
:1048D00022F480320262046A4268036D114D2B405B
:1048E0000D681D4324F400330C8943EA04430E4C45
:1048F000A0420BD00D4CA04208D00D4CA04205D0D8
:104900000C4CA04202D00C4CA04204D14C6922F4C1
:10491000803242EA0422426005654968816403628C
:1049200030BD00008FFFFEFF002C0140003401402D
:1049300000400140004401400048014030B5026A97
:1049400022F480120262046A4268036D114D24F45D
:1049500000142B400D6843EA05230D8944EA0554F1
:104960000D4DA8420BD00D4DA84208D00C4DA842C9
:1049700005D00C4DA84202D00B4DA84204D14D6980
:1049800022F4802242EA8522426003654968C164BC
:10499000046230BDFF8FFFFE002C01400034014057
:1049A00000400140004401400048014010B5036A46
:1049B000046A24F001040462846924F0F00444EAE7
:1049C000021423F00A020A438461026210BD10B58A
:1049D000036A23F0100303628369046A23F47043BB
:1049E00043EA023224F0A00343EA0111826101622A
:1049F00010BDFEE703B401984100009850EAC120C1
:104A000018BF04204A0D18BF40F0010040F2FF72A9
:104A1000B2EB515F08BF40F00200012808BF05203B
:104A200002B070470907090E002804DB00F1E020FE
:104A300080F80014704700F00F0000F1E02080F8CB
:104A4000141D704730380A2801D201207047002019
:104A500070470000FDF774FCFFF7CAFCFFF718FA77
:104A6000FFF7F0F9FFF7B2F9FFF7A2FAFFF7ECFA58
:104A70000E48FEF7FBFAFEF7F1FF0020FEF746FFB7
:104A80000020FFF79FF84FF6FF70FFF7AFF8002008
:104A9000FEF73CFF0020FFF741F900BFFCF75CFD8B
:104AA000FEF776FEFEF7F4FFF8E700000C010020A9
:104AB00010B500290AD00878002807D005487844A6
:104AC000FCF7C0F8002801D0002010BD024878444F
:104AD00010BD00001A1A0000121A000010B591EA69
:104AE000030F48BF83F0004300F15282841A71EB38
:104AF000030C05D2121943EB0C03001B61EB0C01F4
:104B0000DFF824E14FEA1154A4EB135C1EEA430FD3
:104B100018BF9EEA445F73D023EA0E03DCF1200E37
:104B200021EA045143F4801332D322FA0CFE10EB35
:104B30000E0023FA0CFE41EB0E01CCF1200E03FA1D
:104B40000EFE10EB0E0051F10001B1F5801FCCF10B
:104B5000200E32D201EB045112FA0EF2BDE81040E1
:104B600058BF7047401C38BF5FEA420218BF704709
:104B7000002814BF20F0010041F100014FEA410379
:104B800013F5001F38BF7047A1F1C04100F0BCB958
:104B9000012A43EB0302ACF1200CDCF11F0E32BF03
:104BA0004FF0000E23FA0CF310EB030041EB04511D
:104BB000B4EB115FD0D0A1EB045101F5801149088D
:104BC0005FEA300001EB04510ED350F1000038BF12
:104BD00012FA0EFE08D1BDE81040C9E7401C38BFEC
:104BE0005FEA4202CAD1C3E7BDE810404FEA410381
:104BF00013F5001F38BF7047A1F1C04100F084B920
:104C00009EEA445F08D011EA5E0FBDE8104004BF81
:104C100001F0004100207047BDE8104070B500F081
:104C200025F900BF64FBBE3E0000E0FF491058BFFD
:104C3000C1F140415B1058BFC3F140438B42EFF3D9
:104C4000008070474FEA1153A3F58063D3F11E0330
:104C5000A8BFD3F1200C08DB4FF0004242EAC1228A
:104C600052EA505232FA03F0704709420BD4102B2B
:104C7000C4BF0020704703F5787CBCF1FF3F05D02E
:104C80004FF0FF3070474FF00000704770B500F0F4
:104C9000EDF800BF4992248000207047F0E7000043
:104CA00051EA030C17D41CF5801F58BFBCF5801FB8
:104CB00000F10680994218BF704708BF90427047C4
:104CC00007D711F5801F58BF13F5801F19D49942DB
:104CD0007047894270471CF5801F08D5BCF5801FBE
:104CE000F7D58B4218BF704708BF824270474FF418
:104CF000001C1CEB410F38BF1CEB430F01D28B4251
:104D0000704770B500F0B2F8922449004FF000519E
:104D10004FF08053FFF78ABFDFF848C170B51CEA37
:104D2000111E1EBF1CEA13159EEA0C0F95EA0C0F0C
:104D300000F06F8081EA030423EA4C134EEAD47E2C
:104D400021EA4C1141F4801143F48013AE44A1FBDD
:104D5000024CA0FB0365AEF17F7E361955EB0C05C6
:104D6000A1FB034C4CF10003A0FB021C16EB0C064C
:104D7000654153F10003094218BF46F0010613F4E0
:104D8000007F0BD14FEA03314FEA0530340341EA8B
:104D9000155140EA16506FF003020AE04FEAC321B2
:104DA0004FEAC520F40241EA555140EA56506FF0EF
:104DB000020202EB2E4201EB025585EACE710AD0C7
:104DC0005FEA440C18BF24F0004450F1000041F1A8
:104DD000000120EAD47040F2FE7C624500D270BD32
:104DE000A84214BF4FF080444FF04044002E08BF4B
:104DF0000024BEF1806FA8BFA1F1C041BDE87040A2
:104E000080F282804FF0000001F1C04101F00041CA
:104E100070479EEA0C0F0CEA131518BF95EA0C0FA9
:104E200006D04FF0000081EA030E0EF0004170BD85
:104E300000F01CF88900013E00F007B800F009B846
:104E40004FEA430C5FEA5C5C08D081EA030100F0A2
:104E50005BB84FEA410C5FEA5C5CF6D14FF00000B2
:104E6000014970470000FF070000F87F0EF1020EB5
:104E70002EF0030E5EF8046B364205D4012A43EB94
:104E8000030515F5001F12D8012841EB010C1CF594
:104E9000001F0CD80ED14FEAD17C15F5001F0CEB8A
:104EA0004C0C0CF1020C08BF4CEBD37C04E04FF02F
:104EB000080C01E04FEAD37C0CEB4C0526FA05F612
:104EC00006F00706B6F1040C06D20EEB860CBDE820
:104ED00070404CF0010C6047DFE80CF0090B020257
:104EE0004FF000414FF00000A1F5002170BD1946C0
:104EF0001046012851EB010418BFD4F5001484BFFB
:104F0000002001F0004170BD0808A0F500114FEA33
:104F10003101704753EA010C17D41CF5801F58BFAC
:104F2000BCF5801F00F106808B4218BF704708BF98
:104F30008242704707D713F5801F58BF11F5801FB5
:104F400019D48B4270479B4270471CF5801F08D5CF
:104F5000BCF5801FF7D5994218BF704708BF904233
:104F600070474FF4001C1CEB430F38BF1CEB410F84
:104F700001D2994270470FB40CBC03BCFFF7C1BE0D
:104F800010B591EA030F48BF83F000433FF5AEAD83
:104F9000841A71EB030C07D212198CF0004C43EB0E
:104FA0000C03001B61EB0C01DFF8A4E14FEA115484
:104FB000A4EB135C1EEA430F18BF9EEA445F00F0A7
:104FC000B08023EA6E03524221EA0451C3EB6E0320
:104FD00038BF5B1EDCF1200E25D322FA0CFE10EB4D
:104FE0000E0043FA0CFE41EB0E01CCF1200E03FA49
:104FF0000EFE10EB0E0051F10001CCF1200E29D471
:1050000012FA0EF201EB0451BDE8104058BF704790
:10501000401C1CBFB2F1004F704700280CBF491C58
:1050200020F00100704712EB020E43EB030218BFA1
:105030004FF0010E4EEA4202ACF1200CDCF11E0EE4
:1050400054D943FA0CFE10EB0E0051F1FF31CCF1B4
:105050001E0ED5D50EF1010E12FA0EFE404141EBA7
:10506000010101EB445C5FEA5C5C10D910EBDE707F
:1050700001EB045138BFBEF1004FBDE8104018BF2E
:10508000704700280CBF491C20F00100704730D247
:105090004FEAD42C11F5001124F400641BD0B1FAAE
:1050A00081F20B3AA41AA41ED2F12003914030FAE7
:1050B00003F31943904001EBCC71002C01EB045138
:1050C000BDE81040A8BF704701F1C0414FF000009B
:1050D00001F000417047B0FA80F310FA03F100D1FB
:1050E00010BDE41A173C4805C90AE4E701EB045176
:1050F00010BD491001EB0451BDE810404FEA3000EB
:1051000002E04FF0000170474A0008BF0042F8D0AB
:10511000B2F5001F28BF704701F000414FF00000BA
:1051200070479EEA445F07D011EA5E0FBDE8104069
:1051300004BF002100207047BDE8104070B5FFF7A4
:1051400095FE00BF40DFF63E83F0004110467047F9
:105150000000E0FF43004FEAD30C4FEA3C0C434011
:105160001FBF40070CF1605113F0FE4F70471CF059
:10517000006F03D100200CF0004170470CF0004399
:1051800043EA507010B540EACC0000F00EF800BFC2
:10519000000000924FEA0001FFF7B6BE4FF0004159
:1051A0004FF00000A1F5002170470EF1020E2EF025
:1051B000030E5EF8044B244204D44FEA4102B2F1DC
:1051C0007F4F11D84FEA4003B3F17F4F0CD80ED177
:1051D0004FEAD07CB2F17F4F0CEB4C0C0CF1020C7F
:1051E00008BF4CEBD17C04E04FF0080C01E04FEA23
:1051F000D17C0CEB4C0324FA03F404F00704B4F163
:10520000040C06D20EEB840CBDE810404CF0010CEF
:105210006047DFE80CF0070802024FF00040A0F5FD
:10522000800010BD0846420018BFD2F1807288BFCE
:1052300000F0004010BD4FF04070E1EE100A7047E2
:10524000FBF77DBA00000000000000000000000035
:10525000000000000000000000000000000000004E
:10526000000000000000000000000000000000003E
:1052700000000000000080018001800180018001A9
:105280008001800180018001800180018001800116
:10529000000000008001800100000000000000000C
:1052A0000000000000000000CC00CC00CC00CC00CE
:1052B000CC00CC0000000000000000000000000056
:1052C00000000000000000000000000000000000DE
:1052D00000000000000000000000000000000000CE
:1052E000600C600C600C30063006FE1FFE1F30069E
:1052F00038071803FE1FFE1F180318038C018C01CA
:105300008C01000000008000E003F80F9C0E8C1C54
:105310008C188C009800F801E007800E801C8C1817
:105320008C189C18B80CF00FE0038000800000007F
:10533000000000000000000000000E181B0C110C03
:1053400011061106110311039B018E01C038C06CB8
:1053500060446044304430441844186C0C380000F9
:10536000000000000000E001F003380718061806EE
:105370003003F001F000F8009C310E33061E061CCD
:10538000061C063FFC73F021000000000000000036
:1053900000000000000000000C000C000C000C00DD
:1053A0000C000C00000000000000000000000000E5
:1053B00000000000000000000000000000000000ED
:1053C000000000000000000200038001C000C000D7
:1053D00060006000300030003000300030003000ED
:1053E0003000300060006000C000C0008001000399
:1053F00000020000000020006000C0008001800169
:105400000003000300060006000600060006000672
:10541000000600060003000380018001C000600058
:10542000200000000000000000000000000000005C
:10543000C000C000D806F807E001300338070000BC
:10544000000000000000000000000000000000005C
:10545000000000000000000000000000000000004C
:1054600080018001800180018001FC3FFC3F8001C0
:105470008001800180018001000000000000000028
:10548000000000000000000000000000000000001C
:10549000000000000000000000000000000000000C
:1054A0000000000000008001800100010001800078
:1054B00000000000000000000000000000000000EC
:1054C000000000000000000000000000E007E0070E
:1054D00000000000000000000000000000000000CC
:1054E00000000000000000000000000000000000BC
:1054F00000000000000000000000000000000000AC
:10550000000000000000C000C0000000000000001B
:10551000000000000000000C000C00060006000661
:105520000003000300038003800180018001C000AC
:10553000C000C0006000600000000000000000002B
:10554000000000000000E003F007380E180C0C18F3
:105550000C180C180C180C180C180C180C180C182B
:10556000180C380EF007E0030000000000000000F7
:1055700000000000000000018001C001F00198015E
:10558000880180018001800180018001800180010B
:105590008001800180018001000000000000000007
:1055A000000000000000E003F80F180C0C180C18A5
:1055B00000180018000C000600038001C000600005
:1055C00030001800FC1FFC1F00000000000000005D
:1055D000000000000000E001F807180E0C0C0C0C95
:1055E000000C0006C003C007000C001800180C18BF
:1055F0000C18180CF807E003000000000000000081
:10560000000000000000000C000E000F000F800DD5
:10561000C00C600C600C300C180C0C0CFC3FFC3FF8
:10562000000C000C000C000C00000000000000004A
:10563000000000000000F80FF80F180018000C0020
:10564000EC03FC071C0E001C0018001800180C18B6
:105650001C0C180EF807E00300000000000000001A
:10566000000000000000C007F00F381C18181800D8
:105670000C00CC03EC0F3C0E1C1C0C180C180C1866
:10568000181C380EF007E0030000000000000000C6
:10569000000000000000FC1FFC1F000C00060006BC
:1056A000000380038001C001C000E00060006000D2
:1056B00070003000300030000000000000000000EA
:1056C000000000000000E003F007380E180C180C72
:1056D000180C3806F007F007180C0C180C180C18EA
:1056E0000C18380CF80FE003000000000000000068
:1056F000000000000000E003F007380E1C0C0C183E
:105700000C180C181C1C381EF81BE0190018000C93
:10571000000C1C0EF807F001000000000000000063
:105720000000000000000000000000000000000079
:105730008001800100000000000000000000000067
:105740000000000080018001000000000000000057
:105750000000000000000000000000000000000049
:105760008001800100000000000000000000000037
:1057700000000000800180010001000180000000A5
:105780000000000000000000000000000000000019
:10579000000000000010001C800FE003F80018005B
:1057A000F800E003800F001C001000000000000063
:1057B00000000000000000000000000000000000E9
:1057C00000000000F81F000000000000F81F0000AB
:1057D00000000000000000000000000000000000C9
:1057E00000000000000000000000000000000000B9
:1057F0000000000008003800F001C007001F00187A
:10580000001FC007F0013800080000000000000081
:10581000000000000000E003F80F180C0C180C1832
:105820000018000C000600038001C000C000C0008A
:1058300000000000C000C0000000000000000000E8
:105840000000000000000000E00718180420C22932
:10585000224A114409440944094409221113E20C63
:10586000024004201818E0070000000000000000BB
:1058700000000000000080038003C006C006C006D0
:10588000600C600C301830183018F83FF83F1C706E
:105890000C600C6006C006C00000000000000000A4
:1058A000000000000000FC03FC0F0C0C0C180C188E
:1058B0000C180C0CFC07FC0F0C180C300C300C30C6
:1058C0000C300C18FC1FFC0700000000000000005A
:1058D000000000000000C007F01F38381C300C70BA
:1058E00006600600060006000600060006000660C8
:1058F0000C701C30F01FE0070000000000000000EA
:10590000000000000000FE03FE0F060E0618061839
:1059100006300630063006300630063006300618EF
:105920000618060EFE0FFE03000000000000000037
:10593000000000000000FC3FFC3F0C000C000C00CD
:105940000C000C00FC1FFC1F0C000C000C000C00D9
:105950000C000C00FC3FFC3F0000000000000000B9
:10596000000000000000F83FF83F18001800180081
:1059700018001800F81FF81F180018001800180069
:1059800018001800180018000000000000000000B7
:10599000000000000000E00FF83F3C780E6006E0D9
:1059A00007C00300030003FE03FE03C007C006C0D8
:1059B0000EC03CF0F83FE00F0000000000000000C7
:1059C0000000000000000C300C300C300C300C30AB
:1059D0000C300C30FC3FFC3F0C300C300C300C30E9
:1059E0000C300C300C300C300000000000000000C7
:1059F0000000000000008001800180018001800122
:105A0000800180018001800180018001800180018E
:105A10008001800180018001000000000000000082
:105A20000000000000000006000600060006000658
:105A3000000600060006000600060006000618061E
:105A400018063807F003E001000000000000000025
:105A500000000000000006300618060C06060603CB
:105A60008601C60066007600DE008E01060306068B
:105A7000060C06180630066000000000000000005A
:105A8000000000000000180018001800180018009E
:105A90001800180018001800180018001800180046
:105AA00018001800F81FF81F000000000000000098
:105AB0000000000000000EE01EF01EF01EF036D8C0
:105AC00036D836D836D866CC66CC66CCC6C6C6C6FE
:105AD000C6C6C6C686C386C300000000000000001C
